{
	"contracts/LoanManager.sol": {
		"LoanManager": {
			"abi": [
				{
					"inputs": [
						{
							"internalType": "address",
							"name": "tokenAddress",
							"type": "address"
						},
						{
							"internalType": "address",
							"name": "vaultAddress",
							"type": "address"
						}
					],
					"stateMutability": "nonpayable",
					"type": "constructor"
				},
				{
					"inputs": [
						{
							"internalType": "address",
							"name": "owner",
							"type": "address"
						}
					],
					"name": "OwnableInvalidOwner",
					"type": "error"
				},
				{
					"inputs": [
						{
							"internalType": "address",
							"name": "account",
							"type": "address"
						}
					],
					"name": "OwnableUnauthorizedAccount",
					"type": "error"
				},
				{
					"inputs": [
						{
							"internalType": "address",
							"name": "token",
							"type": "address"
						}
					],
					"name": "SafeERC20FailedOperation",
					"type": "error"
				},
				{
					"anonymous": false,
					"inputs": [
						{
							"indexed": false,
							"internalType": "uint256",
							"name": "id",
							"type": "uint256"
						},
						{
							"indexed": false,
							"internalType": "address",
							"name": "borrower",
							"type": "address"
						},
						{
							"indexed": false,
							"internalType": "uint256",
							"name": "amount",
							"type": "uint256"
						}
					],
					"name": "LoanCreated",
					"type": "event"
				},
				{
					"anonymous": false,
					"inputs": [
						{
							"indexed": false,
							"internalType": "uint256",
							"name": "id",
							"type": "uint256"
						},
						{
							"indexed": false,
							"internalType": "address",
							"name": "borrower",
							"type": "address"
						},
						{
							"indexed": false,
							"internalType": "uint256",
							"name": "amount",
							"type": "uint256"
						}
					],
					"name": "LoanRepaid",
					"type": "event"
				},
				{
					"anonymous": false,
					"inputs": [
						{
							"indexed": true,
							"internalType": "address",
							"name": "previousOwner",
							"type": "address"
						},
						{
							"indexed": true,
							"internalType": "address",
							"name": "newOwner",
							"type": "address"
						}
					],
					"name": "OwnershipTransferred",
					"type": "event"
				},
				{
					"inputs": [],
					"name": "bhcToken",
					"outputs": [
						{
							"internalType": "contract IERC20",
							"name": "",
							"type": "address"
						}
					],
					"stateMutability": "view",
					"type": "function"
				},
				{
					"inputs": [
						{
							"internalType": "uint256",
							"name": "amount",
							"type": "uint256"
						}
					],
					"name": "createLoan",
					"outputs": [],
					"stateMutability": "nonpayable",
					"type": "function"
				},
				{
					"inputs": [
						{
							"internalType": "uint256",
							"name": "loanId",
							"type": "uint256"
						}
					],
					"name": "getLoan",
					"outputs": [
						{
							"components": [
								{
									"internalType": "uint256",
									"name": "id",
									"type": "uint256"
								},
								{
									"internalType": "address",
									"name": "borrower",
									"type": "address"
								},
								{
									"internalType": "uint256",
									"name": "amount",
									"type": "uint256"
								},
								{
									"internalType": "bool",
									"name": "repaid",
									"type": "bool"
								}
							],
							"internalType": "struct LoanManager.Loan",
							"name": "",
							"type": "tuple"
						}
					],
					"stateMutability": "view",
					"type": "function"
				},
				{
					"inputs": [
						{
							"internalType": "uint256",
							"name": "",
							"type": "uint256"
						}
					],
					"name": "loans",
					"outputs": [
						{
							"internalType": "uint256",
							"name": "id",
							"type": "uint256"
						},
						{
							"internalType": "address",
							"name": "borrower",
							"type": "address"
						},
						{
							"internalType": "uint256",
							"name": "amount",
							"type": "uint256"
						},
						{
							"internalType": "bool",
							"name": "repaid",
							"type": "bool"
						}
					],
					"stateMutability": "view",
					"type": "function"
				},
				{
					"inputs": [],
					"name": "nextLoanId",
					"outputs": [
						{
							"internalType": "uint256",
							"name": "",
							"type": "uint256"
						}
					],
					"stateMutability": "view",
					"type": "function"
				},
				{
					"inputs": [],
					"name": "owner",
					"outputs": [
						{
							"internalType": "address",
							"name": "",
							"type": "address"
						}
					],
					"stateMutability": "view",
					"type": "function"
				},
				{
					"inputs": [],
					"name": "renounceOwnership",
					"outputs": [],
					"stateMutability": "nonpayable",
					"type": "function"
				},
				{
					"inputs": [
						{
							"internalType": "uint256",
							"name": "loanId",
							"type": "uint256"
						},
						{
							"internalType": "uint256",
							"name": "amount",
							"type": "uint256"
						}
					],
					"name": "repayLoan",
					"outputs": [],
					"stateMutability": "nonpayable",
					"type": "function"
				},
				{
					"inputs": [
						{
							"internalType": "address",
							"name": "newOwner",
							"type": "address"
						}
					],
					"name": "transferOwnership",
					"outputs": [],
					"stateMutability": "nonpayable",
					"type": "function"
				},
				{
					"inputs": [],
					"name": "vault",
					"outputs": [
						{
							"internalType": "address",
							"name": "",
							"type": "address"
						}
					],
					"stateMutability": "view",
					"type": "function"
				}
			],
			"devdoc": {
				"errors": {
					"OwnableInvalidOwner(address)": [
						{
							"details": "The owner is not a valid owner account. (eg. `address(0)`)"
						}
					],
					"OwnableUnauthorizedAccount(address)": [
						{
							"details": "The caller account is not authorized to perform an operation."
						}
					],
					"SafeERC20FailedOperation(address)": [
						{
							"details": "An operation with an ERC-20 token failed."
						}
					]
				},
				"kind": "dev",
				"methods": {
					"owner()": {
						"details": "Returns the address of the current owner."
					},
					"renounceOwnership()": {
						"details": "Leaves the contract without owner. It will not be possible to call `onlyOwner` functions. Can only be called by the current owner. NOTE: Renouncing ownership will leave the contract without an owner, thereby disabling any functionality that is only available to the owner."
					},
					"transferOwnership(address)": {
						"details": "Transfers ownership of the contract to a new account (`newOwner`). Can only be called by the current owner."
					}
				},
				"version": 1
			},
			"evm": {
				"assembly": "    /* \"contracts/LoanManager.sol\":242:1857  contract LoanManager is Ownable {... */\n  mstore(0x40, 0xc0)\n    /* \"contracts/LoanManager.sol\":736:1019  constructor(address tokenAddress, address vaultAddress) Ownable(msg.sender) {... */\n  callvalue\n  dup1\n  iszero\n  tag_1\n  jumpi\n  0x00\n  dup1\n  revert\ntag_1:\n  pop\n  mload(0x40)\n  sub(codesize, bytecodeSize)\n  dup1\n  bytecodeSize\n  dup4\n  codecopy\n  dup2\n  dup2\n  add\n  0x40\n  mstore\n  dup2\n  add\n  swap1\n  tag_2\n  swap2\n  swap1\n  tag_3\n  jump\t// in\ntag_2:\n    /* \"contracts/LoanManager.sol\":800:810  msg.sender */\n  caller\n    /* \"@openzeppelin/contracts/access/Ownable.sol\":1297:1298  0 */\n  0x00\n    /* \"@openzeppelin/contracts/access/Ownable.sol\":1273:1299  initialOwner == address(0) */\n  0xffffffffffffffffffffffffffffffffffffffff\n  and\n    /* \"@openzeppelin/contracts/access/Ownable.sol\":1273:1285  initialOwner */\n  dup2\n    /* \"@openzeppelin/contracts/access/Ownable.sol\":1273:1299  initialOwner == address(0) */\n  0xffffffffffffffffffffffffffffffffffffffff\n  and\n  sub\n    /* \"@openzeppelin/contracts/access/Ownable.sol\":1269:1364  if (initialOwner == address(0)) {... */\n  tag_7\n  jumpi\n    /* \"@openzeppelin/contracts/access/Ownable.sol\":1350:1351  0 */\n  0x00\n    /* \"@openzeppelin/contracts/access/Ownable.sol\":1322:1353  OwnableInvalidOwner(address(0)) */\n  mload(0x40)\n  0x1e4fbdf700000000000000000000000000000000000000000000000000000000\n  dup2\n  mstore\n  0x04\n  add\n  tag_8\n  swap2\n  swap1\n  tag_9\n  jump\t// in\ntag_8:\n  mload(0x40)\n  dup1\n  swap2\n  sub\n  swap1\n  revert\n    /* \"@openzeppelin/contracts/access/Ownable.sol\":1269:1364  if (initialOwner == address(0)) {... */\ntag_7:\n    /* \"@openzeppelin/contracts/access/Ownable.sol\":1373:1405  _transferOwnership(initialOwner) */\n  tag_10\n    /* \"@openzeppelin/contracts/access/Ownable.sol\":1392:1404  initialOwner */\n  dup2\n    /* \"@openzeppelin/contracts/access/Ownable.sol\":1373:1391  _transferOwnership */\n  shl(0x20, tag_11)\n    /* \"@openzeppelin/contracts/access/Ownable.sol\":1373:1405  _transferOwnership(initialOwner) */\n  0x20\n  shr\n  jump\t// in\ntag_10:\n    /* \"@openzeppelin/contracts/access/Ownable.sol\":1225:1412  constructor(address initialOwner) {... */\n  pop\n    /* \"contracts/LoanManager.sol\":855:856  0 */\n  0x00\n    /* \"contracts/LoanManager.sol\":831:857  tokenAddress != address(0) */\n  0xffffffffffffffffffffffffffffffffffffffff\n  and\n    /* \"contracts/LoanManager.sol\":831:843  tokenAddress */\n  dup3\n    /* \"contracts/LoanManager.sol\":831:857  tokenAddress != address(0) */\n  0xffffffffffffffffffffffffffffffffffffffff\n  and\n  sub\n    /* \"contracts/LoanManager.sol\":823:875  require(tokenAddress != address(0), \"Invalid token\") */\n  tag_13\n  jumpi\n  mload(0x40)\n  0x08c379a000000000000000000000000000000000000000000000000000000000\n  dup2\n  mstore\n  0x04\n  add\n  tag_14\n  swap1\n  tag_15\n  jump\t// in\ntag_14:\n  mload(0x40)\n  dup1\n  swap2\n  sub\n  swap1\n  revert\ntag_13:\n    /* \"contracts/LoanManager.sol\":918:919  0 */\n  0x00\n    /* \"contracts/LoanManager.sol\":894:920  vaultAddress != address(0) */\n  0xffffffffffffffffffffffffffffffffffffffff\n  and\n    /* \"contracts/LoanManager.sol\":894:906  vaultAddress */\n  dup2\n    /* \"contracts/LoanManager.sol\":894:920  vaultAddress != address(0) */\n  0xffffffffffffffffffffffffffffffffffffffff\n  and\n  sub\n    /* \"contracts/LoanManager.sol\":886:938  require(vaultAddress != address(0), \"Invalid vault\") */\n  tag_16\n  jumpi\n  mload(0x40)\n  0x08c379a000000000000000000000000000000000000000000000000000000000\n  dup2\n  mstore\n  0x04\n  add\n  tag_17\n  swap1\n  tag_18\n  jump\t// in\ntag_17:\n  mload(0x40)\n  dup1\n  swap2\n  sub\n  swap1\n  revert\ntag_16:\n    /* \"contracts/LoanManager.sol\":967:979  tokenAddress */\n  dup2\n    /* \"contracts/LoanManager.sol\":949:980  bhcToken = IERC20(tokenAddress) */\n  0xffffffffffffffffffffffffffffffffffffffff\n  and\n  0x80\n  dup2\n  0xffffffffffffffffffffffffffffffffffffffff\n  and\n  dup2\n  mstore\n  pop\n  pop\n    /* \"contracts/LoanManager.sol\":999:1011  vaultAddress */\n  dup1\n    /* \"contracts/LoanManager.sol\":991:1011  vault = vaultAddress */\n  0xffffffffffffffffffffffffffffffffffffffff\n  and\n  0xa0\n  dup2\n  0xffffffffffffffffffffffffffffffffffffffff\n  and\n  dup2\n  mstore\n  pop\n  pop\n    /* \"contracts/LoanManager.sol\":736:1019  constructor(address tokenAddress, address vaultAddress) Ownable(msg.sender) {... */\n  pop\n  pop\n    /* \"contracts/LoanManager.sol\":242:1857  contract LoanManager is Ownable {... */\n  jump(tag_19)\n    /* \"@openzeppelin/contracts/access/Ownable.sol\":2912:3099  function _transferOwnership(address newOwner) internal virtual {... */\ntag_11:\n    /* \"@openzeppelin/contracts/access/Ownable.sol\":2985:3001  address oldOwner */\n  0x00\n    /* \"@openzeppelin/contracts/access/Ownable.sol\":3004:3010  _owner */\n  dup1\n  0x00\n  swap1\n  sload\n  swap1\n  0x0100\n  exp\n  swap1\n  div\n  0xffffffffffffffffffffffffffffffffffffffff\n  and\n    /* \"@openzeppelin/contracts/access/Ownable.sol\":2985:3010  address oldOwner = _owner */\n  swap1\n  pop\n    /* \"@openzeppelin/contracts/access/Ownable.sol\":3029:3037  newOwner */\n  dup2\n    /* \"@openzeppelin/contracts/access/Ownable.sol\":3020:3026  _owner */\n  0x00\n  dup1\n    /* \"@openzeppelin/contracts/access/Ownable.sol\":3020:3037  _owner = newOwner */\n  0x0100\n  exp\n  dup2\n  sload\n  dup2\n  0xffffffffffffffffffffffffffffffffffffffff\n  mul\n  not\n  and\n  swap1\n  dup4\n  0xffffffffffffffffffffffffffffffffffffffff\n  and\n  mul\n  or\n  swap1\n  sstore\n  pop\n    /* \"@openzeppelin/contracts/access/Ownable.sol\":3083:3091  newOwner */\n  dup2\n    /* \"@openzeppelin/contracts/access/Ownable.sol\":3052:3092  OwnershipTransferred(oldOwner, newOwner) */\n  0xffffffffffffffffffffffffffffffffffffffff\n  and\n    /* \"@openzeppelin/contracts/access/Ownable.sol\":3073:3081  oldOwner */\n  dup2\n    /* \"@openzeppelin/contracts/access/Ownable.sol\":3052:3092  OwnershipTransferred(oldOwner, newOwner) */\n  0xffffffffffffffffffffffffffffffffffffffff\n  and\n  0x8be0079c531659141344cd1fd0a4f28419497f9722a3daafe3b4186f6b6457e0\n  mload(0x40)\n  mload(0x40)\n  dup1\n  swap2\n  sub\n  swap1\n  log3\n    /* \"@openzeppelin/contracts/access/Ownable.sol\":2975:3099  {... */\n  pop\n    /* \"@openzeppelin/contracts/access/Ownable.sol\":2912:3099  function _transferOwnership(address newOwner) internal virtual {... */\n  pop\n  jump\t// out\n    /* \"#utility.yul\":88:205   */\ntag_22:\n    /* \"#utility.yul\":197:198   */\n  0x00\n    /* \"#utility.yul\":194:195   */\n  dup1\n    /* \"#utility.yul\":187:199   */\n  revert\n    /* \"#utility.yul\":334:460   */\ntag_24:\n    /* \"#utility.yul\":371:378   */\n  0x00\n    /* \"#utility.yul\":411:453   */\n  0xffffffffffffffffffffffffffffffffffffffff\n    /* \"#utility.yul\":404:409   */\n  dup3\n    /* \"#utility.yul\":400:454   */\n  and\n    /* \"#utility.yul\":389:454   */\n  swap1\n  pop\n    /* \"#utility.yul\":334:460   */\n  swap2\n  swap1\n  pop\n  jump\t// out\n    /* \"#utility.yul\":466:562   */\ntag_25:\n    /* \"#utility.yul\":503:510   */\n  0x00\n    /* \"#utility.yul\":532:556   */\n  tag_40\n    /* \"#utility.yul\":550:555   */\n  dup3\n    /* \"#utility.yul\":532:556   */\n  tag_24\n  jump\t// in\ntag_40:\n    /* \"#utility.yul\":521:556   */\n  swap1\n  pop\n    /* \"#utility.yul\":466:562   */\n  swap2\n  swap1\n  pop\n  jump\t// out\n    /* \"#utility.yul\":568:690   */\ntag_26:\n    /* \"#utility.yul\":641:665   */\n  tag_42\n    /* \"#utility.yul\":659:664   */\n  dup2\n    /* \"#utility.yul\":641:665   */\n  tag_25\n  jump\t// in\ntag_42:\n    /* \"#utility.yul\":634:639   */\n  dup2\n    /* \"#utility.yul\":631:666   */\n  eq\n    /* \"#utility.yul\":621:684   */\n  tag_43\n  jumpi\n    /* \"#utility.yul\":680:681   */\n  0x00\n    /* \"#utility.yul\":677:678   */\n  dup1\n    /* \"#utility.yul\":670:682   */\n  revert\n    /* \"#utility.yul\":621:684   */\ntag_43:\n    /* \"#utility.yul\":568:690   */\n  pop\n  jump\t// out\n    /* \"#utility.yul\":696:839   */\ntag_27:\n    /* \"#utility.yul\":753:758   */\n  0x00\n    /* \"#utility.yul\":784:790   */\n  dup2\n    /* \"#utility.yul\":778:791   */\n  mload\n    /* \"#utility.yul\":769:791   */\n  swap1\n  pop\n    /* \"#utility.yul\":800:833   */\n  tag_45\n    /* \"#utility.yul\":827:832   */\n  dup2\n    /* \"#utility.yul\":800:833   */\n  tag_26\n  jump\t// in\ntag_45:\n    /* \"#utility.yul\":696:839   */\n  swap3\n  swap2\n  pop\n  pop\n  jump\t// out\n    /* \"#utility.yul\":845:1352   */\ntag_3:\n    /* \"#utility.yul\":924:930   */\n  0x00\n    /* \"#utility.yul\":932:938   */\n  dup1\n    /* \"#utility.yul\":981:983   */\n  0x40\n    /* \"#utility.yul\":969:978   */\n  dup4\n    /* \"#utility.yul\":960:967   */\n  dup6\n    /* \"#utility.yul\":956:979   */\n  sub\n    /* \"#utility.yul\":952:984   */\n  slt\n    /* \"#utility.yul\":949:1068   */\n  iszero\n  tag_47\n  jumpi\n    /* \"#utility.yul\":987:1066   */\n  tag_48\n  tag_22\n  jump\t// in\ntag_48:\n    /* \"#utility.yul\":949:1068   */\ntag_47:\n    /* \"#utility.yul\":1107:1108   */\n  0x00\n    /* \"#utility.yul\":1132:1196   */\n  tag_49\n    /* \"#utility.yul\":1188:1195   */\n  dup6\n    /* \"#utility.yul\":1179:1185   */\n  dup3\n    /* \"#utility.yul\":1168:1177   */\n  dup7\n    /* \"#utility.yul\":1164:1186   */\n  add\n    /* \"#utility.yul\":1132:1196   */\n  tag_27\n  jump\t// in\ntag_49:\n    /* \"#utility.yul\":1122:1196   */\n  swap3\n  pop\n    /* \"#utility.yul\":1078:1206   */\n  pop\n    /* \"#utility.yul\":1245:1247   */\n  0x20\n    /* \"#utility.yul\":1271:1335   */\n  tag_50\n    /* \"#utility.yul\":1327:1334   */\n  dup6\n    /* \"#utility.yul\":1318:1324   */\n  dup3\n    /* \"#utility.yul\":1307:1316   */\n  dup7\n    /* \"#utility.yul\":1303:1325   */\n  add\n    /* \"#utility.yul\":1271:1335   */\n  tag_27\n  jump\t// in\ntag_50:\n    /* \"#utility.yul\":1261:1335   */\n  swap2\n  pop\n    /* \"#utility.yul\":1216:1345   */\n  pop\n    /* \"#utility.yul\":845:1352   */\n  swap3\n  pop\n  swap3\n  swap1\n  pop\n  jump\t// out\n    /* \"#utility.yul\":1358:1476   */\ntag_28:\n    /* \"#utility.yul\":1445:1469   */\n  tag_52\n    /* \"#utility.yul\":1463:1468   */\n  dup2\n    /* \"#utility.yul\":1445:1469   */\n  tag_25\n  jump\t// in\ntag_52:\n    /* \"#utility.yul\":1440:1443   */\n  dup3\n    /* \"#utility.yul\":1433:1470   */\n  mstore\n    /* \"#utility.yul\":1358:1476   */\n  pop\n  pop\n  jump\t// out\n    /* \"#utility.yul\":1482:1704   */\ntag_9:\n    /* \"#utility.yul\":1575:1579   */\n  0x00\n    /* \"#utility.yul\":1613:1615   */\n  0x20\n    /* \"#utility.yul\":1602:1611   */\n  dup3\n    /* \"#utility.yul\":1598:1616   */\n  add\n    /* \"#utility.yul\":1590:1616   */\n  swap1\n  pop\n    /* \"#utility.yul\":1626:1697   */\n  tag_54\n    /* \"#utility.yul\":1694:1695   */\n  0x00\n    /* \"#utility.yul\":1683:1692   */\n  dup4\n    /* \"#utility.yul\":1679:1696   */\n  add\n    /* \"#utility.yul\":1670:1676   */\n  dup5\n    /* \"#utility.yul\":1626:1697   */\n  tag_28\n  jump\t// in\ntag_54:\n    /* \"#utility.yul\":1482:1704   */\n  swap3\n  swap2\n  pop\n  pop\n  jump\t// out\n    /* \"#utility.yul\":1710:1879   */\ntag_29:\n    /* \"#utility.yul\":1794:1805   */\n  0x00\n    /* \"#utility.yul\":1828:1834   */\n  dup3\n    /* \"#utility.yul\":1823:1826   */\n  dup3\n    /* \"#utility.yul\":1816:1835   */\n  mstore\n    /* \"#utility.yul\":1868:1872   */\n  0x20\n    /* \"#utility.yul\":1863:1866   */\n  dup3\n    /* \"#utility.yul\":1859:1873   */\n  add\n    /* \"#utility.yul\":1844:1873   */\n  swap1\n  pop\n    /* \"#utility.yul\":1710:1879   */\n  swap3\n  swap2\n  pop\n  pop\n  jump\t// out\n    /* \"#utility.yul\":1885:2048   */\ntag_30:\n    /* \"#utility.yul\":2025:2040   */\n  0x496e76616c696420746f6b656e00000000000000000000000000000000000000\n    /* \"#utility.yul\":2021:2022   */\n  0x00\n    /* \"#utility.yul\":2013:2019   */\n  dup3\n    /* \"#utility.yul\":2009:2023   */\n  add\n    /* \"#utility.yul\":2002:2041   */\n  mstore\n    /* \"#utility.yul\":1885:2048   */\n  pop\n  jump\t// out\n    /* \"#utility.yul\":2054:2420   */\ntag_31:\n    /* \"#utility.yul\":2196:2199   */\n  0x00\n    /* \"#utility.yul\":2217:2284   */\n  tag_58\n    /* \"#utility.yul\":2281:2283   */\n  0x0d\n    /* \"#utility.yul\":2276:2279   */\n  dup4\n    /* \"#utility.yul\":2217:2284   */\n  tag_29\n  jump\t// in\ntag_58:\n    /* \"#utility.yul\":2210:2284   */\n  swap2\n  pop\n    /* \"#utility.yul\":2293:2386   */\n  tag_59\n    /* \"#utility.yul\":2382:2385   */\n  dup3\n    /* \"#utility.yul\":2293:2386   */\n  tag_30\n  jump\t// in\ntag_59:\n    /* \"#utility.yul\":2411:2413   */\n  0x20\n    /* \"#utility.yul\":2406:2409   */\n  dup3\n    /* \"#utility.yul\":2402:2414   */\n  add\n    /* \"#utility.yul\":2395:2414   */\n  swap1\n  pop\n    /* \"#utility.yul\":2054:2420   */\n  swap2\n  swap1\n  pop\n  jump\t// out\n    /* \"#utility.yul\":2426:2845   */\ntag_15:\n    /* \"#utility.yul\":2592:2596   */\n  0x00\n    /* \"#utility.yul\":2630:2632   */\n  0x20\n    /* \"#utility.yul\":2619:2628   */\n  dup3\n    /* \"#utility.yul\":2615:2633   */\n  add\n    /* \"#utility.yul\":2607:2633   */\n  swap1\n  pop\n    /* \"#utility.yul\":2679:2688   */\n  dup2\n    /* \"#utility.yul\":2673:2677   */\n  dup2\n    /* \"#utility.yul\":2669:2689   */\n  sub\n    /* \"#utility.yul\":2665:2666   */\n  0x00\n    /* \"#utility.yul\":2654:2663   */\n  dup4\n    /* \"#utility.yul\":2650:2667   */\n  add\n    /* \"#utility.yul\":2643:2690   */\n  mstore\n    /* \"#utility.yul\":2707:2838   */\n  tag_61\n    /* \"#utility.yul\":2833:2837   */\n  dup2\n    /* \"#utility.yul\":2707:2838   */\n  tag_31\n  jump\t// in\ntag_61:\n    /* \"#utility.yul\":2699:2838   */\n  swap1\n  pop\n    /* \"#utility.yul\":2426:2845   */\n  swap2\n  swap1\n  pop\n  jump\t// out\n    /* \"#utility.yul\":2851:3014   */\ntag_32:\n    /* \"#utility.yul\":2991:3006   */\n  0x496e76616c6964207661756c7400000000000000000000000000000000000000\n    /* \"#utility.yul\":2987:2988   */\n  0x00\n    /* \"#utility.yul\":2979:2985   */\n  dup3\n    /* \"#utility.yul\":2975:2989   */\n  add\n    /* \"#utility.yul\":2968:3007   */\n  mstore\n    /* \"#utility.yul\":2851:3014   */\n  pop\n  jump\t// out\n    /* \"#utility.yul\":3020:3386   */\ntag_33:\n    /* \"#utility.yul\":3162:3165   */\n  0x00\n    /* \"#utility.yul\":3183:3250   */\n  tag_64\n    /* \"#utility.yul\":3247:3249   */\n  0x0d\n    /* \"#utility.yul\":3242:3245   */\n  dup4\n    /* \"#utility.yul\":3183:3250   */\n  tag_29\n  jump\t// in\ntag_64:\n    /* \"#utility.yul\":3176:3250   */\n  swap2\n  pop\n    /* \"#utility.yul\":3259:3352   */\n  tag_65\n    /* \"#utility.yul\":3348:3351   */\n  dup3\n    /* \"#utility.yul\":3259:3352   */\n  tag_32\n  jump\t// in\ntag_65:\n    /* \"#utility.yul\":3377:3379   */\n  0x20\n    /* \"#utility.yul\":3372:3375   */\n  dup3\n    /* \"#utility.yul\":3368:3380   */\n  add\n    /* \"#utility.yul\":3361:3380   */\n  swap1\n  pop\n    /* \"#utility.yul\":3020:3386   */\n  swap2\n  swap1\n  pop\n  jump\t// out\n    /* \"#utility.yul\":3392:3811   */\ntag_18:\n    /* \"#utility.yul\":3558:3562   */\n  0x00\n    /* \"#utility.yul\":3596:3598   */\n  0x20\n    /* \"#utility.yul\":3585:3594   */\n  dup3\n    /* \"#utility.yul\":3581:3599   */\n  add\n    /* \"#utility.yul\":3573:3599   */\n  swap1\n  pop\n    /* \"#utility.yul\":3645:3654   */\n  dup2\n    /* \"#utility.yul\":3639:3643   */\n  dup2\n    /* \"#utility.yul\":3635:3655   */\n  sub\n    /* \"#utility.yul\":3631:3632   */\n  0x00\n    /* \"#utility.yul\":3620:3629   */\n  dup4\n    /* \"#utility.yul\":3616:3633   */\n  add\n    /* \"#utility.yul\":3609:3656   */\n  mstore\n    /* \"#utility.yul\":3673:3804   */\n  tag_67\n    /* \"#utility.yul\":3799:3803   */\n  dup2\n    /* \"#utility.yul\":3673:3804   */\n  tag_33\n  jump\t// in\ntag_67:\n    /* \"#utility.yul\":3665:3804   */\n  swap1\n  pop\n    /* \"#utility.yul\":3392:3811   */\n  swap2\n  swap1\n  pop\n  jump\t// out\n    /* \"contracts/LoanManager.sol\":242:1857  contract LoanManager is Ownable {... */\ntag_19:\n  mload(0x80)\n  mload(0xa0)\n  codecopy(0x00, dataOffset(sub_0), dataSize(sub_0))\n  0x00\n  assignImmutable(\"0x6d6142e7bc5885f8a3af14e4530d0fef2107c35d29b4827380ff447a51b70068\")\n  0x00\n  assignImmutable(\"0x6012fd21c5b23786b63b1af9ec5ac656f1ee22fef68774e5dea3571e42d00d20\")\n  return(0x00, dataSize(sub_0))\nstop\n\nsub_0: assembly {\n        /* \"contracts/LoanManager.sol\":242:1857  contract LoanManager is Ownable {... */\n      mstore(0x40, 0x80)\n      callvalue\n      dup1\n      iszero\n      tag_1\n      jumpi\n      0x00\n      dup1\n      revert\n    tag_1:\n      pop\n      jumpi(tag_2, lt(calldatasize, 0x04))\n      shr(0xe0, calldataload(0x00))\n      dup1\n      0x9a4e8ecf\n      gt\n      tag_13\n      jumpi\n      dup1\n      0x9a4e8ecf\n      eq\n      tag_8\n      jumpi\n      dup1\n      0xbe81c529\n      eq\n      tag_9\n      jumpi\n      dup1\n      0xe1ec3c68\n      eq\n      tag_10\n      jumpi\n      dup1\n      0xf2fde38b\n      eq\n      tag_11\n      jumpi\n      dup1\n      0xfbfa77cf\n      eq\n      tag_12\n      jumpi\n      jump(tag_2)\n    tag_13:\n      dup1\n      0x504006ca\n      eq\n      tag_3\n      jumpi\n      dup1\n      0x715018a6\n      eq\n      tag_4\n      jumpi\n      dup1\n      0x87c51459\n      eq\n      tag_5\n      jumpi\n      dup1\n      0x8a700b53\n      eq\n      tag_6\n      jumpi\n      dup1\n      0x8da5cb5b\n      eq\n      tag_7\n      jumpi\n    tag_2:\n      0x00\n      dup1\n      revert\n        /* \"contracts/LoanManager.sol\":1746:1854  function getLoan(uint256 loanId) external view returns (Loan memory) {... */\n    tag_3:\n      tag_14\n      0x04\n      dup1\n      calldatasize\n      sub\n      dup2\n      add\n      swap1\n      tag_15\n      swap2\n      swap1\n      tag_16\n      jump\t// in\n    tag_15:\n      tag_17\n      jump\t// in\n    tag_14:\n      mload(0x40)\n      tag_18\n      swap2\n      swap1\n      tag_19\n      jump\t// in\n    tag_18:\n      mload(0x40)\n      dup1\n      swap2\n      sub\n      swap1\n      return\n        /* \"@openzeppelin/contracts/access/Ownable.sol\":2293:2394  function renounceOwnership() public virtual onlyOwner {... */\n    tag_4:\n      tag_20\n      tag_21\n      jump\t// in\n    tag_20:\n      stop\n        /* \"contracts/LoanManager.sol\":561:586  uint256 public nextLoanId */\n    tag_5:\n      tag_22\n      tag_23\n      jump\t// in\n    tag_22:\n      mload(0x40)\n      tag_24\n      swap2\n      swap1\n      tag_25\n      jump\t// in\n    tag_24:\n      mload(0x40)\n      dup1\n      swap2\n      sub\n      swap1\n      return\n        /* \"contracts/LoanManager.sol\":1310:1738  function repayLoan(uint256 loanId, uint256 amount) external {... */\n    tag_6:\n      tag_26\n      0x04\n      dup1\n      calldatasize\n      sub\n      dup2\n      add\n      swap1\n      tag_27\n      swap2\n      swap1\n      tag_28\n      jump\t// in\n    tag_27:\n      tag_29\n      jump\t// in\n    tag_26:\n      stop\n        /* \"@openzeppelin/contracts/access/Ownable.sol\":1638:1723  function owner() public view virtual returns (address) {... */\n    tag_7:\n      tag_30\n      tag_31\n      jump\t// in\n    tag_30:\n      mload(0x40)\n      tag_32\n      swap2\n      swap1\n      tag_33\n      jump\t// in\n    tag_32:\n      mload(0x40)\n      dup1\n      swap2\n      sub\n      swap1\n      return\n        /* \"contracts/LoanManager.sol\":1027:1302  function createLoan(uint256 amount) external {... */\n    tag_8:\n      tag_34\n      0x04\n      dup1\n      calldatasize\n      sub\n      dup2\n      add\n      swap1\n      tag_35\n      swap2\n      swap1\n      tag_16\n      jump\t// in\n    tag_35:\n      tag_36\n      jump\t// in\n    tag_34:\n      stop\n        /* \"contracts/LoanManager.sol\":316:348  IERC20 public immutable bhcToken */\n    tag_9:\n      tag_37\n      tag_38\n      jump\t// in\n    tag_37:\n      mload(0x40)\n      tag_39\n      swap2\n      swap1\n      tag_40\n      jump\t// in\n    tag_39:\n      mload(0x40)\n      dup1\n      swap2\n      sub\n      swap1\n      return\n        /* \"contracts/LoanManager.sol\":517:554  mapping(uint256 => Loan) public loans */\n    tag_10:\n      tag_41\n      0x04\n      dup1\n      calldatasize\n      sub\n      dup2\n      add\n      swap1\n      tag_42\n      swap2\n      swap1\n      tag_16\n      jump\t// in\n    tag_42:\n      tag_43\n      jump\t// in\n    tag_41:\n      mload(0x40)\n      tag_44\n      swap5\n      swap4\n      swap3\n      swap2\n      swap1\n      tag_45\n      jump\t// in\n    tag_44:\n      mload(0x40)\n      dup1\n      swap2\n      sub\n      swap1\n      return\n        /* \"@openzeppelin/contracts/access/Ownable.sol\":2543:2758  function transferOwnership(address newOwner) public virtual onlyOwner {... */\n    tag_11:\n      tag_46\n      0x04\n      dup1\n      calldatasize\n      sub\n      dup2\n      add\n      swap1\n      tag_47\n      swap2\n      swap1\n      tag_48\n      jump\t// in\n    tag_47:\n      tag_49\n      jump\t// in\n    tag_46:\n      stop\n        /* \"contracts/LoanManager.sol\":355:385  address public immutable vault */\n    tag_12:\n      tag_50\n      tag_51\n      jump\t// in\n    tag_50:\n      mload(0x40)\n      tag_52\n      swap2\n      swap1\n      tag_33\n      jump\t// in\n    tag_52:\n      mload(0x40)\n      dup1\n      swap2\n      sub\n      swap1\n      return\n        /* \"contracts/LoanManager.sol\":1746:1854  function getLoan(uint256 loanId) external view returns (Loan memory) {... */\n    tag_17:\n        /* \"contracts/LoanManager.sol\":1802:1813  Loan memory */\n      tag_53\n      tag_54\n      jump\t// in\n    tag_53:\n        /* \"contracts/LoanManager.sol\":1833:1838  loans */\n      0x01\n        /* \"contracts/LoanManager.sol\":1833:1846  loans[loanId] */\n      0x00\n        /* \"contracts/LoanManager.sol\":1839:1845  loanId */\n      dup4\n        /* \"contracts/LoanManager.sol\":1833:1846  loans[loanId] */\n      dup2\n      mstore\n      0x20\n      add\n      swap1\n      dup2\n      mstore\n      0x20\n      add\n      0x00\n      keccak256\n        /* \"contracts/LoanManager.sol\":1826:1846  return loans[loanId] */\n      mload(0x40)\n      dup1\n      0x80\n      add\n      0x40\n      mstore\n      swap1\n      dup2\n      0x00\n      dup3\n      add\n      sload\n      dup2\n      mstore\n      0x20\n      add\n      0x01\n      dup3\n      add\n      0x00\n      swap1\n      sload\n      swap1\n      0x0100\n      exp\n      swap1\n      div\n      0xffffffffffffffffffffffffffffffffffffffff\n      and\n      0xffffffffffffffffffffffffffffffffffffffff\n      and\n      0xffffffffffffffffffffffffffffffffffffffff\n      and\n      dup2\n      mstore\n      0x20\n      add\n      0x02\n      dup3\n      add\n      sload\n      dup2\n      mstore\n      0x20\n      add\n      0x03\n      dup3\n      add\n      0x00\n      swap1\n      sload\n      swap1\n      0x0100\n      exp\n      swap1\n      div\n      0xff\n      and\n      iszero\n      iszero\n      iszero\n      iszero\n      dup2\n      mstore\n      pop\n      pop\n      swap1\n      pop\n        /* \"contracts/LoanManager.sol\":1746:1854  function getLoan(uint256 loanId) external view returns (Loan memory) {... */\n      swap2\n      swap1\n      pop\n      jump\t// out\n        /* \"@openzeppelin/contracts/access/Ownable.sol\":2293:2394  function renounceOwnership() public virtual onlyOwner {... */\n    tag_21:\n        /* \"@openzeppelin/contracts/access/Ownable.sol\":1531:1544  _checkOwner() */\n      tag_57\n        /* \"@openzeppelin/contracts/access/Ownable.sol\":1531:1542  _checkOwner */\n      tag_58\n        /* \"@openzeppelin/contracts/access/Ownable.sol\":1531:1544  _checkOwner() */\n      jump\t// in\n    tag_57:\n        /* \"@openzeppelin/contracts/access/Ownable.sol\":2357:2387  _transferOwnership(address(0)) */\n      tag_60\n        /* \"@openzeppelin/contracts/access/Ownable.sol\":2384:2385  0 */\n      0x00\n        /* \"@openzeppelin/contracts/access/Ownable.sol\":2357:2375  _transferOwnership */\n      tag_61\n        /* \"@openzeppelin/contracts/access/Ownable.sol\":2357:2387  _transferOwnership(address(0)) */\n      jump\t// in\n    tag_60:\n        /* \"@openzeppelin/contracts/access/Ownable.sol\":2293:2394  function renounceOwnership() public virtual onlyOwner {... */\n      jump\t// out\n        /* \"contracts/LoanManager.sol\":561:586  uint256 public nextLoanId */\n    tag_23:\n      sload(0x02)\n      dup2\n      jump\t// out\n        /* \"contracts/LoanManager.sol\":1310:1738  function repayLoan(uint256 loanId, uint256 amount) external {... */\n    tag_29:\n        /* \"contracts/LoanManager.sol\":1381:1396  Loan storage ln */\n      0x00\n        /* \"contracts/LoanManager.sol\":1399:1404  loans */\n      0x01\n        /* \"contracts/LoanManager.sol\":1399:1412  loans[loanId] */\n      0x00\n        /* \"contracts/LoanManager.sol\":1405:1411  loanId */\n      dup5\n        /* \"contracts/LoanManager.sol\":1399:1412  loans[loanId] */\n      dup2\n      mstore\n      0x20\n      add\n      swap1\n      dup2\n      mstore\n      0x20\n      add\n      0x00\n      keccak256\n        /* \"contracts/LoanManager.sol\":1381:1412  Loan storage ln = loans[loanId] */\n      swap1\n      pop\n        /* \"contracts/LoanManager.sol\":1432:1434  ln */\n      dup1\n        /* \"contracts/LoanManager.sol\":1432:1441  ln.repaid */\n      0x03\n      add\n      0x00\n      swap1\n      sload\n      swap1\n      0x0100\n      exp\n      swap1\n      div\n      0xff\n      and\n        /* \"contracts/LoanManager.sol\":1431:1441  !ln.repaid */\n      iszero\n        /* \"contracts/LoanManager.sol\":1423:1460  require(!ln.repaid, \"Already repaid\") */\n      tag_63\n      jumpi\n      mload(0x40)\n      0x08c379a000000000000000000000000000000000000000000000000000000000\n      dup2\n      mstore\n      0x04\n      add\n      tag_64\n      swap1\n      tag_65\n      jump\t// in\n    tag_64:\n      mload(0x40)\n      dup1\n      swap2\n      sub\n      swap1\n      revert\n    tag_63:\n        /* \"contracts/LoanManager.sol\":1494:1504  msg.sender */\n      caller\n        /* \"contracts/LoanManager.sol\":1479:1504  ln.borrower == msg.sender */\n      0xffffffffffffffffffffffffffffffffffffffff\n      and\n        /* \"contracts/LoanManager.sol\":1479:1481  ln */\n      dup2\n        /* \"contracts/LoanManager.sol\":1479:1490  ln.borrower */\n      0x01\n      add\n      0x00\n      swap1\n      sload\n      swap1\n      0x0100\n      exp\n      swap1\n      div\n      0xffffffffffffffffffffffffffffffffffffffff\n      and\n        /* \"contracts/LoanManager.sol\":1479:1504  ln.borrower == msg.sender */\n      0xffffffffffffffffffffffffffffffffffffffff\n      and\n      eq\n        /* \"contracts/LoanManager.sol\":1471:1521  require(ln.borrower == msg.sender, \"Not borrower\") */\n      tag_66\n      jumpi\n      mload(0x40)\n      0x08c379a000000000000000000000000000000000000000000000000000000000\n      dup2\n      mstore\n      0x04\n      add\n      tag_67\n      swap1\n      tag_68\n      jump\t// in\n    tag_67:\n      mload(0x40)\n      dup1\n      swap2\n      sub\n      swap1\n      revert\n    tag_66:\n        /* \"contracts/LoanManager.sol\":1550:1552  ln */\n      dup1\n        /* \"contracts/LoanManager.sol\":1550:1559  ln.amount */\n      0x02\n      add\n      sload\n        /* \"contracts/LoanManager.sol\":1540:1546  amount */\n      dup3\n        /* \"contracts/LoanManager.sol\":1540:1559  amount >= ln.amount */\n      lt\n      iszero\n        /* \"contracts/LoanManager.sol\":1532:1582  require(amount >= ln.amount, \"Insufficient repay\") */\n      tag_69\n      jumpi\n      mload(0x40)\n      0x08c379a000000000000000000000000000000000000000000000000000000000\n      dup2\n      mstore\n      0x04\n      add\n      tag_70\n      swap1\n      tag_71\n      jump\t// in\n    tag_70:\n      mload(0x40)\n      dup1\n      swap2\n      sub\n      swap1\n      revert\n    tag_69:\n        /* \"contracts/LoanManager.sol\":1595:1647  bhcToken.safeTransferFrom(msg.sender, vault, amount) */\n      tag_72\n        /* \"contracts/LoanManager.sol\":1621:1631  msg.sender */\n      caller\n        /* \"contracts/LoanManager.sol\":1633:1638  vault */\n      immutable(\"0x6d6142e7bc5885f8a3af14e4530d0fef2107c35d29b4827380ff447a51b70068\")\n        /* \"contracts/LoanManager.sol\":1640:1646  amount */\n      dup5\n        /* \"contracts/LoanManager.sol\":1595:1603  bhcToken */\n      immutable(\"0x6012fd21c5b23786b63b1af9ec5ac656f1ee22fef68774e5dea3571e42d00d20\")\n        /* \"contracts/LoanManager.sol\":1595:1620  bhcToken.safeTransferFrom */\n      0xffffffffffffffffffffffffffffffffffffffff\n      and\n      tag_73\n      swap1\n        /* \"contracts/LoanManager.sol\":1595:1647  bhcToken.safeTransferFrom(msg.sender, vault, amount) */\n      swap4\n      swap3\n      swap2\n      swap1\n      0xffffffff\n      and\n      jump\t// in\n    tag_72:\n        /* \"contracts/LoanManager.sol\":1672:1676  true */\n      0x01\n        /* \"contracts/LoanManager.sol\":1660:1662  ln */\n      dup2\n        /* \"contracts/LoanManager.sol\":1660:1669  ln.repaid */\n      0x03\n      add\n      0x00\n        /* \"contracts/LoanManager.sol\":1660:1676  ln.repaid = true */\n      0x0100\n      exp\n      dup2\n      sload\n      dup2\n      0xff\n      mul\n      not\n      and\n      swap1\n      dup4\n      iszero\n      iszero\n      mul\n      or\n      swap1\n      sstore\n      pop\n        /* \"contracts/LoanManager.sol\":1692:1730  LoanRepaid(loanId, msg.sender, amount) */\n      0x512d3e65b3e58c2187bb1872aa435dba5bd09c1c03823ba56ab70aac411e4a21\n        /* \"contracts/LoanManager.sol\":1703:1709  loanId */\n      dup4\n        /* \"contracts/LoanManager.sol\":1711:1721  msg.sender */\n      caller\n        /* \"contracts/LoanManager.sol\":1723:1729  amount */\n      dup5\n        /* \"contracts/LoanManager.sol\":1692:1730  LoanRepaid(loanId, msg.sender, amount) */\n      mload(0x40)\n      tag_74\n      swap4\n      swap3\n      swap2\n      swap1\n      tag_75\n      jump\t// in\n    tag_74:\n      mload(0x40)\n      dup1\n      swap2\n      sub\n      swap1\n      log1\n        /* \"contracts/LoanManager.sol\":1370:1738  {... */\n      pop\n        /* \"contracts/LoanManager.sol\":1310:1738  function repayLoan(uint256 loanId, uint256 amount) external {... */\n      pop\n      pop\n      jump\t// out\n        /* \"@openzeppelin/contracts/access/Ownable.sol\":1638:1723  function owner() public view virtual returns (address) {... */\n    tag_31:\n        /* \"@openzeppelin/contracts/access/Ownable.sol\":1684:1691  address */\n      0x00\n        /* \"@openzeppelin/contracts/access/Ownable.sol\":1710:1716  _owner */\n      dup1\n      0x00\n      swap1\n      sload\n      swap1\n      0x0100\n      exp\n      swap1\n      div\n      0xffffffffffffffffffffffffffffffffffffffff\n      and\n        /* \"@openzeppelin/contracts/access/Ownable.sol\":1703:1716  return _owner */\n      swap1\n      pop\n        /* \"@openzeppelin/contracts/access/Ownable.sol\":1638:1723  function owner() public view virtual returns (address) {... */\n      swap1\n      jump\t// out\n        /* \"contracts/LoanManager.sol\":1027:1302  function createLoan(uint256 amount) external {... */\n    tag_36:\n        /* \"contracts/LoanManager.sol\":1100:1101  0 */\n      0x00\n        /* \"contracts/LoanManager.sol\":1091:1097  amount */\n      dup2\n        /* \"contracts/LoanManager.sol\":1091:1101  amount > 0 */\n      gt\n        /* \"contracts/LoanManager.sol\":1083:1124  require(amount > 0, \"Amount must be > 0\") */\n      tag_78\n      jumpi\n      mload(0x40)\n      0x08c379a000000000000000000000000000000000000000000000000000000000\n      dup2\n      mstore\n      0x04\n      add\n      tag_79\n      swap1\n      tag_80\n      jump\t// in\n    tag_79:\n      mload(0x40)\n      dup1\n      swap2\n      sub\n      swap1\n      revert\n    tag_78:\n        /* \"contracts/LoanManager.sol\":1155:1198  Loan(nextLoanId, msg.sender, amount, false) */\n      mload(0x40)\n      dup1\n      0x80\n      add\n      0x40\n      mstore\n      dup1\n        /* \"contracts/LoanManager.sol\":1160:1170  nextLoanId */\n      sload(0x02)\n        /* \"contracts/LoanManager.sol\":1155:1198  Loan(nextLoanId, msg.sender, amount, false) */\n      dup2\n      mstore\n      0x20\n      add\n        /* \"contracts/LoanManager.sol\":1172:1182  msg.sender */\n      caller\n        /* \"contracts/LoanManager.sol\":1155:1198  Loan(nextLoanId, msg.sender, amount, false) */\n      0xffffffffffffffffffffffffffffffffffffffff\n      and\n      dup2\n      mstore\n      0x20\n      add\n        /* \"contracts/LoanManager.sol\":1184:1190  amount */\n      dup3\n        /* \"contracts/LoanManager.sol\":1155:1198  Loan(nextLoanId, msg.sender, amount, false) */\n      dup2\n      mstore\n      0x20\n      add\n        /* \"contracts/LoanManager.sol\":1192:1197  false */\n      0x00\n        /* \"contracts/LoanManager.sol\":1155:1198  Loan(nextLoanId, msg.sender, amount, false) */\n      iszero\n      iszero\n      dup2\n      mstore\n      pop\n        /* \"contracts/LoanManager.sol\":1135:1140  loans */\n      0x01\n        /* \"contracts/LoanManager.sol\":1135:1152  loans[nextLoanId] */\n      0x00\n        /* \"contracts/LoanManager.sol\":1141:1151  nextLoanId */\n      sload(0x02)\n        /* \"contracts/LoanManager.sol\":1135:1152  loans[nextLoanId] */\n      dup2\n      mstore\n      0x20\n      add\n      swap1\n      dup2\n      mstore\n      0x20\n      add\n      0x00\n      keccak256\n        /* \"contracts/LoanManager.sol\":1135:1198  loans[nextLoanId] = Loan(nextLoanId, msg.sender, amount, false) */\n      0x00\n      dup3\n      add\n      mload\n      dup2\n      0x00\n      add\n      sstore\n      0x20\n      dup3\n      add\n      mload\n      dup2\n      0x01\n      add\n      exp(0x0100, 0x00)\n      dup2\n      sload\n      dup2\n      0xffffffffffffffffffffffffffffffffffffffff\n      mul\n      not\n      and\n      swap1\n      dup4\n      0xffffffffffffffffffffffffffffffffffffffff\n      and\n      mul\n      or\n      swap1\n      sstore\n      pop\n      0x40\n      dup3\n      add\n      mload\n      dup2\n      0x02\n      add\n      sstore\n      0x60\n      dup3\n      add\n      mload\n      dup2\n      0x03\n      add\n      exp(0x0100, 0x00)\n      dup2\n      sload\n      dup2\n      0xff\n      mul\n      not\n      and\n      swap1\n      dup4\n      iszero\n      iszero\n      mul\n      or\n      swap1\n      sstore\n      pop\n      swap1\n      pop\n      pop\n        /* \"contracts/LoanManager.sol\":1214:1257  LoanCreated(nextLoanId, msg.sender, amount) */\n      0x8910ba13a55695f056e224bbbc6b65d866b12a8c2fbdf387fb853a1cca298cd7\n        /* \"contracts/LoanManager.sol\":1226:1236  nextLoanId */\n      sload(0x02)\n        /* \"contracts/LoanManager.sol\":1238:1248  msg.sender */\n      caller\n        /* \"contracts/LoanManager.sol\":1250:1256  amount */\n      dup4\n        /* \"contracts/LoanManager.sol\":1214:1257  LoanCreated(nextLoanId, msg.sender, amount) */\n      mload(0x40)\n      tag_81\n      swap4\n      swap3\n      swap2\n      swap1\n      tag_75\n      jump\t// in\n    tag_81:\n      mload(0x40)\n      dup1\n      swap2\n      sub\n      swap1\n      log1\n        /* \"contracts/LoanManager.sol\":1280:1290  nextLoanId */\n      0x02\n      0x00\n        /* \"contracts/LoanManager.sol\":1280:1292  nextLoanId++ */\n      dup2\n      sload\n      dup1\n      swap3\n      swap2\n      swap1\n      0x01\n      add\n      swap2\n      swap1\n      pop\n      sstore\n      pop\n        /* \"contracts/LoanManager.sol\":1027:1302  function createLoan(uint256 amount) external {... */\n      pop\n      jump\t// out\n        /* \"contracts/LoanManager.sol\":316:348  IERC20 public immutable bhcToken */\n    tag_38:\n      immutable(\"0x6012fd21c5b23786b63b1af9ec5ac656f1ee22fef68774e5dea3571e42d00d20\")\n      dup2\n      jump\t// out\n        /* \"contracts/LoanManager.sol\":517:554  mapping(uint256 => Loan) public loans */\n    tag_43:\n      mstore(0x20, 0x01)\n      dup1\n      0x00\n      mstore\n      keccak256(0x00, 0x40)\n      0x00\n      swap2\n      pop\n      swap1\n      pop\n      dup1\n      0x00\n      add\n      sload\n      swap1\n      dup1\n      0x01\n      add\n      0x00\n      swap1\n      sload\n      swap1\n      0x0100\n      exp\n      swap1\n      div\n      0xffffffffffffffffffffffffffffffffffffffff\n      and\n      swap1\n      dup1\n      0x02\n      add\n      sload\n      swap1\n      dup1\n      0x03\n      add\n      0x00\n      swap1\n      sload\n      swap1\n      0x0100\n      exp\n      swap1\n      div\n      0xff\n      and\n      swap1\n      pop\n      dup5\n      jump\t// out\n        /* \"@openzeppelin/contracts/access/Ownable.sol\":2543:2758  function transferOwnership(address newOwner) public virtual onlyOwner {... */\n    tag_49:\n        /* \"@openzeppelin/contracts/access/Ownable.sol\":1531:1544  _checkOwner() */\n      tag_83\n        /* \"@openzeppelin/contracts/access/Ownable.sol\":1531:1542  _checkOwner */\n      tag_58\n        /* \"@openzeppelin/contracts/access/Ownable.sol\":1531:1544  _checkOwner() */\n      jump\t// in\n    tag_83:\n        /* \"@openzeppelin/contracts/access/Ownable.sol\":2647:2648  0 */\n      0x00\n        /* \"@openzeppelin/contracts/access/Ownable.sol\":2627:2649  newOwner == address(0) */\n      0xffffffffffffffffffffffffffffffffffffffff\n      and\n        /* \"@openzeppelin/contracts/access/Ownable.sol\":2627:2635  newOwner */\n      dup2\n        /* \"@openzeppelin/contracts/access/Ownable.sol\":2627:2649  newOwner == address(0) */\n      0xffffffffffffffffffffffffffffffffffffffff\n      and\n      sub\n        /* \"@openzeppelin/contracts/access/Ownable.sol\":2623:2714  if (newOwner == address(0)) {... */\n      tag_85\n      jumpi\n        /* \"@openzeppelin/contracts/access/Ownable.sol\":2700:2701  0 */\n      0x00\n        /* \"@openzeppelin/contracts/access/Ownable.sol\":2672:2703  OwnableInvalidOwner(address(0)) */\n      mload(0x40)\n      0x1e4fbdf700000000000000000000000000000000000000000000000000000000\n      dup2\n      mstore\n      0x04\n      add\n      tag_86\n      swap2\n      swap1\n      tag_33\n      jump\t// in\n    tag_86:\n      mload(0x40)\n      dup1\n      swap2\n      sub\n      swap1\n      revert\n        /* \"@openzeppelin/contracts/access/Ownable.sol\":2623:2714  if (newOwner == address(0)) {... */\n    tag_85:\n        /* \"@openzeppelin/contracts/access/Ownable.sol\":2723:2751  _transferOwnership(newOwner) */\n      tag_87\n        /* \"@openzeppelin/contracts/access/Ownable.sol\":2742:2750  newOwner */\n      dup2\n        /* \"@openzeppelin/contracts/access/Ownable.sol\":2723:2741  _transferOwnership */\n      tag_61\n        /* \"@openzeppelin/contracts/access/Ownable.sol\":2723:2751  _transferOwnership(newOwner) */\n      jump\t// in\n    tag_87:\n        /* \"@openzeppelin/contracts/access/Ownable.sol\":2543:2758  function transferOwnership(address newOwner) public virtual onlyOwner {... */\n      pop\n      jump\t// out\n        /* \"contracts/LoanManager.sol\":355:385  address public immutable vault */\n    tag_51:\n      immutable(\"0x6d6142e7bc5885f8a3af14e4530d0fef2107c35d29b4827380ff447a51b70068\")\n      dup2\n      jump\t// out\n        /* \"@openzeppelin/contracts/access/Ownable.sol\":1796:1958  function _checkOwner() internal view virtual {... */\n    tag_58:\n        /* \"@openzeppelin/contracts/access/Ownable.sol\":1866:1878  _msgSender() */\n      tag_89\n        /* \"@openzeppelin/contracts/access/Ownable.sol\":1866:1876  _msgSender */\n      tag_90\n        /* \"@openzeppelin/contracts/access/Ownable.sol\":1866:1878  _msgSender() */\n      jump\t// in\n    tag_89:\n        /* \"@openzeppelin/contracts/access/Ownable.sol\":1855:1878  owner() != _msgSender() */\n      0xffffffffffffffffffffffffffffffffffffffff\n      and\n        /* \"@openzeppelin/contracts/access/Ownable.sol\":1855:1862  owner() */\n      tag_91\n        /* \"@openzeppelin/contracts/access/Ownable.sol\":1855:1860  owner */\n      tag_31\n        /* \"@openzeppelin/contracts/access/Ownable.sol\":1855:1862  owner() */\n      jump\t// in\n    tag_91:\n        /* \"@openzeppelin/contracts/access/Ownable.sol\":1855:1878  owner() != _msgSender() */\n      0xffffffffffffffffffffffffffffffffffffffff\n      and\n      eq\n        /* \"@openzeppelin/contracts/access/Ownable.sol\":1851:1952  if (owner() != _msgSender()) {... */\n      tag_92\n      jumpi\n        /* \"@openzeppelin/contracts/access/Ownable.sol\":1928:1940  _msgSender() */\n      tag_93\n        /* \"@openzeppelin/contracts/access/Ownable.sol\":1928:1938  _msgSender */\n      tag_90\n        /* \"@openzeppelin/contracts/access/Ownable.sol\":1928:1940  _msgSender() */\n      jump\t// in\n    tag_93:\n        /* \"@openzeppelin/contracts/access/Ownable.sol\":1901:1941  OwnableUnauthorizedAccount(_msgSender()) */\n      mload(0x40)\n      0x118cdaa700000000000000000000000000000000000000000000000000000000\n      dup2\n      mstore\n      0x04\n      add\n      tag_94\n      swap2\n      swap1\n      tag_33\n      jump\t// in\n    tag_94:\n      mload(0x40)\n      dup1\n      swap2\n      sub\n      swap1\n      revert\n        /* \"@openzeppelin/contracts/access/Ownable.sol\":1851:1952  if (owner() != _msgSender()) {... */\n    tag_92:\n        /* \"@openzeppelin/contracts/access/Ownable.sol\":1796:1958  function _checkOwner() internal view virtual {... */\n      jump\t// out\n        /* \"@openzeppelin/contracts/access/Ownable.sol\":2912:3099  function _transferOwnership(address newOwner) internal virtual {... */\n    tag_61:\n        /* \"@openzeppelin/contracts/access/Ownable.sol\":2985:3001  address oldOwner */\n      0x00\n        /* \"@openzeppelin/contracts/access/Ownable.sol\":3004:3010  _owner */\n      dup1\n      0x00\n      swap1\n      sload\n      swap1\n      0x0100\n      exp\n      swap1\n      div\n      0xffffffffffffffffffffffffffffffffffffffff\n      and\n        /* \"@openzeppelin/contracts/access/Ownable.sol\":2985:3010  address oldOwner = _owner */\n      swap1\n      pop\n        /* \"@openzeppelin/contracts/access/Ownable.sol\":3029:3037  newOwner */\n      dup2\n        /* \"@openzeppelin/contracts/access/Ownable.sol\":3020:3026  _owner */\n      0x00\n      dup1\n        /* \"@openzeppelin/contracts/access/Ownable.sol\":3020:3037  _owner = newOwner */\n      0x0100\n      exp\n      dup2\n      sload\n      dup2\n      0xffffffffffffffffffffffffffffffffffffffff\n      mul\n      not\n      and\n      swap1\n      dup4\n      0xffffffffffffffffffffffffffffffffffffffff\n      and\n      mul\n      or\n      swap1\n      sstore\n      pop\n        /* \"@openzeppelin/contracts/access/Ownable.sol\":3083:3091  newOwner */\n      dup2\n        /* \"@openzeppelin/contracts/access/Ownable.sol\":3052:3092  OwnershipTransferred(oldOwner, newOwner) */\n      0xffffffffffffffffffffffffffffffffffffffff\n      and\n        /* \"@openzeppelin/contracts/access/Ownable.sol\":3073:3081  oldOwner */\n      dup2\n        /* \"@openzeppelin/contracts/access/Ownable.sol\":3052:3092  OwnershipTransferred(oldOwner, newOwner) */\n      0xffffffffffffffffffffffffffffffffffffffff\n      and\n      0x8be0079c531659141344cd1fd0a4f28419497f9722a3daafe3b4186f6b6457e0\n      mload(0x40)\n      mload(0x40)\n      dup1\n      swap2\n      sub\n      swap1\n      log3\n        /* \"@openzeppelin/contracts/access/Ownable.sol\":2975:3099  {... */\n      pop\n        /* \"@openzeppelin/contracts/access/Ownable.sol\":2912:3099  function _transferOwnership(address newOwner) internal virtual {... */\n      pop\n      jump\t// out\n        /* \"@openzeppelin/contracts/token/ERC20/utils/SafeERC20.sol\":1618:1806  function safeTransferFrom(IERC20 token, address from, address to, uint256 value) internal {... */\n    tag_73:\n        /* \"@openzeppelin/contracts/token/ERC20/utils/SafeERC20.sol\":1718:1799  _callOptionalReturn(token, abi.encodeCall(token.transferFrom, (from, to, value))) */\n      tag_97\n        /* \"@openzeppelin/contracts/token/ERC20/utils/SafeERC20.sol\":1738:1743  token */\n      dup5\n        /* \"@openzeppelin/contracts/token/ERC20/utils/SafeERC20.sol\":1760:1765  token */\n      dup6\n        /* \"@openzeppelin/contracts/token/ERC20/utils/SafeERC20.sol\":1760:1778  token.transferFrom */\n      0xffffffffffffffffffffffffffffffffffffffff\n      and\n      0x23b872dd\n        /* \"@openzeppelin/contracts/token/ERC20/utils/SafeERC20.sol\":1781:1785  from */\n      dup7\n        /* \"@openzeppelin/contracts/token/ERC20/utils/SafeERC20.sol\":1787:1789  to */\n      dup7\n        /* \"@openzeppelin/contracts/token/ERC20/utils/SafeERC20.sol\":1791:1796  value */\n      dup7\n        /* \"@openzeppelin/contracts/token/ERC20/utils/SafeERC20.sol\":1745:1798  abi.encodeCall(token.transferFrom, (from, to, value)) */\n      add(0x24, mload(0x40))\n      tag_98\n      swap4\n      swap3\n      swap2\n      swap1\n      tag_99\n      jump\t// in\n    tag_98:\n      mload(0x40)\n      0x20\n      dup2\n      dup4\n      sub\n      sub\n      dup2\n      mstore\n      swap1\n      0x40\n      mstore\n      swap2\n      pop\n      0xe0\n      shl\n      0x20\n      dup3\n      add\n      dup1\n      mload\n      0xffffffffffffffffffffffffffffffffffffffffffffffffffffffff\n      dup4\n      dup2\n      dup4\n      and\n      or\n      dup4\n      mstore\n      pop\n      pop\n      pop\n      pop\n        /* \"@openzeppelin/contracts/token/ERC20/utils/SafeERC20.sol\":1718:1737  _callOptionalReturn */\n      tag_100\n        /* \"@openzeppelin/contracts/token/ERC20/utils/SafeERC20.sol\":1718:1799  _callOptionalReturn(token, abi.encodeCall(token.transferFrom, (from, to, value))) */\n      jump\t// in\n    tag_97:\n        /* \"@openzeppelin/contracts/token/ERC20/utils/SafeERC20.sol\":1618:1806  function safeTransferFrom(IERC20 token, address from, address to, uint256 value) internal {... */\n      pop\n      pop\n      pop\n      pop\n      jump\t// out\n        /* \"@openzeppelin/contracts/utils/Context.sol\":656:752  function _msgSender() internal view virtual returns (address) {... */\n    tag_90:\n        /* \"@openzeppelin/contracts/utils/Context.sol\":709:716  address */\n      0x00\n        /* \"@openzeppelin/contracts/utils/Context.sol\":735:745  msg.sender */\n      caller\n        /* \"@openzeppelin/contracts/utils/Context.sol\":728:745  return msg.sender */\n      swap1\n      pop\n        /* \"@openzeppelin/contracts/utils/Context.sol\":656:752  function _msgSender() internal view virtual returns (address) {... */\n      swap1\n      jump\t// out\n        /* \"@openzeppelin/contracts/token/ERC20/utils/SafeERC20.sol\":8370:9090  function _callOptionalReturn(IERC20 token, bytes memory data) private {... */\n    tag_100:\n        /* \"@openzeppelin/contracts/token/ERC20/utils/SafeERC20.sol\":8450:8468  uint256 returnSize */\n      0x00\n        /* \"@openzeppelin/contracts/token/ERC20/utils/SafeERC20.sol\":8478:8497  uint256 returnValue */\n      dup1\n        /* \"@openzeppelin/contracts/token/ERC20/utils/SafeERC20.sol\":8616:8620  0x20 */\n      0x20\n        /* \"@openzeppelin/contracts/token/ERC20/utils/SafeERC20.sol\":8613:8614  0 */\n      0x00\n        /* \"@openzeppelin/contracts/token/ERC20/utils/SafeERC20.sol\":8606:8610  data */\n      dup5\n        /* \"@openzeppelin/contracts/token/ERC20/utils/SafeERC20.sol\":8600:8611  mload(data) */\n      mload\n        /* \"@openzeppelin/contracts/token/ERC20/utils/SafeERC20.sol\":8593:8597  0x20 */\n      0x20\n        /* \"@openzeppelin/contracts/token/ERC20/utils/SafeERC20.sol\":8587:8591  data */\n      dup7\n        /* \"@openzeppelin/contracts/token/ERC20/utils/SafeERC20.sol\":8583:8598  add(data, 0x20) */\n      add\n        /* \"@openzeppelin/contracts/token/ERC20/utils/SafeERC20.sol\":8580:8581  0 */\n      0x00\n        /* \"@openzeppelin/contracts/token/ERC20/utils/SafeERC20.sol\":8573:8578  token */\n      dup9\n        /* \"@openzeppelin/contracts/token/ERC20/utils/SafeERC20.sol\":8566:8571  gas() */\n      gas\n        /* \"@openzeppelin/contracts/token/ERC20/utils/SafeERC20.sol\":8561:8621  call(gas(), token, 0, add(data, 0x20), mload(data), 0, 0x20) */\n      call\n        /* \"@openzeppelin/contracts/token/ERC20/utils/SafeERC20.sol\":8673:8680  success */\n      dup1\n        /* \"@openzeppelin/contracts/token/ERC20/utils/SafeERC20.sol\":8663:8839  if iszero(success) {... */\n      tag_103\n      jumpi\n        /* \"@openzeppelin/contracts/token/ERC20/utils/SafeERC20.sol\":8717:8721  0x40 */\n      0x40\n        /* \"@openzeppelin/contracts/token/ERC20/utils/SafeERC20.sol\":8711:8722  mload(0x40) */\n      mload\n        /* \"@openzeppelin/contracts/token/ERC20/utils/SafeERC20.sol\":8762:8778  returndatasize() */\n      returndatasize\n        /* \"@openzeppelin/contracts/token/ERC20/utils/SafeERC20.sol\":8759:8760  0 */\n      0x00\n        /* \"@openzeppelin/contracts/token/ERC20/utils/SafeERC20.sol\":8754:8757  ptr */\n      dup3\n        /* \"@openzeppelin/contracts/token/ERC20/utils/SafeERC20.sol\":8739:8779  returndatacopy(ptr, 0, returndatasize()) */\n      returndatacopy\n        /* \"@openzeppelin/contracts/token/ERC20/utils/SafeERC20.sol\":8808:8824  returndatasize() */\n      returndatasize\n        /* \"@openzeppelin/contracts/token/ERC20/utils/SafeERC20.sol\":8803:8806  ptr */\n      dup2\n        /* \"@openzeppelin/contracts/token/ERC20/utils/SafeERC20.sol\":8796:8825  revert(ptr, returndatasize()) */\n      revert\n        /* \"@openzeppelin/contracts/token/ERC20/utils/SafeERC20.sol\":8663:8839  if iszero(success) {... */\n    tag_103:\n        /* \"@openzeppelin/contracts/token/ERC20/utils/SafeERC20.sol\":8866:8882  returndatasize() */\n      returndatasize\n        /* \"@openzeppelin/contracts/token/ERC20/utils/SafeERC20.sol\":8852:8882  returnSize := returndatasize() */\n      swap3\n      pop\n        /* \"@openzeppelin/contracts/token/ERC20/utils/SafeERC20.sol\":8916:8917  0 */\n      0x00\n        /* \"@openzeppelin/contracts/token/ERC20/utils/SafeERC20.sol\":8910:8918  mload(0) */\n      mload\n        /* \"@openzeppelin/contracts/token/ERC20/utils/SafeERC20.sol\":8895:8918  returnValue := mload(0) */\n      swap2\n      pop\n        /* \"@openzeppelin/contracts/token/ERC20/utils/SafeERC20.sol\":8532:8928  {... */\n      pop\n        /* \"@openzeppelin/contracts/token/ERC20/utils/SafeERC20.sol\":8956:8957  0 */\n      0x00\n        /* \"@openzeppelin/contracts/token/ERC20/utils/SafeERC20.sol\":8942:8952  returnSize */\n      dup3\n        /* \"@openzeppelin/contracts/token/ERC20/utils/SafeERC20.sol\":8942:8957  returnSize == 0 */\n      eq\n        /* \"@openzeppelin/contracts/token/ERC20/utils/SafeERC20.sol\":8942:9010  returnSize == 0 ? address(token).code.length == 0 : returnValue != 1 */\n      tag_104\n      jumpi\n        /* \"@openzeppelin/contracts/token/ERC20/utils/SafeERC20.sol\":9009:9010  1 */\n      0x01\n        /* \"@openzeppelin/contracts/token/ERC20/utils/SafeERC20.sol\":8994:9005  returnValue */\n      dup2\n        /* \"@openzeppelin/contracts/token/ERC20/utils/SafeERC20.sol\":8994:9010  returnValue != 1 */\n      eq\n      iszero\n        /* \"@openzeppelin/contracts/token/ERC20/utils/SafeERC20.sol\":8942:9010  returnSize == 0 ? address(token).code.length == 0 : returnValue != 1 */\n      jump(tag_105)\n    tag_104:\n        /* \"@openzeppelin/contracts/token/ERC20/utils/SafeERC20.sol\":8990:8991  0 */\n      0x00\n        /* \"@openzeppelin/contracts/token/ERC20/utils/SafeERC20.sol\":8968:8973  token */\n      dup5\n        /* \"@openzeppelin/contracts/token/ERC20/utils/SafeERC20.sol\":8960:8986  address(token).code.length */\n      0xffffffffffffffffffffffffffffffffffffffff\n      and\n      extcodesize\n        /* \"@openzeppelin/contracts/token/ERC20/utils/SafeERC20.sol\":8960:8991  address(token).code.length == 0 */\n      eq\n        /* \"@openzeppelin/contracts/token/ERC20/utils/SafeERC20.sol\":8942:9010  returnSize == 0 ? address(token).code.length == 0 : returnValue != 1 */\n    tag_105:\n        /* \"@openzeppelin/contracts/token/ERC20/utils/SafeERC20.sol\":8938:9084  if (returnSize == 0 ? address(token).code.length == 0 : returnValue != 1) {... */\n      iszero\n      tag_106\n      jumpi\n        /* \"@openzeppelin/contracts/token/ERC20/utils/SafeERC20.sol\":9066:9071  token */\n      dup4\n        /* \"@openzeppelin/contracts/token/ERC20/utils/SafeERC20.sol\":9033:9073  SafeERC20FailedOperation(address(token)) */\n      mload(0x40)\n      0x5274afe700000000000000000000000000000000000000000000000000000000\n      dup2\n      mstore\n      0x04\n      add\n      tag_107\n      swap2\n      swap1\n      tag_33\n      jump\t// in\n    tag_107:\n      mload(0x40)\n      dup1\n      swap2\n      sub\n      swap1\n      revert\n        /* \"@openzeppelin/contracts/token/ERC20/utils/SafeERC20.sol\":8938:9084  if (returnSize == 0 ? address(token).code.length == 0 : returnValue != 1) {... */\n    tag_106:\n        /* \"@openzeppelin/contracts/token/ERC20/utils/SafeERC20.sol\":8440:9090  {... */\n      pop\n      pop\n        /* \"@openzeppelin/contracts/token/ERC20/utils/SafeERC20.sol\":8370:9090  function _callOptionalReturn(IERC20 token, bytes memory data) private {... */\n      pop\n      pop\n      jump\t// out\n    tag_54:\n      mload(0x40)\n      dup1\n      0x80\n      add\n      0x40\n      mstore\n      dup1\n      0x00\n      dup2\n      mstore\n      0x20\n      add\n      and(0xffffffffffffffffffffffffffffffffffffffff, 0x00)\n      dup2\n      mstore\n      0x20\n      add\n      0x00\n      dup2\n      mstore\n      0x20\n      add\n      iszero(iszero(0x00))\n      dup2\n      mstore\n      pop\n      swap1\n      jump\t// out\n        /* \"#utility.yul\":88:205   */\n    tag_109:\n        /* \"#utility.yul\":197:198   */\n      0x00\n        /* \"#utility.yul\":194:195   */\n      dup1\n        /* \"#utility.yul\":187:199   */\n      revert\n        /* \"#utility.yul\":334:411   */\n    tag_111:\n        /* \"#utility.yul\":371:378   */\n      0x00\n        /* \"#utility.yul\":400:405   */\n      dup2\n        /* \"#utility.yul\":389:405   */\n      swap1\n      pop\n        /* \"#utility.yul\":334:411   */\n      swap2\n      swap1\n      pop\n      jump\t// out\n        /* \"#utility.yul\":417:539   */\n    tag_112:\n        /* \"#utility.yul\":490:514   */\n      tag_146\n        /* \"#utility.yul\":508:513   */\n      dup2\n        /* \"#utility.yul\":490:514   */\n      tag_111\n      jump\t// in\n    tag_146:\n        /* \"#utility.yul\":483:488   */\n      dup2\n        /* \"#utility.yul\":480:515   */\n      eq\n        /* \"#utility.yul\":470:533   */\n      tag_147\n      jumpi\n        /* \"#utility.yul\":529:530   */\n      0x00\n        /* \"#utility.yul\":526:527   */\n      dup1\n        /* \"#utility.yul\":519:531   */\n      revert\n        /* \"#utility.yul\":470:533   */\n    tag_147:\n        /* \"#utility.yul\":417:539   */\n      pop\n      jump\t// out\n        /* \"#utility.yul\":545:684   */\n    tag_113:\n        /* \"#utility.yul\":591:596   */\n      0x00\n        /* \"#utility.yul\":629:635   */\n      dup2\n        /* \"#utility.yul\":616:636   */\n      calldataload\n        /* \"#utility.yul\":607:636   */\n      swap1\n      pop\n        /* \"#utility.yul\":645:678   */\n      tag_149\n        /* \"#utility.yul\":672:677   */\n      dup2\n        /* \"#utility.yul\":645:678   */\n      tag_112\n      jump\t// in\n    tag_149:\n        /* \"#utility.yul\":545:684   */\n      swap3\n      swap2\n      pop\n      pop\n      jump\t// out\n        /* \"#utility.yul\":690:1019   */\n    tag_16:\n        /* \"#utility.yul\":749:755   */\n      0x00\n        /* \"#utility.yul\":798:800   */\n      0x20\n        /* \"#utility.yul\":786:795   */\n      dup3\n        /* \"#utility.yul\":777:784   */\n      dup5\n        /* \"#utility.yul\":773:796   */\n      sub\n        /* \"#utility.yul\":769:801   */\n      slt\n        /* \"#utility.yul\":766:885   */\n      iszero\n      tag_151\n      jumpi\n        /* \"#utility.yul\":804:883   */\n      tag_152\n      tag_109\n      jump\t// in\n    tag_152:\n        /* \"#utility.yul\":766:885   */\n    tag_151:\n        /* \"#utility.yul\":924:925   */\n      0x00\n        /* \"#utility.yul\":949:1002   */\n      tag_153\n        /* \"#utility.yul\":994:1001   */\n      dup5\n        /* \"#utility.yul\":985:991   */\n      dup3\n        /* \"#utility.yul\":974:983   */\n      dup6\n        /* \"#utility.yul\":970:992   */\n      add\n        /* \"#utility.yul\":949:1002   */\n      tag_113\n      jump\t// in\n    tag_153:\n        /* \"#utility.yul\":939:1002   */\n      swap2\n      pop\n        /* \"#utility.yul\":895:1012   */\n      pop\n        /* \"#utility.yul\":690:1019   */\n      swap3\n      swap2\n      pop\n      pop\n      jump\t// out\n        /* \"#utility.yul\":1025:1133   */\n    tag_114:\n        /* \"#utility.yul\":1102:1126   */\n      tag_155\n        /* \"#utility.yul\":1120:1125   */\n      dup2\n        /* \"#utility.yul\":1102:1126   */\n      tag_111\n      jump\t// in\n    tag_155:\n        /* \"#utility.yul\":1097:1100   */\n      dup3\n        /* \"#utility.yul\":1090:1127   */\n      mstore\n        /* \"#utility.yul\":1025:1133   */\n      pop\n      pop\n      jump\t// out\n        /* \"#utility.yul\":1139:1265   */\n    tag_115:\n        /* \"#utility.yul\":1176:1183   */\n      0x00\n        /* \"#utility.yul\":1216:1258   */\n      0xffffffffffffffffffffffffffffffffffffffff\n        /* \"#utility.yul\":1209:1214   */\n      dup3\n        /* \"#utility.yul\":1205:1259   */\n      and\n        /* \"#utility.yul\":1194:1259   */\n      swap1\n      pop\n        /* \"#utility.yul\":1139:1265   */\n      swap2\n      swap1\n      pop\n      jump\t// out\n        /* \"#utility.yul\":1271:1367   */\n    tag_116:\n        /* \"#utility.yul\":1308:1315   */\n      0x00\n        /* \"#utility.yul\":1337:1361   */\n      tag_158\n        /* \"#utility.yul\":1355:1360   */\n      dup3\n        /* \"#utility.yul\":1337:1361   */\n      tag_115\n      jump\t// in\n    tag_158:\n        /* \"#utility.yul\":1326:1361   */\n      swap1\n      pop\n        /* \"#utility.yul\":1271:1367   */\n      swap2\n      swap1\n      pop\n      jump\t// out\n        /* \"#utility.yul\":1373:1481   */\n    tag_117:\n        /* \"#utility.yul\":1450:1474   */\n      tag_160\n        /* \"#utility.yul\":1468:1473   */\n      dup2\n        /* \"#utility.yul\":1450:1474   */\n      tag_116\n      jump\t// in\n    tag_160:\n        /* \"#utility.yul\":1445:1448   */\n      dup3\n        /* \"#utility.yul\":1438:1475   */\n      mstore\n        /* \"#utility.yul\":1373:1481   */\n      pop\n      pop\n      jump\t// out\n        /* \"#utility.yul\":1487:1577   */\n    tag_118:\n        /* \"#utility.yul\":1521:1528   */\n      0x00\n        /* \"#utility.yul\":1564:1569   */\n      dup2\n        /* \"#utility.yul\":1557:1570   */\n      iszero\n        /* \"#utility.yul\":1550:1571   */\n      iszero\n        /* \"#utility.yul\":1539:1571   */\n      swap1\n      pop\n        /* \"#utility.yul\":1487:1577   */\n      swap2\n      swap1\n      pop\n      jump\t// out\n        /* \"#utility.yul\":1583:1682   */\n    tag_119:\n        /* \"#utility.yul\":1654:1675   */\n      tag_163\n        /* \"#utility.yul\":1669:1674   */\n      dup2\n        /* \"#utility.yul\":1654:1675   */\n      tag_118\n      jump\t// in\n    tag_163:\n        /* \"#utility.yul\":1649:1652   */\n      dup3\n        /* \"#utility.yul\":1642:1676   */\n      mstore\n        /* \"#utility.yul\":1583:1682   */\n      pop\n      pop\n      jump\t// out\n        /* \"#utility.yul\":1746:2593   */\n    tag_120:\n        /* \"#utility.yul\":1885:1889   */\n      0x80\n        /* \"#utility.yul\":1880:1883   */\n      dup3\n        /* \"#utility.yul\":1876:1890   */\n      add\n        /* \"#utility.yul\":1970:1974   */\n      0x00\n        /* \"#utility.yul\":1963:1968   */\n      dup3\n        /* \"#utility.yul\":1959:1975   */\n      add\n        /* \"#utility.yul\":1953:1976   */\n      mload\n        /* \"#utility.yul\":1989:2052   */\n      tag_165\n        /* \"#utility.yul\":2046:2050   */\n      0x00\n        /* \"#utility.yul\":2041:2044   */\n      dup6\n        /* \"#utility.yul\":2037:2051   */\n      add\n        /* \"#utility.yul\":2023:2035   */\n      dup3\n        /* \"#utility.yul\":1989:2052   */\n      tag_114\n      jump\t// in\n    tag_165:\n        /* \"#utility.yul\":1900:2062   */\n      pop\n        /* \"#utility.yul\":2148:2152   */\n      0x20\n        /* \"#utility.yul\":2141:2146   */\n      dup3\n        /* \"#utility.yul\":2137:2153   */\n      add\n        /* \"#utility.yul\":2131:2154   */\n      mload\n        /* \"#utility.yul\":2167:2230   */\n      tag_166\n        /* \"#utility.yul\":2224:2228   */\n      0x20\n        /* \"#utility.yul\":2219:2222   */\n      dup6\n        /* \"#utility.yul\":2215:2229   */\n      add\n        /* \"#utility.yul\":2201:2213   */\n      dup3\n        /* \"#utility.yul\":2167:2230   */\n      tag_117\n      jump\t// in\n    tag_166:\n        /* \"#utility.yul\":2072:2240   */\n      pop\n        /* \"#utility.yul\":2324:2328   */\n      0x40\n        /* \"#utility.yul\":2317:2322   */\n      dup3\n        /* \"#utility.yul\":2313:2329   */\n      add\n        /* \"#utility.yul\":2307:2330   */\n      mload\n        /* \"#utility.yul\":2343:2406   */\n      tag_167\n        /* \"#utility.yul\":2400:2404   */\n      0x40\n        /* \"#utility.yul\":2395:2398   */\n      dup6\n        /* \"#utility.yul\":2391:2405   */\n      add\n        /* \"#utility.yul\":2377:2389   */\n      dup3\n        /* \"#utility.yul\":2343:2406   */\n      tag_114\n      jump\t// in\n    tag_167:\n        /* \"#utility.yul\":2250:2416   */\n      pop\n        /* \"#utility.yul\":2500:2504   */\n      0x60\n        /* \"#utility.yul\":2493:2498   */\n      dup3\n        /* \"#utility.yul\":2489:2505   */\n      add\n        /* \"#utility.yul\":2483:2506   */\n      mload\n        /* \"#utility.yul\":2519:2576   */\n      tag_168\n        /* \"#utility.yul\":2570:2574   */\n      0x60\n        /* \"#utility.yul\":2565:2568   */\n      dup6\n        /* \"#utility.yul\":2561:2575   */\n      add\n        /* \"#utility.yul\":2547:2559   */\n      dup3\n        /* \"#utility.yul\":2519:2576   */\n      tag_119\n      jump\t// in\n    tag_168:\n        /* \"#utility.yul\":2426:2586   */\n      pop\n        /* \"#utility.yul\":1854:2593   */\n      pop\n        /* \"#utility.yul\":1746:2593   */\n      pop\n      pop\n      jump\t// out\n        /* \"#utility.yul\":2599:2906   */\n    tag_19:\n        /* \"#utility.yul\":2734:2738   */\n      0x00\n        /* \"#utility.yul\":2772:2775   */\n      0x80\n        /* \"#utility.yul\":2761:2770   */\n      dup3\n        /* \"#utility.yul\":2757:2776   */\n      add\n        /* \"#utility.yul\":2749:2776   */\n      swap1\n      pop\n        /* \"#utility.yul\":2786:2899   */\n      tag_170\n        /* \"#utility.yul\":2896:2897   */\n      0x00\n        /* \"#utility.yul\":2885:2894   */\n      dup4\n        /* \"#utility.yul\":2881:2898   */\n      add\n        /* \"#utility.yul\":2872:2878   */\n      dup5\n        /* \"#utility.yul\":2786:2899   */\n      tag_120\n      jump\t// in\n    tag_170:\n        /* \"#utility.yul\":2599:2906   */\n      swap3\n      swap2\n      pop\n      pop\n      jump\t// out\n        /* \"#utility.yul\":2912:3030   */\n    tag_121:\n        /* \"#utility.yul\":2999:3023   */\n      tag_172\n        /* \"#utility.yul\":3017:3022   */\n      dup2\n        /* \"#utility.yul\":2999:3023   */\n      tag_111\n      jump\t// in\n    tag_172:\n        /* \"#utility.yul\":2994:2997   */\n      dup3\n        /* \"#utility.yul\":2987:3024   */\n      mstore\n        /* \"#utility.yul\":2912:3030   */\n      pop\n      pop\n      jump\t// out\n        /* \"#utility.yul\":3036:3258   */\n    tag_25:\n        /* \"#utility.yul\":3129:3133   */\n      0x00\n        /* \"#utility.yul\":3167:3169   */\n      0x20\n        /* \"#utility.yul\":3156:3165   */\n      dup3\n        /* \"#utility.yul\":3152:3170   */\n      add\n        /* \"#utility.yul\":3144:3170   */\n      swap1\n      pop\n        /* \"#utility.yul\":3180:3251   */\n      tag_174\n        /* \"#utility.yul\":3248:3249   */\n      0x00\n        /* \"#utility.yul\":3237:3246   */\n      dup4\n        /* \"#utility.yul\":3233:3250   */\n      add\n        /* \"#utility.yul\":3224:3230   */\n      dup5\n        /* \"#utility.yul\":3180:3251   */\n      tag_121\n      jump\t// in\n    tag_174:\n        /* \"#utility.yul\":3036:3258   */\n      swap3\n      swap2\n      pop\n      pop\n      jump\t// out\n        /* \"#utility.yul\":3264:3738   */\n    tag_28:\n        /* \"#utility.yul\":3332:3338   */\n      0x00\n        /* \"#utility.yul\":3340:3346   */\n      dup1\n        /* \"#utility.yul\":3389:3391   */\n      0x40\n        /* \"#utility.yul\":3377:3386   */\n      dup4\n        /* \"#utility.yul\":3368:3375   */\n      dup6\n        /* \"#utility.yul\":3364:3387   */\n      sub\n        /* \"#utility.yul\":3360:3392   */\n      slt\n        /* \"#utility.yul\":3357:3476   */\n      iszero\n      tag_176\n      jumpi\n        /* \"#utility.yul\":3395:3474   */\n      tag_177\n      tag_109\n      jump\t// in\n    tag_177:\n        /* \"#utility.yul\":3357:3476   */\n    tag_176:\n        /* \"#utility.yul\":3515:3516   */\n      0x00\n        /* \"#utility.yul\":3540:3593   */\n      tag_178\n        /* \"#utility.yul\":3585:3592   */\n      dup6\n        /* \"#utility.yul\":3576:3582   */\n      dup3\n        /* \"#utility.yul\":3565:3574   */\n      dup7\n        /* \"#utility.yul\":3561:3583   */\n      add\n        /* \"#utility.yul\":3540:3593   */\n      tag_113\n      jump\t// in\n    tag_178:\n        /* \"#utility.yul\":3530:3593   */\n      swap3\n      pop\n        /* \"#utility.yul\":3486:3603   */\n      pop\n        /* \"#utility.yul\":3642:3644   */\n      0x20\n        /* \"#utility.yul\":3668:3721   */\n      tag_179\n        /* \"#utility.yul\":3713:3720   */\n      dup6\n        /* \"#utility.yul\":3704:3710   */\n      dup3\n        /* \"#utility.yul\":3693:3702   */\n      dup7\n        /* \"#utility.yul\":3689:3711   */\n      add\n        /* \"#utility.yul\":3668:3721   */\n      tag_113\n      jump\t// in\n    tag_179:\n        /* \"#utility.yul\":3658:3721   */\n      swap2\n      pop\n        /* \"#utility.yul\":3613:3731   */\n      pop\n        /* \"#utility.yul\":3264:3738   */\n      swap3\n      pop\n      swap3\n      swap1\n      pop\n      jump\t// out\n        /* \"#utility.yul\":3744:3862   */\n    tag_122:\n        /* \"#utility.yul\":3831:3855   */\n      tag_181\n        /* \"#utility.yul\":3849:3854   */\n      dup2\n        /* \"#utility.yul\":3831:3855   */\n      tag_116\n      jump\t// in\n    tag_181:\n        /* \"#utility.yul\":3826:3829   */\n      dup3\n        /* \"#utility.yul\":3819:3856   */\n      mstore\n        /* \"#utility.yul\":3744:3862   */\n      pop\n      pop\n      jump\t// out\n        /* \"#utility.yul\":3868:4090   */\n    tag_33:\n        /* \"#utility.yul\":3961:3965   */\n      0x00\n        /* \"#utility.yul\":3999:4001   */\n      0x20\n        /* \"#utility.yul\":3988:3997   */\n      dup3\n        /* \"#utility.yul\":3984:4002   */\n      add\n        /* \"#utility.yul\":3976:4002   */\n      swap1\n      pop\n        /* \"#utility.yul\":4012:4083   */\n      tag_183\n        /* \"#utility.yul\":4080:4081   */\n      0x00\n        /* \"#utility.yul\":4069:4078   */\n      dup4\n        /* \"#utility.yul\":4065:4082   */\n      add\n        /* \"#utility.yul\":4056:4062   */\n      dup5\n        /* \"#utility.yul\":4012:4083   */\n      tag_122\n      jump\t// in\n    tag_183:\n        /* \"#utility.yul\":3868:4090   */\n      swap3\n      swap2\n      pop\n      pop\n      jump\t// out\n        /* \"#utility.yul\":4096:4156   */\n    tag_123:\n        /* \"#utility.yul\":4124:4127   */\n      0x00\n        /* \"#utility.yul\":4145:4150   */\n      dup2\n        /* \"#utility.yul\":4138:4150   */\n      swap1\n      pop\n        /* \"#utility.yul\":4096:4156   */\n      swap2\n      swap1\n      pop\n      jump\t// out\n        /* \"#utility.yul\":4162:4304   */\n    tag_124:\n        /* \"#utility.yul\":4212:4221   */\n      0x00\n        /* \"#utility.yul\":4245:4298   */\n      tag_186\n        /* \"#utility.yul\":4263:4297   */\n      tag_187\n        /* \"#utility.yul\":4272:4296   */\n      tag_188\n        /* \"#utility.yul\":4290:4295   */\n      dup5\n        /* \"#utility.yul\":4272:4296   */\n      tag_115\n      jump\t// in\n    tag_188:\n        /* \"#utility.yul\":4263:4297   */\n      tag_123\n      jump\t// in\n    tag_187:\n        /* \"#utility.yul\":4245:4298   */\n      tag_115\n      jump\t// in\n    tag_186:\n        /* \"#utility.yul\":4232:4298   */\n      swap1\n      pop\n        /* \"#utility.yul\":4162:4304   */\n      swap2\n      swap1\n      pop\n      jump\t// out\n        /* \"#utility.yul\":4310:4436   */\n    tag_125:\n        /* \"#utility.yul\":4360:4369   */\n      0x00\n        /* \"#utility.yul\":4393:4430   */\n      tag_190\n        /* \"#utility.yul\":4424:4429   */\n      dup3\n        /* \"#utility.yul\":4393:4430   */\n      tag_124\n      jump\t// in\n    tag_190:\n        /* \"#utility.yul\":4380:4430   */\n      swap1\n      pop\n        /* \"#utility.yul\":4310:4436   */\n      swap2\n      swap1\n      pop\n      jump\t// out\n        /* \"#utility.yul\":4442:4582   */\n    tag_126:\n        /* \"#utility.yul\":4506:4515   */\n      0x00\n        /* \"#utility.yul\":4539:4576   */\n      tag_192\n        /* \"#utility.yul\":4570:4575   */\n      dup3\n        /* \"#utility.yul\":4539:4576   */\n      tag_125\n      jump\t// in\n    tag_192:\n        /* \"#utility.yul\":4526:4576   */\n      swap1\n      pop\n        /* \"#utility.yul\":4442:4582   */\n      swap2\n      swap1\n      pop\n      jump\t// out\n        /* \"#utility.yul\":4588:4747   */\n    tag_127:\n        /* \"#utility.yul\":4689:4740   */\n      tag_194\n        /* \"#utility.yul\":4734:4739   */\n      dup2\n        /* \"#utility.yul\":4689:4740   */\n      tag_126\n      jump\t// in\n    tag_194:\n        /* \"#utility.yul\":4684:4687   */\n      dup3\n        /* \"#utility.yul\":4677:4741   */\n      mstore\n        /* \"#utility.yul\":4588:4747   */\n      pop\n      pop\n      jump\t// out\n        /* \"#utility.yul\":4753:5003   */\n    tag_40:\n        /* \"#utility.yul\":4860:4864   */\n      0x00\n        /* \"#utility.yul\":4898:4900   */\n      0x20\n        /* \"#utility.yul\":4887:4896   */\n      dup3\n        /* \"#utility.yul\":4883:4901   */\n      add\n        /* \"#utility.yul\":4875:4901   */\n      swap1\n      pop\n        /* \"#utility.yul\":4911:4996   */\n      tag_196\n        /* \"#utility.yul\":4993:4994   */\n      0x00\n        /* \"#utility.yul\":4982:4991   */\n      dup4\n        /* \"#utility.yul\":4978:4995   */\n      add\n        /* \"#utility.yul\":4969:4975   */\n      dup5\n        /* \"#utility.yul\":4911:4996   */\n      tag_127\n      jump\t// in\n    tag_196:\n        /* \"#utility.yul\":4753:5003   */\n      swap3\n      swap2\n      pop\n      pop\n      jump\t// out\n        /* \"#utility.yul\":5009:5118   */\n    tag_128:\n        /* \"#utility.yul\":5090:5111   */\n      tag_198\n        /* \"#utility.yul\":5105:5110   */\n      dup2\n        /* \"#utility.yul\":5090:5111   */\n      tag_118\n      jump\t// in\n    tag_198:\n        /* \"#utility.yul\":5085:5088   */\n      dup3\n        /* \"#utility.yul\":5078:5112   */\n      mstore\n        /* \"#utility.yul\":5009:5118   */\n      pop\n      pop\n      jump\t// out\n        /* \"#utility.yul\":5124:5665   */\n    tag_45:\n        /* \"#utility.yul\":5295:5299   */\n      0x00\n        /* \"#utility.yul\":5333:5336   */\n      0x80\n        /* \"#utility.yul\":5322:5331   */\n      dup3\n        /* \"#utility.yul\":5318:5337   */\n      add\n        /* \"#utility.yul\":5310:5337   */\n      swap1\n      pop\n        /* \"#utility.yul\":5347:5418   */\n      tag_200\n        /* \"#utility.yul\":5415:5416   */\n      0x00\n        /* \"#utility.yul\":5404:5413   */\n      dup4\n        /* \"#utility.yul\":5400:5417   */\n      add\n        /* \"#utility.yul\":5391:5397   */\n      dup8\n        /* \"#utility.yul\":5347:5418   */\n      tag_121\n      jump\t// in\n    tag_200:\n        /* \"#utility.yul\":5428:5500   */\n      tag_201\n        /* \"#utility.yul\":5496:5498   */\n      0x20\n        /* \"#utility.yul\":5485:5494   */\n      dup4\n        /* \"#utility.yul\":5481:5499   */\n      add\n        /* \"#utility.yul\":5472:5478   */\n      dup7\n        /* \"#utility.yul\":5428:5500   */\n      tag_122\n      jump\t// in\n    tag_201:\n        /* \"#utility.yul\":5510:5582   */\n      tag_202\n        /* \"#utility.yul\":5578:5580   */\n      0x40\n        /* \"#utility.yul\":5567:5576   */\n      dup4\n        /* \"#utility.yul\":5563:5581   */\n      add\n        /* \"#utility.yul\":5554:5560   */\n      dup6\n        /* \"#utility.yul\":5510:5582   */\n      tag_121\n      jump\t// in\n    tag_202:\n        /* \"#utility.yul\":5592:5658   */\n      tag_203\n        /* \"#utility.yul\":5654:5656   */\n      0x60\n        /* \"#utility.yul\":5643:5652   */\n      dup4\n        /* \"#utility.yul\":5639:5657   */\n      add\n        /* \"#utility.yul\":5630:5636   */\n      dup5\n        /* \"#utility.yul\":5592:5658   */\n      tag_128\n      jump\t// in\n    tag_203:\n        /* \"#utility.yul\":5124:5665   */\n      swap6\n      swap5\n      pop\n      pop\n      pop\n      pop\n      pop\n      jump\t// out\n        /* \"#utility.yul\":5671:5793   */\n    tag_129:\n        /* \"#utility.yul\":5744:5768   */\n      tag_205\n        /* \"#utility.yul\":5762:5767   */\n      dup2\n        /* \"#utility.yul\":5744:5768   */\n      tag_116\n      jump\t// in\n    tag_205:\n        /* \"#utility.yul\":5737:5742   */\n      dup2\n        /* \"#utility.yul\":5734:5769   */\n      eq\n        /* \"#utility.yul\":5724:5787   */\n      tag_206\n      jumpi\n        /* \"#utility.yul\":5783:5784   */\n      0x00\n        /* \"#utility.yul\":5780:5781   */\n      dup1\n        /* \"#utility.yul\":5773:5785   */\n      revert\n        /* \"#utility.yul\":5724:5787   */\n    tag_206:\n        /* \"#utility.yul\":5671:5793   */\n      pop\n      jump\t// out\n        /* \"#utility.yul\":5799:5938   */\n    tag_130:\n        /* \"#utility.yul\":5845:5850   */\n      0x00\n        /* \"#utility.yul\":5883:5889   */\n      dup2\n        /* \"#utility.yul\":5870:5890   */\n      calldataload\n        /* \"#utility.yul\":5861:5890   */\n      swap1\n      pop\n        /* \"#utility.yul\":5899:5932   */\n      tag_208\n        /* \"#utility.yul\":5926:5931   */\n      dup2\n        /* \"#utility.yul\":5899:5932   */\n      tag_129\n      jump\t// in\n    tag_208:\n        /* \"#utility.yul\":5799:5938   */\n      swap3\n      swap2\n      pop\n      pop\n      jump\t// out\n        /* \"#utility.yul\":5944:6273   */\n    tag_48:\n        /* \"#utility.yul\":6003:6009   */\n      0x00\n        /* \"#utility.yul\":6052:6054   */\n      0x20\n        /* \"#utility.yul\":6040:6049   */\n      dup3\n        /* \"#utility.yul\":6031:6038   */\n      dup5\n        /* \"#utility.yul\":6027:6050   */\n      sub\n        /* \"#utility.yul\":6023:6055   */\n      slt\n        /* \"#utility.yul\":6020:6139   */\n      iszero\n      tag_210\n      jumpi\n        /* \"#utility.yul\":6058:6137   */\n      tag_211\n      tag_109\n      jump\t// in\n    tag_211:\n        /* \"#utility.yul\":6020:6139   */\n    tag_210:\n        /* \"#utility.yul\":6178:6179   */\n      0x00\n        /* \"#utility.yul\":6203:6256   */\n      tag_212\n        /* \"#utility.yul\":6248:6255   */\n      dup5\n        /* \"#utility.yul\":6239:6245   */\n      dup3\n        /* \"#utility.yul\":6228:6237   */\n      dup6\n        /* \"#utility.yul\":6224:6246   */\n      add\n        /* \"#utility.yul\":6203:6256   */\n      tag_130\n      jump\t// in\n    tag_212:\n        /* \"#utility.yul\":6193:6256   */\n      swap2\n      pop\n        /* \"#utility.yul\":6149:6266   */\n      pop\n        /* \"#utility.yul\":5944:6273   */\n      swap3\n      swap2\n      pop\n      pop\n      jump\t// out\n        /* \"#utility.yul\":6279:6448   */\n    tag_131:\n        /* \"#utility.yul\":6363:6374   */\n      0x00\n        /* \"#utility.yul\":6397:6403   */\n      dup3\n        /* \"#utility.yul\":6392:6395   */\n      dup3\n        /* \"#utility.yul\":6385:6404   */\n      mstore\n        /* \"#utility.yul\":6437:6441   */\n      0x20\n        /* \"#utility.yul\":6432:6435   */\n      dup3\n        /* \"#utility.yul\":6428:6442   */\n      add\n        /* \"#utility.yul\":6413:6442   */\n      swap1\n      pop\n        /* \"#utility.yul\":6279:6448   */\n      swap3\n      swap2\n      pop\n      pop\n      jump\t// out\n        /* \"#utility.yul\":6454:6618   */\n    tag_132:\n        /* \"#utility.yul\":6594:6610   */\n      0x416c726561647920726570616964000000000000000000000000000000000000\n        /* \"#utility.yul\":6590:6591   */\n      0x00\n        /* \"#utility.yul\":6582:6588   */\n      dup3\n        /* \"#utility.yul\":6578:6592   */\n      add\n        /* \"#utility.yul\":6571:6611   */\n      mstore\n        /* \"#utility.yul\":6454:6618   */\n      pop\n      jump\t// out\n        /* \"#utility.yul\":6624:6990   */\n    tag_133:\n        /* \"#utility.yul\":6766:6769   */\n      0x00\n        /* \"#utility.yul\":6787:6854   */\n      tag_216\n        /* \"#utility.yul\":6851:6853   */\n      0x0e\n        /* \"#utility.yul\":6846:6849   */\n      dup4\n        /* \"#utility.yul\":6787:6854   */\n      tag_131\n      jump\t// in\n    tag_216:\n        /* \"#utility.yul\":6780:6854   */\n      swap2\n      pop\n        /* \"#utility.yul\":6863:6956   */\n      tag_217\n        /* \"#utility.yul\":6952:6955   */\n      dup3\n        /* \"#utility.yul\":6863:6956   */\n      tag_132\n      jump\t// in\n    tag_217:\n        /* \"#utility.yul\":6981:6983   */\n      0x20\n        /* \"#utility.yul\":6976:6979   */\n      dup3\n        /* \"#utility.yul\":6972:6984   */\n      add\n        /* \"#utility.yul\":6965:6984   */\n      swap1\n      pop\n        /* \"#utility.yul\":6624:6990   */\n      swap2\n      swap1\n      pop\n      jump\t// out\n        /* \"#utility.yul\":6996:7415   */\n    tag_65:\n        /* \"#utility.yul\":7162:7166   */\n      0x00\n        /* \"#utility.yul\":7200:7202   */\n      0x20\n        /* \"#utility.yul\":7189:7198   */\n      dup3\n        /* \"#utility.yul\":7185:7203   */\n      add\n        /* \"#utility.yul\":7177:7203   */\n      swap1\n      pop\n        /* \"#utility.yul\":7249:7258   */\n      dup2\n        /* \"#utility.yul\":7243:7247   */\n      dup2\n        /* \"#utility.yul\":7239:7259   */\n      sub\n        /* \"#utility.yul\":7235:7236   */\n      0x00\n        /* \"#utility.yul\":7224:7233   */\n      dup4\n        /* \"#utility.yul\":7220:7237   */\n      add\n        /* \"#utility.yul\":7213:7260   */\n      mstore\n        /* \"#utility.yul\":7277:7408   */\n      tag_219\n        /* \"#utility.yul\":7403:7407   */\n      dup2\n        /* \"#utility.yul\":7277:7408   */\n      tag_133\n      jump\t// in\n    tag_219:\n        /* \"#utility.yul\":7269:7408   */\n      swap1\n      pop\n        /* \"#utility.yul\":6996:7415   */\n      swap2\n      swap1\n      pop\n      jump\t// out\n        /* \"#utility.yul\":7421:7583   */\n    tag_134:\n        /* \"#utility.yul\":7561:7575   */\n      0x4e6f7420626f72726f7765720000000000000000000000000000000000000000\n        /* \"#utility.yul\":7557:7558   */\n      0x00\n        /* \"#utility.yul\":7549:7555   */\n      dup3\n        /* \"#utility.yul\":7545:7559   */\n      add\n        /* \"#utility.yul\":7538:7576   */\n      mstore\n        /* \"#utility.yul\":7421:7583   */\n      pop\n      jump\t// out\n        /* \"#utility.yul\":7589:7955   */\n    tag_135:\n        /* \"#utility.yul\":7731:7734   */\n      0x00\n        /* \"#utility.yul\":7752:7819   */\n      tag_222\n        /* \"#utility.yul\":7816:7818   */\n      0x0c\n        /* \"#utility.yul\":7811:7814   */\n      dup4\n        /* \"#utility.yul\":7752:7819   */\n      tag_131\n      jump\t// in\n    tag_222:\n        /* \"#utility.yul\":7745:7819   */\n      swap2\n      pop\n        /* \"#utility.yul\":7828:7921   */\n      tag_223\n        /* \"#utility.yul\":7917:7920   */\n      dup3\n        /* \"#utility.yul\":7828:7921   */\n      tag_134\n      jump\t// in\n    tag_223:\n        /* \"#utility.yul\":7946:7948   */\n      0x20\n        /* \"#utility.yul\":7941:7944   */\n      dup3\n        /* \"#utility.yul\":7937:7949   */\n      add\n        /* \"#utility.yul\":7930:7949   */\n      swap1\n      pop\n        /* \"#utility.yul\":7589:7955   */\n      swap2\n      swap1\n      pop\n      jump\t// out\n        /* \"#utility.yul\":7961:8380   */\n    tag_68:\n        /* \"#utility.yul\":8127:8131   */\n      0x00\n        /* \"#utility.yul\":8165:8167   */\n      0x20\n        /* \"#utility.yul\":8154:8163   */\n      dup3\n        /* \"#utility.yul\":8150:8168   */\n      add\n        /* \"#utility.yul\":8142:8168   */\n      swap1\n      pop\n        /* \"#utility.yul\":8214:8223   */\n      dup2\n        /* \"#utility.yul\":8208:8212   */\n      dup2\n        /* \"#utility.yul\":8204:8224   */\n      sub\n        /* \"#utility.yul\":8200:8201   */\n      0x00\n        /* \"#utility.yul\":8189:8198   */\n      dup4\n        /* \"#utility.yul\":8185:8202   */\n      add\n        /* \"#utility.yul\":8178:8225   */\n      mstore\n        /* \"#utility.yul\":8242:8373   */\n      tag_225\n        /* \"#utility.yul\":8368:8372   */\n      dup2\n        /* \"#utility.yul\":8242:8373   */\n      tag_135\n      jump\t// in\n    tag_225:\n        /* \"#utility.yul\":8234:8373   */\n      swap1\n      pop\n        /* \"#utility.yul\":7961:8380   */\n      swap2\n      swap1\n      pop\n      jump\t// out\n        /* \"#utility.yul\":8386:8554   */\n    tag_136:\n        /* \"#utility.yul\":8526:8546   */\n      0x496e73756666696369656e742072657061790000000000000000000000000000\n        /* \"#utility.yul\":8522:8523   */\n      0x00\n        /* \"#utility.yul\":8514:8520   */\n      dup3\n        /* \"#utility.yul\":8510:8524   */\n      add\n        /* \"#utility.yul\":8503:8547   */\n      mstore\n        /* \"#utility.yul\":8386:8554   */\n      pop\n      jump\t// out\n        /* \"#utility.yul\":8560:8926   */\n    tag_137:\n        /* \"#utility.yul\":8702:8705   */\n      0x00\n        /* \"#utility.yul\":8723:8790   */\n      tag_228\n        /* \"#utility.yul\":8787:8789   */\n      0x12\n        /* \"#utility.yul\":8782:8785   */\n      dup4\n        /* \"#utility.yul\":8723:8790   */\n      tag_131\n      jump\t// in\n    tag_228:\n        /* \"#utility.yul\":8716:8790   */\n      swap2\n      pop\n        /* \"#utility.yul\":8799:8892   */\n      tag_229\n        /* \"#utility.yul\":8888:8891   */\n      dup3\n        /* \"#utility.yul\":8799:8892   */\n      tag_136\n      jump\t// in\n    tag_229:\n        /* \"#utility.yul\":8917:8919   */\n      0x20\n        /* \"#utility.yul\":8912:8915   */\n      dup3\n        /* \"#utility.yul\":8908:8920   */\n      add\n        /* \"#utility.yul\":8901:8920   */\n      swap1\n      pop\n        /* \"#utility.yul\":8560:8926   */\n      swap2\n      swap1\n      pop\n      jump\t// out\n        /* \"#utility.yul\":8932:9351   */\n    tag_71:\n        /* \"#utility.yul\":9098:9102   */\n      0x00\n        /* \"#utility.yul\":9136:9138   */\n      0x20\n        /* \"#utility.yul\":9125:9134   */\n      dup3\n        /* \"#utility.yul\":9121:9139   */\n      add\n        /* \"#utility.yul\":9113:9139   */\n      swap1\n      pop\n        /* \"#utility.yul\":9185:9194   */\n      dup2\n        /* \"#utility.yul\":9179:9183   */\n      dup2\n        /* \"#utility.yul\":9175:9195   */\n      sub\n        /* \"#utility.yul\":9171:9172   */\n      0x00\n        /* \"#utility.yul\":9160:9169   */\n      dup4\n        /* \"#utility.yul\":9156:9173   */\n      add\n        /* \"#utility.yul\":9149:9196   */\n      mstore\n        /* \"#utility.yul\":9213:9344   */\n      tag_231\n        /* \"#utility.yul\":9339:9343   */\n      dup2\n        /* \"#utility.yul\":9213:9344   */\n      tag_137\n      jump\t// in\n    tag_231:\n        /* \"#utility.yul\":9205:9344   */\n      swap1\n      pop\n        /* \"#utility.yul\":8932:9351   */\n      swap2\n      swap1\n      pop\n      jump\t// out\n        /* \"#utility.yul\":9357:9799   */\n    tag_75:\n        /* \"#utility.yul\":9506:9510   */\n      0x00\n        /* \"#utility.yul\":9544:9546   */\n      0x60\n        /* \"#utility.yul\":9533:9542   */\n      dup3\n        /* \"#utility.yul\":9529:9547   */\n      add\n        /* \"#utility.yul\":9521:9547   */\n      swap1\n      pop\n        /* \"#utility.yul\":9557:9628   */\n      tag_233\n        /* \"#utility.yul\":9625:9626   */\n      0x00\n        /* \"#utility.yul\":9614:9623   */\n      dup4\n        /* \"#utility.yul\":9610:9627   */\n      add\n        /* \"#utility.yul\":9601:9607   */\n      dup7\n        /* \"#utility.yul\":9557:9628   */\n      tag_121\n      jump\t// in\n    tag_233:\n        /* \"#utility.yul\":9638:9710   */\n      tag_234\n        /* \"#utility.yul\":9706:9708   */\n      0x20\n        /* \"#utility.yul\":9695:9704   */\n      dup4\n        /* \"#utility.yul\":9691:9709   */\n      add\n        /* \"#utility.yul\":9682:9688   */\n      dup6\n        /* \"#utility.yul\":9638:9710   */\n      tag_122\n      jump\t// in\n    tag_234:\n        /* \"#utility.yul\":9720:9792   */\n      tag_235\n        /* \"#utility.yul\":9788:9790   */\n      0x40\n        /* \"#utility.yul\":9777:9786   */\n      dup4\n        /* \"#utility.yul\":9773:9791   */\n      add\n        /* \"#utility.yul\":9764:9770   */\n      dup5\n        /* \"#utility.yul\":9720:9792   */\n      tag_121\n      jump\t// in\n    tag_235:\n        /* \"#utility.yul\":9357:9799   */\n      swap5\n      swap4\n      pop\n      pop\n      pop\n      pop\n      jump\t// out\n        /* \"#utility.yul\":9805:9973   */\n    tag_138:\n        /* \"#utility.yul\":9945:9965   */\n      0x416d6f756e74206d757374206265203e20300000000000000000000000000000\n        /* \"#utility.yul\":9941:9942   */\n      0x00\n        /* \"#utility.yul\":9933:9939   */\n      dup3\n        /* \"#utility.yul\":9929:9943   */\n      add\n        /* \"#utility.yul\":9922:9966   */\n      mstore\n        /* \"#utility.yul\":9805:9973   */\n      pop\n      jump\t// out\n        /* \"#utility.yul\":9979:10345   */\n    tag_139:\n        /* \"#utility.yul\":10121:10124   */\n      0x00\n        /* \"#utility.yul\":10142:10209   */\n      tag_238\n        /* \"#utility.yul\":10206:10208   */\n      0x12\n        /* \"#utility.yul\":10201:10204   */\n      dup4\n        /* \"#utility.yul\":10142:10209   */\n      tag_131\n      jump\t// in\n    tag_238:\n        /* \"#utility.yul\":10135:10209   */\n      swap2\n      pop\n        /* \"#utility.yul\":10218:10311   */\n      tag_239\n        /* \"#utility.yul\":10307:10310   */\n      dup3\n        /* \"#utility.yul\":10218:10311   */\n      tag_138\n      jump\t// in\n    tag_239:\n        /* \"#utility.yul\":10336:10338   */\n      0x20\n        /* \"#utility.yul\":10331:10334   */\n      dup3\n        /* \"#utility.yul\":10327:10339   */\n      add\n        /* \"#utility.yul\":10320:10339   */\n      swap1\n      pop\n        /* \"#utility.yul\":9979:10345   */\n      swap2\n      swap1\n      pop\n      jump\t// out\n        /* \"#utility.yul\":10351:10770   */\n    tag_80:\n        /* \"#utility.yul\":10517:10521   */\n      0x00\n        /* \"#utility.yul\":10555:10557   */\n      0x20\n        /* \"#utility.yul\":10544:10553   */\n      dup3\n        /* \"#utility.yul\":10540:10558   */\n      add\n        /* \"#utility.yul\":10532:10558   */\n      swap1\n      pop\n        /* \"#utility.yul\":10604:10613   */\n      dup2\n        /* \"#utility.yul\":10598:10602   */\n      dup2\n        /* \"#utility.yul\":10594:10614   */\n      sub\n        /* \"#utility.yul\":10590:10591   */\n      0x00\n        /* \"#utility.yul\":10579:10588   */\n      dup4\n        /* \"#utility.yul\":10575:10592   */\n      add\n        /* \"#utility.yul\":10568:10615   */\n      mstore\n        /* \"#utility.yul\":10632:10763   */\n      tag_241\n        /* \"#utility.yul\":10758:10762   */\n      dup2\n        /* \"#utility.yul\":10632:10763   */\n      tag_139\n      jump\t// in\n    tag_241:\n        /* \"#utility.yul\":10624:10763   */\n      swap1\n      pop\n        /* \"#utility.yul\":10351:10770   */\n      swap2\n      swap1\n      pop\n      jump\t// out\n        /* \"#utility.yul\":10776:11218   */\n    tag_99:\n        /* \"#utility.yul\":10925:10929   */\n      0x00\n        /* \"#utility.yul\":10963:10965   */\n      0x60\n        /* \"#utility.yul\":10952:10961   */\n      dup3\n        /* \"#utility.yul\":10948:10966   */\n      add\n        /* \"#utility.yul\":10940:10966   */\n      swap1\n      pop\n        /* \"#utility.yul\":10976:11047   */\n      tag_243\n        /* \"#utility.yul\":11044:11045   */\n      0x00\n        /* \"#utility.yul\":11033:11042   */\n      dup4\n        /* \"#utility.yul\":11029:11046   */\n      add\n        /* \"#utility.yul\":11020:11026   */\n      dup7\n        /* \"#utility.yul\":10976:11047   */\n      tag_122\n      jump\t// in\n    tag_243:\n        /* \"#utility.yul\":11057:11129   */\n      tag_244\n        /* \"#utility.yul\":11125:11127   */\n      0x20\n        /* \"#utility.yul\":11114:11123   */\n      dup4\n        /* \"#utility.yul\":11110:11128   */\n      add\n        /* \"#utility.yul\":11101:11107   */\n      dup6\n        /* \"#utility.yul\":11057:11129   */\n      tag_122\n      jump\t// in\n    tag_244:\n        /* \"#utility.yul\":11139:11211   */\n      tag_245\n        /* \"#utility.yul\":11207:11209   */\n      0x40\n        /* \"#utility.yul\":11196:11205   */\n      dup4\n        /* \"#utility.yul\":11192:11210   */\n      add\n        /* \"#utility.yul\":11183:11189   */\n      dup5\n        /* \"#utility.yul\":11139:11211   */\n      tag_121\n      jump\t// in\n    tag_245:\n        /* \"#utility.yul\":10776:11218   */\n      swap5\n      swap4\n      pop\n      pop\n      pop\n      pop\n      jump\t// out\n\n    auxdata: 0xa264697066735822122042d4019879604e96ee93b83155f1673f35554b295a97525d9bb273213043c6b064736f6c63430008150033\n}\n",
				"bytecode": {
					"linkReferences": {},
					"object": "60c060405234801562000010575f80fd5b50604051620013e2380380620013e2833981810160405281019062000036919062000334565b335f73ffffffffffffffffffffffffffffffffffffffff168173ffffffffffffffffffffffffffffffffffffffff1603620000aa575f6040517f1e4fbdf7000000000000000000000000000000000000000000000000000000008152600401620000a191906200038a565b60405180910390fd5b620000bb816200020e60201b60201c565b505f73ffffffffffffffffffffffffffffffffffffffff168273ffffffffffffffffffffffffffffffffffffffff16036200012d576040517f08c379a0000000000000000000000000000000000000000000000000000000008152600401620001249062000403565b60405180910390fd5b5f73ffffffffffffffffffffffffffffffffffffffff168173ffffffffffffffffffffffffffffffffffffffff16036200019e576040517f08c379a0000000000000000000000000000000000000000000000000000000008152600401620001959062000471565b60405180910390fd5b8173ffffffffffffffffffffffffffffffffffffffff1660808173ffffffffffffffffffffffffffffffffffffffff16815250508073ffffffffffffffffffffffffffffffffffffffff1660a08173ffffffffffffffffffffffffffffffffffffffff1681525050505062000491565b5f805f9054906101000a900473ffffffffffffffffffffffffffffffffffffffff169050815f806101000a81548173ffffffffffffffffffffffffffffffffffffffff021916908373ffffffffffffffffffffffffffffffffffffffff1602179055508173ffffffffffffffffffffffffffffffffffffffff168173ffffffffffffffffffffffffffffffffffffffff167f8be0079c531659141344cd1fd0a4f28419497f9722a3daafe3b4186f6b6457e060405160405180910390a35050565b5f80fd5b5f73ffffffffffffffffffffffffffffffffffffffff82169050919050565b5f620002fe82620002d3565b9050919050565b6200031081620002f2565b81146200031b575f80fd5b50565b5f815190506200032e8162000305565b92915050565b5f80604083850312156200034d576200034c620002cf565b5b5f6200035c858286016200031e565b92505060206200036f858286016200031e565b9150509250929050565b6200038481620002f2565b82525050565b5f6020820190506200039f5f83018462000379565b92915050565b5f82825260208201905092915050565b7f496e76616c696420746f6b656e000000000000000000000000000000000000005f82015250565b5f620003eb600d83620003a5565b9150620003f882620003b5565b602082019050919050565b5f6020820190508181035f8301526200041c81620003dd565b9050919050565b7f496e76616c6964207661756c74000000000000000000000000000000000000005f82015250565b5f62000459600d83620003a5565b9150620004668262000423565b602082019050919050565b5f6020820190508181035f8301526200048a816200044b565b9050919050565b60805160a051610f21620004c15f395f81816103e2015261072801525f818161040401526106290152610f215ff3fe608060405234801561000f575f80fd5b506004361061009c575f3560e01c80639a4e8ecf116100645780639a4e8ecf14610132578063be81c5291461014e578063e1ec3c681461016c578063f2fde38b1461019f578063fbfa77cf146101bb5761009c565b8063504006ca146100a0578063715018a6146100d057806387c51459146100da5780638a700b53146100f85780638da5cb5b14610114575b5f80fd5b6100ba60048036038101906100b59190610a29565b6101d9565b6040516100c79190610b0f565b60405180910390f35b6100d8610286565b005b6100e2610299565b6040516100ef9190610b37565b60405180910390f35b610112600480360381019061010d9190610b50565b61029f565b005b61011c6104a5565b6040516101299190610b9d565b60405180910390f35b61014c60048036038101906101479190610a29565b6104cc565b005b610156610627565b6040516101639190610c11565b60405180910390f35b61018660048036038101906101819190610a29565b61064b565b6040516101969493929190610c39565b60405180910390f35b6101b960048036038101906101b49190610ca6565b6106a2565b005b6101c3610726565b6040516101d09190610b9d565b60405180910390f35b6101e16109b6565b60015f8381526020019081526020015f206040518060800160405290815f8201548152602001600182015f9054906101000a900473ffffffffffffffffffffffffffffffffffffffff1673ffffffffffffffffffffffffffffffffffffffff1673ffffffffffffffffffffffffffffffffffffffff16815260200160028201548152602001600382015f9054906101000a900460ff1615151515815250509050919050565b61028e61074a565b6102975f6107d1565b565b60025481565b5f60015f8481526020019081526020015f209050806003015f9054906101000a900460ff1615610304576040517f08c379a00000000000000000000000000000000000000000000000000000000081526004016102fb90610d2b565b60405180910390fd5b3373ffffffffffffffffffffffffffffffffffffffff16816001015f9054906101000a900473ffffffffffffffffffffffffffffffffffffffff1673ffffffffffffffffffffffffffffffffffffffff1614610395576040517f08c379a000000000000000000000000000000000000000000000000000000000815260040161038c90610d93565b60405180910390fd5b80600201548210156103dc576040517f08c379a00000000000000000000000000000000000000000000000000000000081526004016103d390610dfb565b60405180910390fd5b610449337f0000000000000000000000000000000000000000000000000000000000000000847f000000000000000000000000000000000000000000000000000000000000000073ffffffffffffffffffffffffffffffffffffffff16610892909392919063ffffffff16565b6001816003015f6101000a81548160ff0219169083151502179055507f512d3e65b3e58c2187bb1872aa435dba5bd09c1c03823ba56ab70aac411e4a2183338460405161049893929190610e19565b60405180910390a1505050565b5f805f9054906101000a900473ffffffffffffffffffffffffffffffffffffffff16905090565b5f811161050e576040517f08c379a000000000000000000000000000000000000000000000000000000000815260040161050590610e98565b60405180910390fd5b604051806080016040528060025481526020013373ffffffffffffffffffffffffffffffffffffffff1681526020018281526020015f151581525060015f60025481526020019081526020015f205f820151815f01556020820151816001015f6101000a81548173ffffffffffffffffffffffffffffffffffffffff021916908373ffffffffffffffffffffffffffffffffffffffff160217905550604082015181600201556060820151816003015f6101000a81548160ff0219169083151502179055509050507f8910ba13a55695f056e224bbbc6b65d866b12a8c2fbdf387fb853a1cca298cd7600254338360405161060b93929190610e19565b60405180910390a160025f815480929190600101919050555050565b7f000000000000000000000000000000000000000000000000000000000000000081565b6001602052805f5260405f205f91509050805f015490806001015f9054906101000a900473ffffffffffffffffffffffffffffffffffffffff1690806002015490806003015f9054906101000a900460ff16905084565b6106aa61074a565b5f73ffffffffffffffffffffffffffffffffffffffff168173ffffffffffffffffffffffffffffffffffffffff160361071a575f6040517f1e4fbdf70000000000000000000000000000000000000000000000000000000081526004016107119190610b9d565b60405180910390fd5b610723816107d1565b50565b7f000000000000000000000000000000000000000000000000000000000000000081565b610752610914565b73ffffffffffffffffffffffffffffffffffffffff166107706104a5565b73ffffffffffffffffffffffffffffffffffffffff16146107cf57610793610914565b6040517f118cdaa70000000000000000000000000000000000000000000000000000000081526004016107c69190610b9d565b60405180910390fd5b565b5f805f9054906101000a900473ffffffffffffffffffffffffffffffffffffffff169050815f806101000a81548173ffffffffffffffffffffffffffffffffffffffff021916908373ffffffffffffffffffffffffffffffffffffffff1602179055508173ffffffffffffffffffffffffffffffffffffffff168173ffffffffffffffffffffffffffffffffffffffff167f8be0079c531659141344cd1fd0a4f28419497f9722a3daafe3b4186f6b6457e060405160405180910390a35050565b61090e848573ffffffffffffffffffffffffffffffffffffffff166323b872dd8686866040516024016108c793929190610eb6565b604051602081830303815290604052915060e01b6020820180517bffffffffffffffffffffffffffffffffffffffffffffffffffffffff838183161783525050505061091b565b50505050565b5f33905090565b5f8060205f8451602086015f885af18061093a576040513d5f823e3d81fd5b3d92505f519150505f821461095357600181141561096e565b5f8473ffffffffffffffffffffffffffffffffffffffff163b145b156109b057836040517f5274afe70000000000000000000000000000000000000000000000000000000081526004016109a79190610b9d565b60405180910390fd5b50505050565b60405180608001604052805f81526020015f73ffffffffffffffffffffffffffffffffffffffff1681526020015f81526020015f151581525090565b5f80fd5b5f819050919050565b610a08816109f6565b8114610a12575f80fd5b50565b5f81359050610a23816109ff565b92915050565b5f60208284031215610a3e57610a3d6109f2565b5b5f610a4b84828501610a15565b91505092915050565b610a5d816109f6565b82525050565b5f73ffffffffffffffffffffffffffffffffffffffff82169050919050565b5f610a8c82610a63565b9050919050565b610a9c81610a82565b82525050565b5f8115159050919050565b610ab681610aa2565b82525050565b608082015f820151610ad05f850182610a54565b506020820151610ae36020850182610a93565b506040820151610af66040850182610a54565b506060820151610b096060850182610aad565b50505050565b5f608082019050610b225f830184610abc565b92915050565b610b31816109f6565b82525050565b5f602082019050610b4a5f830184610b28565b92915050565b5f8060408385031215610b6657610b656109f2565b5b5f610b7385828601610a15565b9250506020610b8485828601610a15565b9150509250929050565b610b9781610a82565b82525050565b5f602082019050610bb05f830184610b8e565b92915050565b5f819050919050565b5f610bd9610bd4610bcf84610a63565b610bb6565b610a63565b9050919050565b5f610bea82610bbf565b9050919050565b5f610bfb82610be0565b9050919050565b610c0b81610bf1565b82525050565b5f602082019050610c245f830184610c02565b92915050565b610c3381610aa2565b82525050565b5f608082019050610c4c5f830187610b28565b610c596020830186610b8e565b610c666040830185610b28565b610c736060830184610c2a565b95945050505050565b610c8581610a82565b8114610c8f575f80fd5b50565b5f81359050610ca081610c7c565b92915050565b5f60208284031215610cbb57610cba6109f2565b5b5f610cc884828501610c92565b91505092915050565b5f82825260208201905092915050565b7f416c7265616479207265706169640000000000000000000000000000000000005f82015250565b5f610d15600e83610cd1565b9150610d2082610ce1565b602082019050919050565b5f6020820190508181035f830152610d4281610d09565b9050919050565b7f4e6f7420626f72726f77657200000000000000000000000000000000000000005f82015250565b5f610d7d600c83610cd1565b9150610d8882610d49565b602082019050919050565b5f6020820190508181035f830152610daa81610d71565b9050919050565b7f496e73756666696369656e7420726570617900000000000000000000000000005f82015250565b5f610de5601283610cd1565b9150610df082610db1565b602082019050919050565b5f6020820190508181035f830152610e1281610dd9565b9050919050565b5f606082019050610e2c5f830186610b28565b610e396020830185610b8e565b610e466040830184610b28565b949350505050565b7f416d6f756e74206d757374206265203e203000000000000000000000000000005f82015250565b5f610e82601283610cd1565b9150610e8d82610e4e565b602082019050919050565b5f6020820190508181035f830152610eaf81610e76565b9050919050565b5f606082019050610ec95f830186610b8e565b610ed66020830185610b8e565b610ee36040830184610b28565b94935050505056fea264697066735822122042d4019879604e96ee93b83155f1673f35554b295a97525d9bb273213043c6b064736f6c63430008150033",
					"opcodes": "PUSH1 0xC0 PUSH1 0x40 MSTORE CALLVALUE DUP1 ISZERO PUSH3 0x10 JUMPI PUSH0 DUP1 REVERT JUMPDEST POP PUSH1 0x40 MLOAD PUSH3 0x13E2 CODESIZE SUB DUP1 PUSH3 0x13E2 DUP4 CODECOPY DUP2 DUP2 ADD PUSH1 0x40 MSTORE DUP2 ADD SWAP1 PUSH3 0x36 SWAP2 SWAP1 PUSH3 0x334 JUMP JUMPDEST CALLER PUSH0 PUSH20 0xFFFFFFFFFFFFFFFFFFFFFFFFFFFFFFFFFFFFFFFF AND DUP2 PUSH20 0xFFFFFFFFFFFFFFFFFFFFFFFFFFFFFFFFFFFFFFFF AND SUB PUSH3 0xAA JUMPI PUSH0 PUSH1 0x40 MLOAD PUSH32 0x1E4FBDF700000000000000000000000000000000000000000000000000000000 DUP2 MSTORE PUSH1 0x4 ADD PUSH3 0xA1 SWAP2 SWAP1 PUSH3 0x38A JUMP JUMPDEST PUSH1 0x40 MLOAD DUP1 SWAP2 SUB SWAP1 REVERT JUMPDEST PUSH3 0xBB DUP2 PUSH3 0x20E PUSH1 0x20 SHL PUSH1 0x20 SHR JUMP JUMPDEST POP PUSH0 PUSH20 0xFFFFFFFFFFFFFFFFFFFFFFFFFFFFFFFFFFFFFFFF AND DUP3 PUSH20 0xFFFFFFFFFFFFFFFFFFFFFFFFFFFFFFFFFFFFFFFF AND SUB PUSH3 0x12D JUMPI PUSH1 0x40 MLOAD PUSH32 0x8C379A000000000000000000000000000000000000000000000000000000000 DUP2 MSTORE PUSH1 0x4 ADD PUSH3 0x124 SWAP1 PUSH3 0x403 JUMP JUMPDEST PUSH1 0x40 MLOAD DUP1 SWAP2 SUB SWAP1 REVERT JUMPDEST PUSH0 PUSH20 0xFFFFFFFFFFFFFFFFFFFFFFFFFFFFFFFFFFFFFFFF AND DUP2 PUSH20 0xFFFFFFFFFFFFFFFFFFFFFFFFFFFFFFFFFFFFFFFF AND SUB PUSH3 0x19E JUMPI PUSH1 0x40 MLOAD PUSH32 0x8C379A000000000000000000000000000000000000000000000000000000000 DUP2 MSTORE PUSH1 0x4 ADD PUSH3 0x195 SWAP1 PUSH3 0x471 JUMP JUMPDEST PUSH1 0x40 MLOAD DUP1 SWAP2 SUB SWAP1 REVERT JUMPDEST DUP2 PUSH20 0xFFFFFFFFFFFFFFFFFFFFFFFFFFFFFFFFFFFFFFFF AND PUSH1 0x80 DUP2 PUSH20 0xFFFFFFFFFFFFFFFFFFFFFFFFFFFFFFFFFFFFFFFF AND DUP2 MSTORE POP POP DUP1 PUSH20 0xFFFFFFFFFFFFFFFFFFFFFFFFFFFFFFFFFFFFFFFF AND PUSH1 0xA0 DUP2 PUSH20 0xFFFFFFFFFFFFFFFFFFFFFFFFFFFFFFFFFFFFFFFF AND DUP2 MSTORE POP POP POP POP PUSH3 0x491 JUMP JUMPDEST PUSH0 DUP1 PUSH0 SWAP1 SLOAD SWAP1 PUSH2 0x100 EXP SWAP1 DIV PUSH20 0xFFFFFFFFFFFFFFFFFFFFFFFFFFFFFFFFFFFFFFFF AND SWAP1 POP DUP2 PUSH0 DUP1 PUSH2 0x100 EXP DUP2 SLOAD DUP2 PUSH20 0xFFFFFFFFFFFFFFFFFFFFFFFFFFFFFFFFFFFFFFFF MUL NOT AND SWAP1 DUP4 PUSH20 0xFFFFFFFFFFFFFFFFFFFFFFFFFFFFFFFFFFFFFFFF AND MUL OR SWAP1 SSTORE POP DUP2 PUSH20 0xFFFFFFFFFFFFFFFFFFFFFFFFFFFFFFFFFFFFFFFF AND DUP2 PUSH20 0xFFFFFFFFFFFFFFFFFFFFFFFFFFFFFFFFFFFFFFFF AND PUSH32 0x8BE0079C531659141344CD1FD0A4F28419497F9722A3DAAFE3B4186F6B6457E0 PUSH1 0x40 MLOAD PUSH1 0x40 MLOAD DUP1 SWAP2 SUB SWAP1 LOG3 POP POP JUMP JUMPDEST PUSH0 DUP1 REVERT JUMPDEST PUSH0 PUSH20 0xFFFFFFFFFFFFFFFFFFFFFFFFFFFFFFFFFFFFFFFF DUP3 AND SWAP1 POP SWAP2 SWAP1 POP JUMP JUMPDEST PUSH0 PUSH3 0x2FE DUP3 PUSH3 0x2D3 JUMP JUMPDEST SWAP1 POP SWAP2 SWAP1 POP JUMP JUMPDEST PUSH3 0x310 DUP2 PUSH3 0x2F2 JUMP JUMPDEST DUP2 EQ PUSH3 0x31B JUMPI PUSH0 DUP1 REVERT JUMPDEST POP JUMP JUMPDEST PUSH0 DUP2 MLOAD SWAP1 POP PUSH3 0x32E DUP2 PUSH3 0x305 JUMP JUMPDEST SWAP3 SWAP2 POP POP JUMP JUMPDEST PUSH0 DUP1 PUSH1 0x40 DUP4 DUP6 SUB SLT ISZERO PUSH3 0x34D JUMPI PUSH3 0x34C PUSH3 0x2CF JUMP JUMPDEST JUMPDEST PUSH0 PUSH3 0x35C DUP6 DUP3 DUP7 ADD PUSH3 0x31E JUMP JUMPDEST SWAP3 POP POP PUSH1 0x20 PUSH3 0x36F DUP6 DUP3 DUP7 ADD PUSH3 0x31E JUMP JUMPDEST SWAP2 POP POP SWAP3 POP SWAP3 SWAP1 POP JUMP JUMPDEST PUSH3 0x384 DUP2 PUSH3 0x2F2 JUMP JUMPDEST DUP3 MSTORE POP POP JUMP JUMPDEST PUSH0 PUSH1 0x20 DUP3 ADD SWAP1 POP PUSH3 0x39F PUSH0 DUP4 ADD DUP5 PUSH3 0x379 JUMP JUMPDEST SWAP3 SWAP2 POP POP JUMP JUMPDEST PUSH0 DUP3 DUP3 MSTORE PUSH1 0x20 DUP3 ADD SWAP1 POP SWAP3 SWAP2 POP POP JUMP JUMPDEST PUSH32 0x496E76616C696420746F6B656E00000000000000000000000000000000000000 PUSH0 DUP3 ADD MSTORE POP JUMP JUMPDEST PUSH0 PUSH3 0x3EB PUSH1 0xD DUP4 PUSH3 0x3A5 JUMP JUMPDEST SWAP2 POP PUSH3 0x3F8 DUP3 PUSH3 0x3B5 JUMP JUMPDEST PUSH1 0x20 DUP3 ADD SWAP1 POP SWAP2 SWAP1 POP JUMP JUMPDEST PUSH0 PUSH1 0x20 DUP3 ADD SWAP1 POP DUP2 DUP2 SUB PUSH0 DUP4 ADD MSTORE PUSH3 0x41C DUP2 PUSH3 0x3DD JUMP JUMPDEST SWAP1 POP SWAP2 SWAP1 POP JUMP JUMPDEST PUSH32 0x496E76616C6964207661756C7400000000000000000000000000000000000000 PUSH0 DUP3 ADD MSTORE POP JUMP JUMPDEST PUSH0 PUSH3 0x459 PUSH1 0xD DUP4 PUSH3 0x3A5 JUMP JUMPDEST SWAP2 POP PUSH3 0x466 DUP3 PUSH3 0x423 JUMP JUMPDEST PUSH1 0x20 DUP3 ADD SWAP1 POP SWAP2 SWAP1 POP JUMP JUMPDEST PUSH0 PUSH1 0x20 DUP3 ADD SWAP1 POP DUP2 DUP2 SUB PUSH0 DUP4 ADD MSTORE PUSH3 0x48A DUP2 PUSH3 0x44B JUMP JUMPDEST SWAP1 POP SWAP2 SWAP1 POP JUMP JUMPDEST PUSH1 0x80 MLOAD PUSH1 0xA0 MLOAD PUSH2 0xF21 PUSH3 0x4C1 PUSH0 CODECOPY PUSH0 DUP2 DUP2 PUSH2 0x3E2 ADD MSTORE PUSH2 0x728 ADD MSTORE PUSH0 DUP2 DUP2 PUSH2 0x404 ADD MSTORE PUSH2 0x629 ADD MSTORE PUSH2 0xF21 PUSH0 RETURN INVALID PUSH1 0x80 PUSH1 0x40 MSTORE CALLVALUE DUP1 ISZERO PUSH2 0xF JUMPI PUSH0 DUP1 REVERT JUMPDEST POP PUSH1 0x4 CALLDATASIZE LT PUSH2 0x9C JUMPI PUSH0 CALLDATALOAD PUSH1 0xE0 SHR DUP1 PUSH4 0x9A4E8ECF GT PUSH2 0x64 JUMPI DUP1 PUSH4 0x9A4E8ECF EQ PUSH2 0x132 JUMPI DUP1 PUSH4 0xBE81C529 EQ PUSH2 0x14E JUMPI DUP1 PUSH4 0xE1EC3C68 EQ PUSH2 0x16C JUMPI DUP1 PUSH4 0xF2FDE38B EQ PUSH2 0x19F JUMPI DUP1 PUSH4 0xFBFA77CF EQ PUSH2 0x1BB JUMPI PUSH2 0x9C JUMP JUMPDEST DUP1 PUSH4 0x504006CA EQ PUSH2 0xA0 JUMPI DUP1 PUSH4 0x715018A6 EQ PUSH2 0xD0 JUMPI DUP1 PUSH4 0x87C51459 EQ PUSH2 0xDA JUMPI DUP1 PUSH4 0x8A700B53 EQ PUSH2 0xF8 JUMPI DUP1 PUSH4 0x8DA5CB5B EQ PUSH2 0x114 JUMPI JUMPDEST PUSH0 DUP1 REVERT JUMPDEST PUSH2 0xBA PUSH1 0x4 DUP1 CALLDATASIZE SUB DUP2 ADD SWAP1 PUSH2 0xB5 SWAP2 SWAP1 PUSH2 0xA29 JUMP JUMPDEST PUSH2 0x1D9 JUMP JUMPDEST PUSH1 0x40 MLOAD PUSH2 0xC7 SWAP2 SWAP1 PUSH2 0xB0F JUMP JUMPDEST PUSH1 0x40 MLOAD DUP1 SWAP2 SUB SWAP1 RETURN JUMPDEST PUSH2 0xD8 PUSH2 0x286 JUMP JUMPDEST STOP JUMPDEST PUSH2 0xE2 PUSH2 0x299 JUMP JUMPDEST PUSH1 0x40 MLOAD PUSH2 0xEF SWAP2 SWAP1 PUSH2 0xB37 JUMP JUMPDEST PUSH1 0x40 MLOAD DUP1 SWAP2 SUB SWAP1 RETURN JUMPDEST PUSH2 0x112 PUSH1 0x4 DUP1 CALLDATASIZE SUB DUP2 ADD SWAP1 PUSH2 0x10D SWAP2 SWAP1 PUSH2 0xB50 JUMP JUMPDEST PUSH2 0x29F JUMP JUMPDEST STOP JUMPDEST PUSH2 0x11C PUSH2 0x4A5 JUMP JUMPDEST PUSH1 0x40 MLOAD PUSH2 0x129 SWAP2 SWAP1 PUSH2 0xB9D JUMP JUMPDEST PUSH1 0x40 MLOAD DUP1 SWAP2 SUB SWAP1 RETURN JUMPDEST PUSH2 0x14C PUSH1 0x4 DUP1 CALLDATASIZE SUB DUP2 ADD SWAP1 PUSH2 0x147 SWAP2 SWAP1 PUSH2 0xA29 JUMP JUMPDEST PUSH2 0x4CC JUMP JUMPDEST STOP JUMPDEST PUSH2 0x156 PUSH2 0x627 JUMP JUMPDEST PUSH1 0x40 MLOAD PUSH2 0x163 SWAP2 SWAP1 PUSH2 0xC11 JUMP JUMPDEST PUSH1 0x40 MLOAD DUP1 SWAP2 SUB SWAP1 RETURN JUMPDEST PUSH2 0x186 PUSH1 0x4 DUP1 CALLDATASIZE SUB DUP2 ADD SWAP1 PUSH2 0x181 SWAP2 SWAP1 PUSH2 0xA29 JUMP JUMPDEST PUSH2 0x64B JUMP JUMPDEST PUSH1 0x40 MLOAD PUSH2 0x196 SWAP5 SWAP4 SWAP3 SWAP2 SWAP1 PUSH2 0xC39 JUMP JUMPDEST PUSH1 0x40 MLOAD DUP1 SWAP2 SUB SWAP1 RETURN JUMPDEST PUSH2 0x1B9 PUSH1 0x4 DUP1 CALLDATASIZE SUB DUP2 ADD SWAP1 PUSH2 0x1B4 SWAP2 SWAP1 PUSH2 0xCA6 JUMP JUMPDEST PUSH2 0x6A2 JUMP JUMPDEST STOP JUMPDEST PUSH2 0x1C3 PUSH2 0x726 JUMP JUMPDEST PUSH1 0x40 MLOAD PUSH2 0x1D0 SWAP2 SWAP1 PUSH2 0xB9D JUMP JUMPDEST PUSH1 0x40 MLOAD DUP1 SWAP2 SUB SWAP1 RETURN JUMPDEST PUSH2 0x1E1 PUSH2 0x9B6 JUMP JUMPDEST PUSH1 0x1 PUSH0 DUP4 DUP2 MSTORE PUSH1 0x20 ADD SWAP1 DUP2 MSTORE PUSH1 0x20 ADD PUSH0 KECCAK256 PUSH1 0x40 MLOAD DUP1 PUSH1 0x80 ADD PUSH1 0x40 MSTORE SWAP1 DUP2 PUSH0 DUP3 ADD SLOAD DUP2 MSTORE PUSH1 0x20 ADD PUSH1 0x1 DUP3 ADD PUSH0 SWAP1 SLOAD SWAP1 PUSH2 0x100 EXP SWAP1 DIV PUSH20 0xFFFFFFFFFFFFFFFFFFFFFFFFFFFFFFFFFFFFFFFF AND PUSH20 0xFFFFFFFFFFFFFFFFFFFFFFFFFFFFFFFFFFFFFFFF AND PUSH20 0xFFFFFFFFFFFFFFFFFFFFFFFFFFFFFFFFFFFFFFFF AND DUP2 MSTORE PUSH1 0x20 ADD PUSH1 0x2 DUP3 ADD SLOAD DUP2 MSTORE PUSH1 0x20 ADD PUSH1 0x3 DUP3 ADD PUSH0 SWAP1 SLOAD SWAP1 PUSH2 0x100 EXP SWAP1 DIV PUSH1 0xFF AND ISZERO ISZERO ISZERO ISZERO DUP2 MSTORE POP POP SWAP1 POP SWAP2 SWAP1 POP JUMP JUMPDEST PUSH2 0x28E PUSH2 0x74A JUMP JUMPDEST PUSH2 0x297 PUSH0 PUSH2 0x7D1 JUMP JUMPDEST JUMP JUMPDEST PUSH1 0x2 SLOAD DUP2 JUMP JUMPDEST PUSH0 PUSH1 0x1 PUSH0 DUP5 DUP2 MSTORE PUSH1 0x20 ADD SWAP1 DUP2 MSTORE PUSH1 0x20 ADD PUSH0 KECCAK256 SWAP1 POP DUP1 PUSH1 0x3 ADD PUSH0 SWAP1 SLOAD SWAP1 PUSH2 0x100 EXP SWAP1 DIV PUSH1 0xFF AND ISZERO PUSH2 0x304 JUMPI PUSH1 0x40 MLOAD PUSH32 0x8C379A000000000000000000000000000000000000000000000000000000000 DUP2 MSTORE PUSH1 0x4 ADD PUSH2 0x2FB SWAP1 PUSH2 0xD2B JUMP JUMPDEST PUSH1 0x40 MLOAD DUP1 SWAP2 SUB SWAP1 REVERT JUMPDEST CALLER PUSH20 0xFFFFFFFFFFFFFFFFFFFFFFFFFFFFFFFFFFFFFFFF AND DUP2 PUSH1 0x1 ADD PUSH0 SWAP1 SLOAD SWAP1 PUSH2 0x100 EXP SWAP1 DIV PUSH20 0xFFFFFFFFFFFFFFFFFFFFFFFFFFFFFFFFFFFFFFFF AND PUSH20 0xFFFFFFFFFFFFFFFFFFFFFFFFFFFFFFFFFFFFFFFF AND EQ PUSH2 0x395 JUMPI PUSH1 0x40 MLOAD PUSH32 0x8C379A000000000000000000000000000000000000000000000000000000000 DUP2 MSTORE PUSH1 0x4 ADD PUSH2 0x38C SWAP1 PUSH2 0xD93 JUMP JUMPDEST PUSH1 0x40 MLOAD DUP1 SWAP2 SUB SWAP1 REVERT JUMPDEST DUP1 PUSH1 0x2 ADD SLOAD DUP3 LT ISZERO PUSH2 0x3DC JUMPI PUSH1 0x40 MLOAD PUSH32 0x8C379A000000000000000000000000000000000000000000000000000000000 DUP2 MSTORE PUSH1 0x4 ADD PUSH2 0x3D3 SWAP1 PUSH2 0xDFB JUMP JUMPDEST PUSH1 0x40 MLOAD DUP1 SWAP2 SUB SWAP1 REVERT JUMPDEST PUSH2 0x449 CALLER PUSH32 0x0 DUP5 PUSH32 0x0 PUSH20 0xFFFFFFFFFFFFFFFFFFFFFFFFFFFFFFFFFFFFFFFF AND PUSH2 0x892 SWAP1 SWAP4 SWAP3 SWAP2 SWAP1 PUSH4 0xFFFFFFFF AND JUMP JUMPDEST PUSH1 0x1 DUP2 PUSH1 0x3 ADD PUSH0 PUSH2 0x100 EXP DUP2 SLOAD DUP2 PUSH1 0xFF MUL NOT AND SWAP1 DUP4 ISZERO ISZERO MUL OR SWAP1 SSTORE POP PUSH32 0x512D3E65B3E58C2187BB1872AA435DBA5BD09C1C03823BA56AB70AAC411E4A21 DUP4 CALLER DUP5 PUSH1 0x40 MLOAD PUSH2 0x498 SWAP4 SWAP3 SWAP2 SWAP1 PUSH2 0xE19 JUMP JUMPDEST PUSH1 0x40 MLOAD DUP1 SWAP2 SUB SWAP1 LOG1 POP POP POP JUMP JUMPDEST PUSH0 DUP1 PUSH0 SWAP1 SLOAD SWAP1 PUSH2 0x100 EXP SWAP1 DIV PUSH20 0xFFFFFFFFFFFFFFFFFFFFFFFFFFFFFFFFFFFFFFFF AND SWAP1 POP SWAP1 JUMP JUMPDEST PUSH0 DUP2 GT PUSH2 0x50E JUMPI PUSH1 0x40 MLOAD PUSH32 0x8C379A000000000000000000000000000000000000000000000000000000000 DUP2 MSTORE PUSH1 0x4 ADD PUSH2 0x505 SWAP1 PUSH2 0xE98 JUMP JUMPDEST PUSH1 0x40 MLOAD DUP1 SWAP2 SUB SWAP1 REVERT JUMPDEST PUSH1 0x40 MLOAD DUP1 PUSH1 0x80 ADD PUSH1 0x40 MSTORE DUP1 PUSH1 0x2 SLOAD DUP2 MSTORE PUSH1 0x20 ADD CALLER PUSH20 0xFFFFFFFFFFFFFFFFFFFFFFFFFFFFFFFFFFFFFFFF AND DUP2 MSTORE PUSH1 0x20 ADD DUP3 DUP2 MSTORE PUSH1 0x20 ADD PUSH0 ISZERO ISZERO DUP2 MSTORE POP PUSH1 0x1 PUSH0 PUSH1 0x2 SLOAD DUP2 MSTORE PUSH1 0x20 ADD SWAP1 DUP2 MSTORE PUSH1 0x20 ADD PUSH0 KECCAK256 PUSH0 DUP3 ADD MLOAD DUP2 PUSH0 ADD SSTORE PUSH1 0x20 DUP3 ADD MLOAD DUP2 PUSH1 0x1 ADD PUSH0 PUSH2 0x100 EXP DUP2 SLOAD DUP2 PUSH20 0xFFFFFFFFFFFFFFFFFFFFFFFFFFFFFFFFFFFFFFFF MUL NOT AND SWAP1 DUP4 PUSH20 0xFFFFFFFFFFFFFFFFFFFFFFFFFFFFFFFFFFFFFFFF AND MUL OR SWAP1 SSTORE POP PUSH1 0x40 DUP3 ADD MLOAD DUP2 PUSH1 0x2 ADD SSTORE PUSH1 0x60 DUP3 ADD MLOAD DUP2 PUSH1 0x3 ADD PUSH0 PUSH2 0x100 EXP DUP2 SLOAD DUP2 PUSH1 0xFF MUL NOT AND SWAP1 DUP4 ISZERO ISZERO MUL OR SWAP1 SSTORE POP SWAP1 POP POP PUSH32 0x8910BA13A55695F056E224BBBC6B65D866B12A8C2FBDF387FB853A1CCA298CD7 PUSH1 0x2 SLOAD CALLER DUP4 PUSH1 0x40 MLOAD PUSH2 0x60B SWAP4 SWAP3 SWAP2 SWAP1 PUSH2 0xE19 JUMP JUMPDEST PUSH1 0x40 MLOAD DUP1 SWAP2 SUB SWAP1 LOG1 PUSH1 0x2 PUSH0 DUP2 SLOAD DUP1 SWAP3 SWAP2 SWAP1 PUSH1 0x1 ADD SWAP2 SWAP1 POP SSTORE POP POP JUMP JUMPDEST PUSH32 0x0 DUP2 JUMP JUMPDEST PUSH1 0x1 PUSH1 0x20 MSTORE DUP1 PUSH0 MSTORE PUSH1 0x40 PUSH0 KECCAK256 PUSH0 SWAP2 POP SWAP1 POP DUP1 PUSH0 ADD SLOAD SWAP1 DUP1 PUSH1 0x1 ADD PUSH0 SWAP1 SLOAD SWAP1 PUSH2 0x100 EXP SWAP1 DIV PUSH20 0xFFFFFFFFFFFFFFFFFFFFFFFFFFFFFFFFFFFFFFFF AND SWAP1 DUP1 PUSH1 0x2 ADD SLOAD SWAP1 DUP1 PUSH1 0x3 ADD PUSH0 SWAP1 SLOAD SWAP1 PUSH2 0x100 EXP SWAP1 DIV PUSH1 0xFF AND SWAP1 POP DUP5 JUMP JUMPDEST PUSH2 0x6AA PUSH2 0x74A JUMP JUMPDEST PUSH0 PUSH20 0xFFFFFFFFFFFFFFFFFFFFFFFFFFFFFFFFFFFFFFFF AND DUP2 PUSH20 0xFFFFFFFFFFFFFFFFFFFFFFFFFFFFFFFFFFFFFFFF AND SUB PUSH2 0x71A JUMPI PUSH0 PUSH1 0x40 MLOAD PUSH32 0x1E4FBDF700000000000000000000000000000000000000000000000000000000 DUP2 MSTORE PUSH1 0x4 ADD PUSH2 0x711 SWAP2 SWAP1 PUSH2 0xB9D JUMP JUMPDEST PUSH1 0x40 MLOAD DUP1 SWAP2 SUB SWAP1 REVERT JUMPDEST PUSH2 0x723 DUP2 PUSH2 0x7D1 JUMP JUMPDEST POP JUMP JUMPDEST PUSH32 0x0 DUP2 JUMP JUMPDEST PUSH2 0x752 PUSH2 0x914 JUMP JUMPDEST PUSH20 0xFFFFFFFFFFFFFFFFFFFFFFFFFFFFFFFFFFFFFFFF AND PUSH2 0x770 PUSH2 0x4A5 JUMP JUMPDEST PUSH20 0xFFFFFFFFFFFFFFFFFFFFFFFFFFFFFFFFFFFFFFFF AND EQ PUSH2 0x7CF JUMPI PUSH2 0x793 PUSH2 0x914 JUMP JUMPDEST PUSH1 0x40 MLOAD PUSH32 0x118CDAA700000000000000000000000000000000000000000000000000000000 DUP2 MSTORE PUSH1 0x4 ADD PUSH2 0x7C6 SWAP2 SWAP1 PUSH2 0xB9D JUMP JUMPDEST PUSH1 0x40 MLOAD DUP1 SWAP2 SUB SWAP1 REVERT JUMPDEST JUMP JUMPDEST PUSH0 DUP1 PUSH0 SWAP1 SLOAD SWAP1 PUSH2 0x100 EXP SWAP1 DIV PUSH20 0xFFFFFFFFFFFFFFFFFFFFFFFFFFFFFFFFFFFFFFFF AND SWAP1 POP DUP2 PUSH0 DUP1 PUSH2 0x100 EXP DUP2 SLOAD DUP2 PUSH20 0xFFFFFFFFFFFFFFFFFFFFFFFFFFFFFFFFFFFFFFFF MUL NOT AND SWAP1 DUP4 PUSH20 0xFFFFFFFFFFFFFFFFFFFFFFFFFFFFFFFFFFFFFFFF AND MUL OR SWAP1 SSTORE POP DUP2 PUSH20 0xFFFFFFFFFFFFFFFFFFFFFFFFFFFFFFFFFFFFFFFF AND DUP2 PUSH20 0xFFFFFFFFFFFFFFFFFFFFFFFFFFFFFFFFFFFFFFFF AND PUSH32 0x8BE0079C531659141344CD1FD0A4F28419497F9722A3DAAFE3B4186F6B6457E0 PUSH1 0x40 MLOAD PUSH1 0x40 MLOAD DUP1 SWAP2 SUB SWAP1 LOG3 POP POP JUMP JUMPDEST PUSH2 0x90E DUP5 DUP6 PUSH20 0xFFFFFFFFFFFFFFFFFFFFFFFFFFFFFFFFFFFFFFFF AND PUSH4 0x23B872DD DUP7 DUP7 DUP7 PUSH1 0x40 MLOAD PUSH1 0x24 ADD PUSH2 0x8C7 SWAP4 SWAP3 SWAP2 SWAP1 PUSH2 0xEB6 JUMP JUMPDEST PUSH1 0x40 MLOAD PUSH1 0x20 DUP2 DUP4 SUB SUB DUP2 MSTORE SWAP1 PUSH1 0x40 MSTORE SWAP2 POP PUSH1 0xE0 SHL PUSH1 0x20 DUP3 ADD DUP1 MLOAD PUSH28 0xFFFFFFFFFFFFFFFFFFFFFFFFFFFFFFFFFFFFFFFFFFFFFFFFFFFFFFFF DUP4 DUP2 DUP4 AND OR DUP4 MSTORE POP POP POP POP PUSH2 0x91B JUMP JUMPDEST POP POP POP POP JUMP JUMPDEST PUSH0 CALLER SWAP1 POP SWAP1 JUMP JUMPDEST PUSH0 DUP1 PUSH1 0x20 PUSH0 DUP5 MLOAD PUSH1 0x20 DUP7 ADD PUSH0 DUP9 GAS CALL DUP1 PUSH2 0x93A JUMPI PUSH1 0x40 MLOAD RETURNDATASIZE PUSH0 DUP3 RETURNDATACOPY RETURNDATASIZE DUP2 REVERT JUMPDEST RETURNDATASIZE SWAP3 POP PUSH0 MLOAD SWAP2 POP POP PUSH0 DUP3 EQ PUSH2 0x953 JUMPI PUSH1 0x1 DUP2 EQ ISZERO PUSH2 0x96E JUMP JUMPDEST PUSH0 DUP5 PUSH20 0xFFFFFFFFFFFFFFFFFFFFFFFFFFFFFFFFFFFFFFFF AND EXTCODESIZE EQ JUMPDEST ISZERO PUSH2 0x9B0 JUMPI DUP4 PUSH1 0x40 MLOAD PUSH32 0x5274AFE700000000000000000000000000000000000000000000000000000000 DUP2 MSTORE PUSH1 0x4 ADD PUSH2 0x9A7 SWAP2 SWAP1 PUSH2 0xB9D JUMP JUMPDEST PUSH1 0x40 MLOAD DUP1 SWAP2 SUB SWAP1 REVERT JUMPDEST POP POP POP POP JUMP JUMPDEST PUSH1 0x40 MLOAD DUP1 PUSH1 0x80 ADD PUSH1 0x40 MSTORE DUP1 PUSH0 DUP2 MSTORE PUSH1 0x20 ADD PUSH0 PUSH20 0xFFFFFFFFFFFFFFFFFFFFFFFFFFFFFFFFFFFFFFFF AND DUP2 MSTORE PUSH1 0x20 ADD PUSH0 DUP2 MSTORE PUSH1 0x20 ADD PUSH0 ISZERO ISZERO DUP2 MSTORE POP SWAP1 JUMP JUMPDEST PUSH0 DUP1 REVERT JUMPDEST PUSH0 DUP2 SWAP1 POP SWAP2 SWAP1 POP JUMP JUMPDEST PUSH2 0xA08 DUP2 PUSH2 0x9F6 JUMP JUMPDEST DUP2 EQ PUSH2 0xA12 JUMPI PUSH0 DUP1 REVERT JUMPDEST POP JUMP JUMPDEST PUSH0 DUP2 CALLDATALOAD SWAP1 POP PUSH2 0xA23 DUP2 PUSH2 0x9FF JUMP JUMPDEST SWAP3 SWAP2 POP POP JUMP JUMPDEST PUSH0 PUSH1 0x20 DUP3 DUP5 SUB SLT ISZERO PUSH2 0xA3E JUMPI PUSH2 0xA3D PUSH2 0x9F2 JUMP JUMPDEST JUMPDEST PUSH0 PUSH2 0xA4B DUP5 DUP3 DUP6 ADD PUSH2 0xA15 JUMP JUMPDEST SWAP2 POP POP SWAP3 SWAP2 POP POP JUMP JUMPDEST PUSH2 0xA5D DUP2 PUSH2 0x9F6 JUMP JUMPDEST DUP3 MSTORE POP POP JUMP JUMPDEST PUSH0 PUSH20 0xFFFFFFFFFFFFFFFFFFFFFFFFFFFFFFFFFFFFFFFF DUP3 AND SWAP1 POP SWAP2 SWAP1 POP JUMP JUMPDEST PUSH0 PUSH2 0xA8C DUP3 PUSH2 0xA63 JUMP JUMPDEST SWAP1 POP SWAP2 SWAP1 POP JUMP JUMPDEST PUSH2 0xA9C DUP2 PUSH2 0xA82 JUMP JUMPDEST DUP3 MSTORE POP POP JUMP JUMPDEST PUSH0 DUP2 ISZERO ISZERO SWAP1 POP SWAP2 SWAP1 POP JUMP JUMPDEST PUSH2 0xAB6 DUP2 PUSH2 0xAA2 JUMP JUMPDEST DUP3 MSTORE POP POP JUMP JUMPDEST PUSH1 0x80 DUP3 ADD PUSH0 DUP3 ADD MLOAD PUSH2 0xAD0 PUSH0 DUP6 ADD DUP3 PUSH2 0xA54 JUMP JUMPDEST POP PUSH1 0x20 DUP3 ADD MLOAD PUSH2 0xAE3 PUSH1 0x20 DUP6 ADD DUP3 PUSH2 0xA93 JUMP JUMPDEST POP PUSH1 0x40 DUP3 ADD MLOAD PUSH2 0xAF6 PUSH1 0x40 DUP6 ADD DUP3 PUSH2 0xA54 JUMP JUMPDEST POP PUSH1 0x60 DUP3 ADD MLOAD PUSH2 0xB09 PUSH1 0x60 DUP6 ADD DUP3 PUSH2 0xAAD JUMP JUMPDEST POP POP POP POP JUMP JUMPDEST PUSH0 PUSH1 0x80 DUP3 ADD SWAP1 POP PUSH2 0xB22 PUSH0 DUP4 ADD DUP5 PUSH2 0xABC JUMP JUMPDEST SWAP3 SWAP2 POP POP JUMP JUMPDEST PUSH2 0xB31 DUP2 PUSH2 0x9F6 JUMP JUMPDEST DUP3 MSTORE POP POP JUMP JUMPDEST PUSH0 PUSH1 0x20 DUP3 ADD SWAP1 POP PUSH2 0xB4A PUSH0 DUP4 ADD DUP5 PUSH2 0xB28 JUMP JUMPDEST SWAP3 SWAP2 POP POP JUMP JUMPDEST PUSH0 DUP1 PUSH1 0x40 DUP4 DUP6 SUB SLT ISZERO PUSH2 0xB66 JUMPI PUSH2 0xB65 PUSH2 0x9F2 JUMP JUMPDEST JUMPDEST PUSH0 PUSH2 0xB73 DUP6 DUP3 DUP7 ADD PUSH2 0xA15 JUMP JUMPDEST SWAP3 POP POP PUSH1 0x20 PUSH2 0xB84 DUP6 DUP3 DUP7 ADD PUSH2 0xA15 JUMP JUMPDEST SWAP2 POP POP SWAP3 POP SWAP3 SWAP1 POP JUMP JUMPDEST PUSH2 0xB97 DUP2 PUSH2 0xA82 JUMP JUMPDEST DUP3 MSTORE POP POP JUMP JUMPDEST PUSH0 PUSH1 0x20 DUP3 ADD SWAP1 POP PUSH2 0xBB0 PUSH0 DUP4 ADD DUP5 PUSH2 0xB8E JUMP JUMPDEST SWAP3 SWAP2 POP POP JUMP JUMPDEST PUSH0 DUP2 SWAP1 POP SWAP2 SWAP1 POP JUMP JUMPDEST PUSH0 PUSH2 0xBD9 PUSH2 0xBD4 PUSH2 0xBCF DUP5 PUSH2 0xA63 JUMP JUMPDEST PUSH2 0xBB6 JUMP JUMPDEST PUSH2 0xA63 JUMP JUMPDEST SWAP1 POP SWAP2 SWAP1 POP JUMP JUMPDEST PUSH0 PUSH2 0xBEA DUP3 PUSH2 0xBBF JUMP JUMPDEST SWAP1 POP SWAP2 SWAP1 POP JUMP JUMPDEST PUSH0 PUSH2 0xBFB DUP3 PUSH2 0xBE0 JUMP JUMPDEST SWAP1 POP SWAP2 SWAP1 POP JUMP JUMPDEST PUSH2 0xC0B DUP2 PUSH2 0xBF1 JUMP JUMPDEST DUP3 MSTORE POP POP JUMP JUMPDEST PUSH0 PUSH1 0x20 DUP3 ADD SWAP1 POP PUSH2 0xC24 PUSH0 DUP4 ADD DUP5 PUSH2 0xC02 JUMP JUMPDEST SWAP3 SWAP2 POP POP JUMP JUMPDEST PUSH2 0xC33 DUP2 PUSH2 0xAA2 JUMP JUMPDEST DUP3 MSTORE POP POP JUMP JUMPDEST PUSH0 PUSH1 0x80 DUP3 ADD SWAP1 POP PUSH2 0xC4C PUSH0 DUP4 ADD DUP8 PUSH2 0xB28 JUMP JUMPDEST PUSH2 0xC59 PUSH1 0x20 DUP4 ADD DUP7 PUSH2 0xB8E JUMP JUMPDEST PUSH2 0xC66 PUSH1 0x40 DUP4 ADD DUP6 PUSH2 0xB28 JUMP JUMPDEST PUSH2 0xC73 PUSH1 0x60 DUP4 ADD DUP5 PUSH2 0xC2A JUMP JUMPDEST SWAP6 SWAP5 POP POP POP POP POP JUMP JUMPDEST PUSH2 0xC85 DUP2 PUSH2 0xA82 JUMP JUMPDEST DUP2 EQ PUSH2 0xC8F JUMPI PUSH0 DUP1 REVERT JUMPDEST POP JUMP JUMPDEST PUSH0 DUP2 CALLDATALOAD SWAP1 POP PUSH2 0xCA0 DUP2 PUSH2 0xC7C JUMP JUMPDEST SWAP3 SWAP2 POP POP JUMP JUMPDEST PUSH0 PUSH1 0x20 DUP3 DUP5 SUB SLT ISZERO PUSH2 0xCBB JUMPI PUSH2 0xCBA PUSH2 0x9F2 JUMP JUMPDEST JUMPDEST PUSH0 PUSH2 0xCC8 DUP5 DUP3 DUP6 ADD PUSH2 0xC92 JUMP JUMPDEST SWAP2 POP POP SWAP3 SWAP2 POP POP JUMP JUMPDEST PUSH0 DUP3 DUP3 MSTORE PUSH1 0x20 DUP3 ADD SWAP1 POP SWAP3 SWAP2 POP POP JUMP JUMPDEST PUSH32 0x416C726561647920726570616964000000000000000000000000000000000000 PUSH0 DUP3 ADD MSTORE POP JUMP JUMPDEST PUSH0 PUSH2 0xD15 PUSH1 0xE DUP4 PUSH2 0xCD1 JUMP JUMPDEST SWAP2 POP PUSH2 0xD20 DUP3 PUSH2 0xCE1 JUMP JUMPDEST PUSH1 0x20 DUP3 ADD SWAP1 POP SWAP2 SWAP1 POP JUMP JUMPDEST PUSH0 PUSH1 0x20 DUP3 ADD SWAP1 POP DUP2 DUP2 SUB PUSH0 DUP4 ADD MSTORE PUSH2 0xD42 DUP2 PUSH2 0xD09 JUMP JUMPDEST SWAP1 POP SWAP2 SWAP1 POP JUMP JUMPDEST PUSH32 0x4E6F7420626F72726F7765720000000000000000000000000000000000000000 PUSH0 DUP3 ADD MSTORE POP JUMP JUMPDEST PUSH0 PUSH2 0xD7D PUSH1 0xC DUP4 PUSH2 0xCD1 JUMP JUMPDEST SWAP2 POP PUSH2 0xD88 DUP3 PUSH2 0xD49 JUMP JUMPDEST PUSH1 0x20 DUP3 ADD SWAP1 POP SWAP2 SWAP1 POP JUMP JUMPDEST PUSH0 PUSH1 0x20 DUP3 ADD SWAP1 POP DUP2 DUP2 SUB PUSH0 DUP4 ADD MSTORE PUSH2 0xDAA DUP2 PUSH2 0xD71 JUMP JUMPDEST SWAP1 POP SWAP2 SWAP1 POP JUMP JUMPDEST PUSH32 0x496E73756666696369656E742072657061790000000000000000000000000000 PUSH0 DUP3 ADD MSTORE POP JUMP JUMPDEST PUSH0 PUSH2 0xDE5 PUSH1 0x12 DUP4 PUSH2 0xCD1 JUMP JUMPDEST SWAP2 POP PUSH2 0xDF0 DUP3 PUSH2 0xDB1 JUMP JUMPDEST PUSH1 0x20 DUP3 ADD SWAP1 POP SWAP2 SWAP1 POP JUMP JUMPDEST PUSH0 PUSH1 0x20 DUP3 ADD SWAP1 POP DUP2 DUP2 SUB PUSH0 DUP4 ADD MSTORE PUSH2 0xE12 DUP2 PUSH2 0xDD9 JUMP JUMPDEST SWAP1 POP SWAP2 SWAP1 POP JUMP JUMPDEST PUSH0 PUSH1 0x60 DUP3 ADD SWAP1 POP PUSH2 0xE2C PUSH0 DUP4 ADD DUP7 PUSH2 0xB28 JUMP JUMPDEST PUSH2 0xE39 PUSH1 0x20 DUP4 ADD DUP6 PUSH2 0xB8E JUMP JUMPDEST PUSH2 0xE46 PUSH1 0x40 DUP4 ADD DUP5 PUSH2 0xB28 JUMP JUMPDEST SWAP5 SWAP4 POP POP POP POP JUMP JUMPDEST PUSH32 0x416D6F756E74206D757374206265203E20300000000000000000000000000000 PUSH0 DUP3 ADD MSTORE POP JUMP JUMPDEST PUSH0 PUSH2 0xE82 PUSH1 0x12 DUP4 PUSH2 0xCD1 JUMP JUMPDEST SWAP2 POP PUSH2 0xE8D DUP3 PUSH2 0xE4E JUMP JUMPDEST PUSH1 0x20 DUP3 ADD SWAP1 POP SWAP2 SWAP1 POP JUMP JUMPDEST PUSH0 PUSH1 0x20 DUP3 ADD SWAP1 POP DUP2 DUP2 SUB PUSH0 DUP4 ADD MSTORE PUSH2 0xEAF DUP2 PUSH2 0xE76 JUMP JUMPDEST SWAP1 POP SWAP2 SWAP1 POP JUMP JUMPDEST PUSH0 PUSH1 0x60 DUP3 ADD SWAP1 POP PUSH2 0xEC9 PUSH0 DUP4 ADD DUP7 PUSH2 0xB8E JUMP JUMPDEST PUSH2 0xED6 PUSH1 0x20 DUP4 ADD DUP6 PUSH2 0xB8E JUMP JUMPDEST PUSH2 0xEE3 PUSH1 0x40 DUP4 ADD DUP5 PUSH2 0xB28 JUMP JUMPDEST SWAP5 SWAP4 POP POP POP POP JUMP INVALID LOG2 PUSH5 0x6970667358 0x22 SLT KECCAK256 TIMESTAMP 0xD4 ADD SWAP9 PUSH26 0x604E96EE93B83155F1673F35554B295A97525D9BB273213043C6 0xB0 PUSH5 0x736F6C6343 STOP ADDMOD ISZERO STOP CALLER "
				},
				"gasEstimates": {
					"creation": {
						"codeDepositCost": "774600",
						"executionCost": "infinite",
						"totalCost": "infinite"
					},
					"external": {
						"bhcToken()": "infinite",
						"createLoan(uint256)": "infinite",
						"getLoan(uint256)": "infinite",
						"loans(uint256)": "infinite",
						"nextLoanId()": "2470",
						"owner()": "2604",
						"renounceOwnership()": "infinite",
						"repayLoan(uint256,uint256)": "infinite",
						"transferOwnership(address)": "infinite",
						"vault()": "infinite"
					}
				},
				"methodIdentifiers": {
					"bhcToken()": "be81c529",
					"createLoan(uint256)": "9a4e8ecf",
					"getLoan(uint256)": "504006ca",
					"loans(uint256)": "e1ec3c68",
					"nextLoanId()": "87c51459",
					"owner()": "8da5cb5b",
					"renounceOwnership()": "715018a6",
					"repayLoan(uint256,uint256)": "8a700b53",
					"transferOwnership(address)": "f2fde38b",
					"vault()": "fbfa77cf"
				}
			},
			"storageLayout": {
				"storage": [
					{
						"astId": 8,
						"contract": "contracts/LoanManager.sol:LoanManager",
						"label": "_owner",
						"offset": 0,
						"slot": "0",
						"type": "t_address"
					},
					{
						"astId": 851,
						"contract": "contracts/LoanManager.sol:LoanManager",
						"label": "loans",
						"offset": 0,
						"slot": "1",
						"type": "t_mapping(t_uint256,t_struct(Loan)846_storage)"
					},
					{
						"astId": 853,
						"contract": "contracts/LoanManager.sol:LoanManager",
						"label": "nextLoanId",
						"offset": 0,
						"slot": "2",
						"type": "t_uint256"
					}
				],
				"types": {
					"t_address": {
						"encoding": "inplace",
						"label": "address",
						"numberOfBytes": "20"
					},
					"t_bool": {
						"encoding": "inplace",
						"label": "bool",
						"numberOfBytes": "1"
					},
					"t_mapping(t_uint256,t_struct(Loan)846_storage)": {
						"encoding": "mapping",
						"key": "t_uint256",
						"label": "mapping(uint256 => struct LoanManager.Loan)",
						"numberOfBytes": "32",
						"value": "t_struct(Loan)846_storage"
					},
					"t_struct(Loan)846_storage": {
						"encoding": "inplace",
						"label": "struct LoanManager.Loan",
						"members": [
							{
								"astId": 839,
								"contract": "contracts/LoanManager.sol:LoanManager",
								"label": "id",
								"offset": 0,
								"slot": "0",
								"type": "t_uint256"
							},
							{
								"astId": 841,
								"contract": "contracts/LoanManager.sol:LoanManager",
								"label": "borrower",
								"offset": 0,
								"slot": "1",
								"type": "t_address"
							},
							{
								"astId": 843,
								"contract": "contracts/LoanManager.sol:LoanManager",
								"label": "amount",
								"offset": 0,
								"slot": "2",
								"type": "t_uint256"
							},
							{
								"astId": 845,
								"contract": "contracts/LoanManager.sol:LoanManager",
								"label": "repaid",
								"offset": 0,
								"slot": "3",
								"type": "t_bool"
							}
						],
						"numberOfBytes": "128"
					},
					"t_uint256": {
						"encoding": "inplace",
						"label": "uint256",
						"numberOfBytes": "32"
					}
				}
			},
			"userdoc": {
				"kind": "user",
				"methods": {},
				"version": 1
			}
		}
	}
}