{
	"CoopTrust.sol": {
		"CoopTrust": {
			"abi": [
				{
					"inputs": [
						{
							"internalType": "address",
							"name": "_admin",
							"type": "address"
						}
					],
					"stateMutability": "nonpayable",
					"type": "constructor"
				},
				{
					"anonymous": false,
					"inputs": [
						{
							"indexed": true,
							"internalType": "uint256",
							"name": "user_id",
							"type": "uint256"
						},
						{
							"indexed": true,
							"internalType": "uint256",
							"name": "group_id",
							"type": "uint256"
						},
						{
							"indexed": false,
							"internalType": "uint256",
							"name": "score_x100",
							"type": "uint256"
						},
						{
							"indexed": false,
							"internalType": "uint256",
							"name": "timestamp",
							"type": "uint256"
						},
						{
							"indexed": false,
							"internalType": "string",
							"name": "note",
							"type": "string"
						}
					],
					"name": "TrustScoreUpdated",
					"type": "event"
				},
				{
					"inputs": [],
					"name": "admin",
					"outputs": [
						{
							"internalType": "address",
							"name": "",
							"type": "address"
						}
					],
					"stateMutability": "view",
					"type": "function"
				},
				{
					"inputs": [
						{
							"internalType": "uint256",
							"name": "user_id",
							"type": "uint256"
						},
						{
							"internalType": "uint256",
							"name": "group_id",
							"type": "uint256"
						},
						{
							"internalType": "uint256",
							"name": "score_x100",
							"type": "uint256"
						},
						{
							"internalType": "string",
							"name": "note",
							"type": "string"
						}
					],
					"name": "setTrustScore",
					"outputs": [],
					"stateMutability": "nonpayable",
					"type": "function"
				},
				{
					"inputs": [
						{
							"internalType": "address",
							"name": "_new",
							"type": "address"
						}
					],
					"name": "updateAdmin",
					"outputs": [],
					"stateMutability": "nonpayable",
					"type": "function"
				}
			],
			"devdoc": {
				"kind": "dev",
				"methods": {},
				"version": 1
			},
			"evm": {
				"assembly": "    /* \"CoopTrust.sol\":60:678  contract CoopTrust {... */\n  mstore(0x40, 0x80)\n    /* \"CoopTrust.sol\":327:374  constructor(address _admin) { admin = _admin; } */\n  callvalue\n  dup1\n  iszero\n  tag_1\n  jumpi\n  revert(0x00, 0x00)\ntag_1:\n  pop\n  mload(0x40)\n  sub(codesize, bytecodeSize)\n  dup1\n  bytecodeSize\n  dup4\n  codecopy\n  dup2\n  dup2\n  add\n  0x40\n  mstore\n  dup2\n  add\n  swap1\n  tag_2\n  swap2\n  swap1\n  tag_3\n  jump\t// in\ntag_2:\n    /* \"CoopTrust.sol\":365:371  _admin */\n  dup1\n    /* \"CoopTrust.sol\":357:362  admin */\n  0x00\n  0x00\n    /* \"CoopTrust.sol\":357:371  admin = _admin */\n  0x0100\n  exp\n  dup2\n  sload\n  dup2\n  0xffffffffffffffffffffffffffffffffffffffff\n  mul\n  not\n  and\n  swap1\n  dup4\n  0xffffffffffffffffffffffffffffffffffffffff\n  and\n  mul\n  or\n  swap1\n  sstore\n  pop\n    /* \"CoopTrust.sol\":327:374  constructor(address _admin) { admin = _admin; } */\n  pop\n    /* \"CoopTrust.sol\":60:678  contract CoopTrust {... */\n  jump(tag_6)\n    /* \"#utility.yul\":88:205   */\ntag_8:\n    /* \"#utility.yul\":197:198   */\n  0x00\n    /* \"#utility.yul\":194:195   */\n  0x00\n    /* \"#utility.yul\":187:199   */\n  revert\n    /* \"#utility.yul\":334:460   */\ntag_10:\n    /* \"#utility.yul\":371:378   */\n  0x00\n    /* \"#utility.yul\":411:453   */\n  0xffffffffffffffffffffffffffffffffffffffff\n    /* \"#utility.yul\":404:409   */\n  dup3\n    /* \"#utility.yul\":400:454   */\n  and\n    /* \"#utility.yul\":389:454   */\n  swap1\n  pop\n    /* \"#utility.yul\":334:460   */\n  swap2\n  swap1\n  pop\n  jump\t// out\n    /* \"#utility.yul\":466:562   */\ntag_11:\n    /* \"#utility.yul\":503:510   */\n  0x00\n    /* \"#utility.yul\":532:556   */\n  tag_20\n    /* \"#utility.yul\":550:555   */\n  dup3\n    /* \"#utility.yul\":532:556   */\n  tag_10\n  jump\t// in\ntag_20:\n    /* \"#utility.yul\":521:556   */\n  swap1\n  pop\n    /* \"#utility.yul\":466:562   */\n  swap2\n  swap1\n  pop\n  jump\t// out\n    /* \"#utility.yul\":568:690   */\ntag_12:\n    /* \"#utility.yul\":641:665   */\n  tag_22\n    /* \"#utility.yul\":659:664   */\n  dup2\n    /* \"#utility.yul\":641:665   */\n  tag_11\n  jump\t// in\ntag_22:\n    /* \"#utility.yul\":634:639   */\n  dup2\n    /* \"#utility.yul\":631:666   */\n  eq\n    /* \"#utility.yul\":621:684   */\n  tag_23\n  jumpi\n    /* \"#utility.yul\":680:681   */\n  0x00\n    /* \"#utility.yul\":677:678   */\n  0x00\n    /* \"#utility.yul\":670:682   */\n  revert\n    /* \"#utility.yul\":621:684   */\ntag_23:\n    /* \"#utility.yul\":568:690   */\n  pop\n  jump\t// out\n    /* \"#utility.yul\":696:839   */\ntag_13:\n    /* \"#utility.yul\":753:758   */\n  0x00\n    /* \"#utility.yul\":784:790   */\n  dup2\n    /* \"#utility.yul\":778:791   */\n  mload\n    /* \"#utility.yul\":769:791   */\n  swap1\n  pop\n    /* \"#utility.yul\":800:833   */\n  tag_25\n    /* \"#utility.yul\":827:832   */\n  dup2\n    /* \"#utility.yul\":800:833   */\n  tag_12\n  jump\t// in\ntag_25:\n    /* \"#utility.yul\":696:839   */\n  swap3\n  swap2\n  pop\n  pop\n  jump\t// out\n    /* \"#utility.yul\":845:1196   */\ntag_3:\n    /* \"#utility.yul\":915:921   */\n  0x00\n    /* \"#utility.yul\":964:966   */\n  0x20\n    /* \"#utility.yul\":952:961   */\n  dup3\n    /* \"#utility.yul\":943:950   */\n  dup5\n    /* \"#utility.yul\":939:962   */\n  sub\n    /* \"#utility.yul\":935:967   */\n  slt\n    /* \"#utility.yul\":932:1051   */\n  iszero\n  tag_27\n  jumpi\n    /* \"#utility.yul\":970:1049   */\n  tag_28\n  tag_8\n  jump\t// in\ntag_28:\n    /* \"#utility.yul\":932:1051   */\ntag_27:\n    /* \"#utility.yul\":1090:1091   */\n  0x00\n    /* \"#utility.yul\":1115:1179   */\n  tag_29\n    /* \"#utility.yul\":1171:1178   */\n  dup5\n    /* \"#utility.yul\":1162:1168   */\n  dup3\n    /* \"#utility.yul\":1151:1160   */\n  dup6\n    /* \"#utility.yul\":1147:1169   */\n  add\n    /* \"#utility.yul\":1115:1179   */\n  tag_13\n  jump\t// in\ntag_29:\n    /* \"#utility.yul\":1105:1179   */\n  swap2\n  pop\n    /* \"#utility.yul\":1061:1189   */\n  pop\n    /* \"#utility.yul\":845:1196   */\n  swap3\n  swap2\n  pop\n  pop\n  jump\t// out\n    /* \"CoopTrust.sol\":60:678  contract CoopTrust {... */\ntag_6:\n  dataSize(sub_0)\n  dup1\n  dataOffset(sub_0)\n  0x00\n  codecopy\n  0x00\n  return\nstop\n\nsub_0: assembly {\n        /* \"CoopTrust.sol\":60:678  contract CoopTrust {... */\n      mstore(0x40, 0x80)\n      callvalue\n      dup1\n      iszero\n      tag_1\n      jumpi\n      revert(0x00, 0x00)\n    tag_1:\n      pop\n      jumpi(tag_2, lt(calldatasize, 0x04))\n      shr(0xe0, calldataload(0x00))\n      dup1\n      0xb6e9eb67\n      eq\n      tag_3\n      jumpi\n      dup1\n      0xe2f273bd\n      eq\n      tag_4\n      jumpi\n      dup1\n      0xf851a440\n      eq\n      tag_5\n      jumpi\n    tag_2:\n      revert(0x00, 0x00)\n        /* \"CoopTrust.sol\":382:596  function setTrustScore(uint256 user_id, uint256 group_id, uint256 score_x100, string calldata note) external onlyAdmin {... */\n    tag_3:\n      tag_6\n      0x04\n      dup1\n      calldatasize\n      sub\n      dup2\n      add\n      swap1\n      tag_7\n      swap2\n      swap1\n      tag_8\n      jump\t// in\n    tag_7:\n      tag_9\n      jump\t// in\n    tag_6:\n      stop\n        /* \"CoopTrust.sol\":604:675  function updateAdmin(address _new) external onlyAdmin { admin = _new; } */\n    tag_4:\n      tag_10\n      0x04\n      dup1\n      calldatasize\n      sub\n      dup2\n      add\n      swap1\n      tag_11\n      swap2\n      swap1\n      tag_12\n      jump\t// in\n    tag_11:\n      tag_13\n      jump\t// in\n    tag_10:\n      stop\n        /* \"CoopTrust.sol\":86:106  address public admin */\n    tag_5:\n      tag_14\n      tag_15\n      jump\t// in\n    tag_14:\n      mload(0x40)\n      tag_16\n      swap2\n      swap1\n      tag_17\n      jump\t// in\n    tag_16:\n      mload(0x40)\n      dup1\n      swap2\n      sub\n      swap1\n      return\n        /* \"CoopTrust.sol\":382:596  function setTrustScore(uint256 user_id, uint256 group_id, uint256 score_x100, string calldata note) external onlyAdmin {... */\n    tag_9:\n        /* \"CoopTrust.sol\":293:298  admin */\n      0x00\n      0x00\n      swap1\n      sload\n      swap1\n      0x0100\n      exp\n      swap1\n      div\n      0xffffffffffffffffffffffffffffffffffffffff\n      and\n        /* \"CoopTrust.sol\":279:298  msg.sender == admin */\n      0xffffffffffffffffffffffffffffffffffffffff\n      and\n        /* \"CoopTrust.sol\":279:289  msg.sender */\n      caller\n        /* \"CoopTrust.sol\":279:298  msg.sender == admin */\n      0xffffffffffffffffffffffffffffffffffffffff\n      and\n      eq\n        /* \"CoopTrust.sol\":271:313  require(msg.sender == admin, \"only admin\") */\n      tag_19\n      jumpi\n      mload(0x40)\n      0x08c379a000000000000000000000000000000000000000000000000000000000\n      dup2\n      mstore\n      0x04\n      add\n      tag_20\n      swap1\n      tag_21\n      jump\t// in\n    tag_20:\n      mload(0x40)\n      dup1\n      swap2\n      sub\n      swap1\n      revert\n    tag_19:\n        /* \"CoopTrust.sol\":544:552  group_id */\n      dup4\n        /* \"CoopTrust.sol\":535:542  user_id */\n      dup6\n        /* \"CoopTrust.sol\":517:588  TrustScoreUpdated(user_id, group_id, score_x100, block.timestamp, note) */\n      0x16d809a57f6d03ac9738ebb419b69cc646f30ccd96ca9e61ef61207a6076f03c\n        /* \"CoopTrust.sol\":554:564  score_x100 */\n      dup6\n        /* \"CoopTrust.sol\":566:581  block.timestamp */\n      timestamp\n        /* \"CoopTrust.sol\":583:587  note */\n      dup7\n      dup7\n        /* \"CoopTrust.sol\":517:588  TrustScoreUpdated(user_id, group_id, score_x100, block.timestamp, note) */\n      mload(0x40)\n      tag_23\n      swap5\n      swap4\n      swap3\n      swap2\n      swap1\n      tag_24\n      jump\t// in\n    tag_23:\n      mload(0x40)\n      dup1\n      swap2\n      sub\n      swap1\n      log3\n        /* \"CoopTrust.sol\":382:596  function setTrustScore(uint256 user_id, uint256 group_id, uint256 score_x100, string calldata note) external onlyAdmin {... */\n      pop\n      pop\n      pop\n      pop\n      pop\n      jump\t// out\n        /* \"CoopTrust.sol\":604:675  function updateAdmin(address _new) external onlyAdmin { admin = _new; } */\n    tag_13:\n        /* \"CoopTrust.sol\":293:298  admin */\n      0x00\n      0x00\n      swap1\n      sload\n      swap1\n      0x0100\n      exp\n      swap1\n      div\n      0xffffffffffffffffffffffffffffffffffffffff\n      and\n        /* \"CoopTrust.sol\":279:298  msg.sender == admin */\n      0xffffffffffffffffffffffffffffffffffffffff\n      and\n        /* \"CoopTrust.sol\":279:289  msg.sender */\n      caller\n        /* \"CoopTrust.sol\":279:298  msg.sender == admin */\n      0xffffffffffffffffffffffffffffffffffffffff\n      and\n      eq\n        /* \"CoopTrust.sol\":271:313  require(msg.sender == admin, \"only admin\") */\n      tag_26\n      jumpi\n      mload(0x40)\n      0x08c379a000000000000000000000000000000000000000000000000000000000\n      dup2\n      mstore\n      0x04\n      add\n      tag_27\n      swap1\n      tag_21\n      jump\t// in\n    tag_27:\n      mload(0x40)\n      dup1\n      swap2\n      sub\n      swap1\n      revert\n    tag_26:\n        /* \"CoopTrust.sol\":668:672  _new */\n      dup1\n        /* \"CoopTrust.sol\":660:665  admin */\n      0x00\n      0x00\n        /* \"CoopTrust.sol\":660:672  admin = _new */\n      0x0100\n      exp\n      dup2\n      sload\n      dup2\n      0xffffffffffffffffffffffffffffffffffffffff\n      mul\n      not\n      and\n      swap1\n      dup4\n      0xffffffffffffffffffffffffffffffffffffffff\n      and\n      mul\n      or\n      swap1\n      sstore\n      pop\n        /* \"CoopTrust.sol\":604:675  function updateAdmin(address _new) external onlyAdmin { admin = _new; } */\n      pop\n      jump\t// out\n        /* \"CoopTrust.sol\":86:106  address public admin */\n    tag_15:\n      0x00\n      0x00\n      swap1\n      sload\n      swap1\n      0x0100\n      exp\n      swap1\n      div\n      0xffffffffffffffffffffffffffffffffffffffff\n      and\n      dup2\n      jump\t// out\n        /* \"#utility.yul\":88:205   */\n    tag_30:\n        /* \"#utility.yul\":197:198   */\n      0x00\n        /* \"#utility.yul\":194:195   */\n      0x00\n        /* \"#utility.yul\":187:199   */\n      revert\n        /* \"#utility.yul\":211:328   */\n    tag_31:\n        /* \"#utility.yul\":320:321   */\n      0x00\n        /* \"#utility.yul\":317:318   */\n      0x00\n        /* \"#utility.yul\":310:322   */\n      revert\n        /* \"#utility.yul\":334:411   */\n    tag_32:\n        /* \"#utility.yul\":371:378   */\n      0x00\n        /* \"#utility.yul\":400:405   */\n      dup2\n        /* \"#utility.yul\":389:405   */\n      swap1\n      pop\n        /* \"#utility.yul\":334:411   */\n      swap2\n      swap1\n      pop\n      jump\t// out\n        /* \"#utility.yul\":417:539   */\n    tag_33:\n        /* \"#utility.yul\":490:514   */\n      tag_57\n        /* \"#utility.yul\":508:513   */\n      dup2\n        /* \"#utility.yul\":490:514   */\n      tag_32\n      jump\t// in\n    tag_57:\n        /* \"#utility.yul\":483:488   */\n      dup2\n        /* \"#utility.yul\":480:515   */\n      eq\n        /* \"#utility.yul\":470:533   */\n      tag_58\n      jumpi\n        /* \"#utility.yul\":529:530   */\n      0x00\n        /* \"#utility.yul\":526:527   */\n      0x00\n        /* \"#utility.yul\":519:531   */\n      revert\n        /* \"#utility.yul\":470:533   */\n    tag_58:\n        /* \"#utility.yul\":417:539   */\n      pop\n      jump\t// out\n        /* \"#utility.yul\":545:684   */\n    tag_34:\n        /* \"#utility.yul\":591:596   */\n      0x00\n        /* \"#utility.yul\":629:635   */\n      dup2\n        /* \"#utility.yul\":616:636   */\n      calldataload\n        /* \"#utility.yul\":607:636   */\n      swap1\n      pop\n        /* \"#utility.yul\":645:678   */\n      tag_60\n        /* \"#utility.yul\":672:677   */\n      dup2\n        /* \"#utility.yul\":645:678   */\n      tag_33\n      jump\t// in\n    tag_60:\n        /* \"#utility.yul\":545:684   */\n      swap3\n      swap2\n      pop\n      pop\n      jump\t// out\n        /* \"#utility.yul\":690:807   */\n    tag_35:\n        /* \"#utility.yul\":799:800   */\n      0x00\n        /* \"#utility.yul\":796:797   */\n      0x00\n        /* \"#utility.yul\":789:801   */\n      revert\n        /* \"#utility.yul\":813:930   */\n    tag_36:\n        /* \"#utility.yul\":922:923   */\n      0x00\n        /* \"#utility.yul\":919:920   */\n      0x00\n        /* \"#utility.yul\":912:924   */\n      revert\n        /* \"#utility.yul\":936:1053   */\n    tag_37:\n        /* \"#utility.yul\":1045:1046   */\n      0x00\n        /* \"#utility.yul\":1042:1043   */\n      0x00\n        /* \"#utility.yul\":1035:1047   */\n      revert\n        /* \"#utility.yul\":1073:1626   */\n    tag_38:\n        /* \"#utility.yul\":1131:1139   */\n      0x00\n        /* \"#utility.yul\":1141:1147   */\n      0x00\n        /* \"#utility.yul\":1191:1194   */\n      dup4\n        /* \"#utility.yul\":1184:1188   */\n      0x1f\n        /* \"#utility.yul\":1176:1182   */\n      dup5\n        /* \"#utility.yul\":1172:1189   */\n      add\n        /* \"#utility.yul\":1168:1195   */\n      slt\n        /* \"#utility.yul\":1158:1280   */\n      tag_65\n      jumpi\n        /* \"#utility.yul\":1199:1278   */\n      tag_66\n      tag_35\n      jump\t// in\n    tag_66:\n        /* \"#utility.yul\":1158:1280   */\n    tag_65:\n        /* \"#utility.yul\":1312:1318   */\n      dup3\n        /* \"#utility.yul\":1299:1319   */\n      calldataload\n        /* \"#utility.yul\":1289:1319   */\n      swap1\n      pop\n        /* \"#utility.yul\":1342:1360   */\n      0xffffffffffffffff\n        /* \"#utility.yul\":1334:1340   */\n      dup2\n        /* \"#utility.yul\":1331:1361   */\n      gt\n        /* \"#utility.yul\":1328:1445   */\n      iszero\n      tag_67\n      jumpi\n        /* \"#utility.yul\":1364:1443   */\n      tag_68\n      tag_36\n      jump\t// in\n    tag_68:\n        /* \"#utility.yul\":1328:1445   */\n    tag_67:\n        /* \"#utility.yul\":1478:1482   */\n      0x20\n        /* \"#utility.yul\":1470:1476   */\n      dup4\n        /* \"#utility.yul\":1466:1483   */\n      add\n        /* \"#utility.yul\":1454:1483   */\n      swap2\n      pop\n        /* \"#utility.yul\":1532:1535   */\n      dup4\n        /* \"#utility.yul\":1524:1528   */\n      0x01\n        /* \"#utility.yul\":1516:1522   */\n      dup3\n        /* \"#utility.yul\":1512:1529   */\n      mul\n        /* \"#utility.yul\":1502:1510   */\n      dup4\n        /* \"#utility.yul\":1498:1530   */\n      add\n        /* \"#utility.yul\":1495:1536   */\n      gt\n        /* \"#utility.yul\":1492:1620   */\n      iszero\n      tag_69\n      jumpi\n        /* \"#utility.yul\":1539:1618   */\n      tag_70\n      tag_37\n      jump\t// in\n    tag_70:\n        /* \"#utility.yul\":1492:1620   */\n    tag_69:\n        /* \"#utility.yul\":1073:1626   */\n      swap3\n      pop\n      swap3\n      swap1\n      pop\n      jump\t// out\n        /* \"#utility.yul\":1632:2597   */\n    tag_8:\n        /* \"#utility.yul\":1730:1736   */\n      0x00\n        /* \"#utility.yul\":1738:1744   */\n      0x00\n        /* \"#utility.yul\":1746:1752   */\n      0x00\n        /* \"#utility.yul\":1754:1760   */\n      0x00\n        /* \"#utility.yul\":1762:1768   */\n      0x00\n        /* \"#utility.yul\":1811:1814   */\n      0x80\n        /* \"#utility.yul\":1799:1808   */\n      dup7\n        /* \"#utility.yul\":1790:1797   */\n      dup9\n        /* \"#utility.yul\":1786:1809   */\n      sub\n        /* \"#utility.yul\":1782:1815   */\n      slt\n        /* \"#utility.yul\":1779:1899   */\n      iszero\n      tag_72\n      jumpi\n        /* \"#utility.yul\":1818:1897   */\n      tag_73\n      tag_30\n      jump\t// in\n    tag_73:\n        /* \"#utility.yul\":1779:1899   */\n    tag_72:\n        /* \"#utility.yul\":1938:1939   */\n      0x00\n        /* \"#utility.yul\":1963:2016   */\n      tag_74\n        /* \"#utility.yul\":2008:2015   */\n      dup9\n        /* \"#utility.yul\":1999:2005   */\n      dup3\n        /* \"#utility.yul\":1988:1997   */\n      dup10\n        /* \"#utility.yul\":1984:2006   */\n      add\n        /* \"#utility.yul\":1963:2016   */\n      tag_34\n      jump\t// in\n    tag_74:\n        /* \"#utility.yul\":1953:2016   */\n      swap6\n      pop\n        /* \"#utility.yul\":1909:2026   */\n      pop\n        /* \"#utility.yul\":2065:2067   */\n      0x20\n        /* \"#utility.yul\":2091:2144   */\n      tag_75\n        /* \"#utility.yul\":2136:2143   */\n      dup9\n        /* \"#utility.yul\":2127:2133   */\n      dup3\n        /* \"#utility.yul\":2116:2125   */\n      dup10\n        /* \"#utility.yul\":2112:2134   */\n      add\n        /* \"#utility.yul\":2091:2144   */\n      tag_34\n      jump\t// in\n    tag_75:\n        /* \"#utility.yul\":2081:2144   */\n      swap5\n      pop\n        /* \"#utility.yul\":2036:2154   */\n      pop\n        /* \"#utility.yul\":2193:2195   */\n      0x40\n        /* \"#utility.yul\":2219:2272   */\n      tag_76\n        /* \"#utility.yul\":2264:2271   */\n      dup9\n        /* \"#utility.yul\":2255:2261   */\n      dup3\n        /* \"#utility.yul\":2244:2253   */\n      dup10\n        /* \"#utility.yul\":2240:2262   */\n      add\n        /* \"#utility.yul\":2219:2272   */\n      tag_34\n      jump\t// in\n    tag_76:\n        /* \"#utility.yul\":2209:2272   */\n      swap4\n      pop\n        /* \"#utility.yul\":2164:2282   */\n      pop\n        /* \"#utility.yul\":2349:2351   */\n      0x60\n        /* \"#utility.yul\":2338:2347   */\n      dup7\n        /* \"#utility.yul\":2334:2352   */\n      add\n        /* \"#utility.yul\":2321:2353   */\n      calldataload\n        /* \"#utility.yul\":2380:2398   */\n      0xffffffffffffffff\n        /* \"#utility.yul\":2372:2378   */\n      dup2\n        /* \"#utility.yul\":2369:2399   */\n      gt\n        /* \"#utility.yul\":2366:2483   */\n      iszero\n      tag_77\n      jumpi\n        /* \"#utility.yul\":2402:2481   */\n      tag_78\n      tag_31\n      jump\t// in\n    tag_78:\n        /* \"#utility.yul\":2366:2483   */\n    tag_77:\n        /* \"#utility.yul\":2515:2580   */\n      tag_79\n        /* \"#utility.yul\":2572:2579   */\n      dup9\n        /* \"#utility.yul\":2563:2569   */\n      dup3\n        /* \"#utility.yul\":2552:2561   */\n      dup10\n        /* \"#utility.yul\":2548:2570   */\n      add\n        /* \"#utility.yul\":2515:2580   */\n      tag_38\n      jump\t// in\n    tag_79:\n        /* \"#utility.yul\":2497:2580   */\n      swap3\n      pop\n      swap3\n      pop\n        /* \"#utility.yul\":2292:2590   */\n      pop\n        /* \"#utility.yul\":1632:2597   */\n      swap3\n      swap6\n      pop\n      swap3\n      swap6\n      swap1\n      swap4\n      pop\n      jump\t// out\n        /* \"#utility.yul\":2603:2729   */\n    tag_39:\n        /* \"#utility.yul\":2640:2647   */\n      0x00\n        /* \"#utility.yul\":2680:2722   */\n      0xffffffffffffffffffffffffffffffffffffffff\n        /* \"#utility.yul\":2673:2678   */\n      dup3\n        /* \"#utility.yul\":2669:2723   */\n      and\n        /* \"#utility.yul\":2658:2723   */\n      swap1\n      pop\n        /* \"#utility.yul\":2603:2729   */\n      swap2\n      swap1\n      pop\n      jump\t// out\n        /* \"#utility.yul\":2735:2831   */\n    tag_40:\n        /* \"#utility.yul\":2772:2779   */\n      0x00\n        /* \"#utility.yul\":2801:2825   */\n      tag_82\n        /* \"#utility.yul\":2819:2824   */\n      dup3\n        /* \"#utility.yul\":2801:2825   */\n      tag_39\n      jump\t// in\n    tag_82:\n        /* \"#utility.yul\":2790:2825   */\n      swap1\n      pop\n        /* \"#utility.yul\":2735:2831   */\n      swap2\n      swap1\n      pop\n      jump\t// out\n        /* \"#utility.yul\":2837:2959   */\n    tag_41:\n        /* \"#utility.yul\":2910:2934   */\n      tag_84\n        /* \"#utility.yul\":2928:2933   */\n      dup2\n        /* \"#utility.yul\":2910:2934   */\n      tag_40\n      jump\t// in\n    tag_84:\n        /* \"#utility.yul\":2903:2908   */\n      dup2\n        /* \"#utility.yul\":2900:2935   */\n      eq\n        /* \"#utility.yul\":2890:2953   */\n      tag_85\n      jumpi\n        /* \"#utility.yul\":2949:2950   */\n      0x00\n        /* \"#utility.yul\":2946:2947   */\n      0x00\n        /* \"#utility.yul\":2939:2951   */\n      revert\n        /* \"#utility.yul\":2890:2953   */\n    tag_85:\n        /* \"#utility.yul\":2837:2959   */\n      pop\n      jump\t// out\n        /* \"#utility.yul\":2965:3104   */\n    tag_42:\n        /* \"#utility.yul\":3011:3016   */\n      0x00\n        /* \"#utility.yul\":3049:3055   */\n      dup2\n        /* \"#utility.yul\":3036:3056   */\n      calldataload\n        /* \"#utility.yul\":3027:3056   */\n      swap1\n      pop\n        /* \"#utility.yul\":3065:3098   */\n      tag_87\n        /* \"#utility.yul\":3092:3097   */\n      dup2\n        /* \"#utility.yul\":3065:3098   */\n      tag_41\n      jump\t// in\n    tag_87:\n        /* \"#utility.yul\":2965:3104   */\n      swap3\n      swap2\n      pop\n      pop\n      jump\t// out\n        /* \"#utility.yul\":3110:3439   */\n    tag_12:\n        /* \"#utility.yul\":3169:3175   */\n      0x00\n        /* \"#utility.yul\":3218:3220   */\n      0x20\n        /* \"#utility.yul\":3206:3215   */\n      dup3\n        /* \"#utility.yul\":3197:3204   */\n      dup5\n        /* \"#utility.yul\":3193:3216   */\n      sub\n        /* \"#utility.yul\":3189:3221   */\n      slt\n        /* \"#utility.yul\":3186:3305   */\n      iszero\n      tag_89\n      jumpi\n        /* \"#utility.yul\":3224:3303   */\n      tag_90\n      tag_30\n      jump\t// in\n    tag_90:\n        /* \"#utility.yul\":3186:3305   */\n    tag_89:\n        /* \"#utility.yul\":3344:3345   */\n      0x00\n        /* \"#utility.yul\":3369:3422   */\n      tag_91\n        /* \"#utility.yul\":3414:3421   */\n      dup5\n        /* \"#utility.yul\":3405:3411   */\n      dup3\n        /* \"#utility.yul\":3394:3403   */\n      dup6\n        /* \"#utility.yul\":3390:3412   */\n      add\n        /* \"#utility.yul\":3369:3422   */\n      tag_42\n      jump\t// in\n    tag_91:\n        /* \"#utility.yul\":3359:3422   */\n      swap2\n      pop\n        /* \"#utility.yul\":3315:3432   */\n      pop\n        /* \"#utility.yul\":3110:3439   */\n      swap3\n      swap2\n      pop\n      pop\n      jump\t// out\n        /* \"#utility.yul\":3445:3563   */\n    tag_43:\n        /* \"#utility.yul\":3532:3556   */\n      tag_93\n        /* \"#utility.yul\":3550:3555   */\n      dup2\n        /* \"#utility.yul\":3532:3556   */\n      tag_40\n      jump\t// in\n    tag_93:\n        /* \"#utility.yul\":3527:3530   */\n      dup3\n        /* \"#utility.yul\":3520:3557   */\n      mstore\n        /* \"#utility.yul\":3445:3563   */\n      pop\n      pop\n      jump\t// out\n        /* \"#utility.yul\":3569:3791   */\n    tag_17:\n        /* \"#utility.yul\":3662:3666   */\n      0x00\n        /* \"#utility.yul\":3700:3702   */\n      0x20\n        /* \"#utility.yul\":3689:3698   */\n      dup3\n        /* \"#utility.yul\":3685:3703   */\n      add\n        /* \"#utility.yul\":3677:3703   */\n      swap1\n      pop\n        /* \"#utility.yul\":3713:3784   */\n      tag_95\n        /* \"#utility.yul\":3781:3782   */\n      0x00\n        /* \"#utility.yul\":3770:3779   */\n      dup4\n        /* \"#utility.yul\":3766:3783   */\n      add\n        /* \"#utility.yul\":3757:3763   */\n      dup5\n        /* \"#utility.yul\":3713:3784   */\n      tag_43\n      jump\t// in\n    tag_95:\n        /* \"#utility.yul\":3569:3791   */\n      swap3\n      swap2\n      pop\n      pop\n      jump\t// out\n        /* \"#utility.yul\":3797:3966   */\n    tag_44:\n        /* \"#utility.yul\":3881:3892   */\n      0x00\n        /* \"#utility.yul\":3915:3921   */\n      dup3\n        /* \"#utility.yul\":3910:3913   */\n      dup3\n        /* \"#utility.yul\":3903:3922   */\n      mstore\n        /* \"#utility.yul\":3955:3959   */\n      0x20\n        /* \"#utility.yul\":3950:3953   */\n      dup3\n        /* \"#utility.yul\":3946:3960   */\n      add\n        /* \"#utility.yul\":3931:3960   */\n      swap1\n      pop\n        /* \"#utility.yul\":3797:3966   */\n      swap3\n      swap2\n      pop\n      pop\n      jump\t// out\n        /* \"#utility.yul\":3972:4132   */\n    tag_45:\n        /* \"#utility.yul\":4112:4124   */\n      0x6f6e6c792061646d696e00000000000000000000000000000000000000000000\n        /* \"#utility.yul\":4108:4109   */\n      0x00\n        /* \"#utility.yul\":4100:4106   */\n      dup3\n        /* \"#utility.yul\":4096:4110   */\n      add\n        /* \"#utility.yul\":4089:4125   */\n      mstore\n        /* \"#utility.yul\":3972:4132   */\n      pop\n      jump\t// out\n        /* \"#utility.yul\":4138:4504   */\n    tag_46:\n        /* \"#utility.yul\":4280:4283   */\n      0x00\n        /* \"#utility.yul\":4301:4368   */\n      tag_99\n        /* \"#utility.yul\":4365:4367   */\n      0x0a\n        /* \"#utility.yul\":4360:4363   */\n      dup4\n        /* \"#utility.yul\":4301:4368   */\n      tag_44\n      jump\t// in\n    tag_99:\n        /* \"#utility.yul\":4294:4368   */\n      swap2\n      pop\n        /* \"#utility.yul\":4377:4470   */\n      tag_100\n        /* \"#utility.yul\":4466:4469   */\n      dup3\n        /* \"#utility.yul\":4377:4470   */\n      tag_45\n      jump\t// in\n    tag_100:\n        /* \"#utility.yul\":4495:4497   */\n      0x20\n        /* \"#utility.yul\":4490:4493   */\n      dup3\n        /* \"#utility.yul\":4486:4498   */\n      add\n        /* \"#utility.yul\":4479:4498   */\n      swap1\n      pop\n        /* \"#utility.yul\":4138:4504   */\n      swap2\n      swap1\n      pop\n      jump\t// out\n        /* \"#utility.yul\":4510:4929   */\n    tag_21:\n        /* \"#utility.yul\":4676:4680   */\n      0x00\n        /* \"#utility.yul\":4714:4716   */\n      0x20\n        /* \"#utility.yul\":4703:4712   */\n      dup3\n        /* \"#utility.yul\":4699:4717   */\n      add\n        /* \"#utility.yul\":4691:4717   */\n      swap1\n      pop\n        /* \"#utility.yul\":4763:4772   */\n      dup2\n        /* \"#utility.yul\":4757:4761   */\n      dup2\n        /* \"#utility.yul\":4753:4773   */\n      sub\n        /* \"#utility.yul\":4749:4750   */\n      0x00\n        /* \"#utility.yul\":4738:4747   */\n      dup4\n        /* \"#utility.yul\":4734:4751   */\n      add\n        /* \"#utility.yul\":4727:4774   */\n      mstore\n        /* \"#utility.yul\":4791:4922   */\n      tag_102\n        /* \"#utility.yul\":4917:4921   */\n      dup2\n        /* \"#utility.yul\":4791:4922   */\n      tag_46\n      jump\t// in\n    tag_102:\n        /* \"#utility.yul\":4783:4922   */\n      swap1\n      pop\n        /* \"#utility.yul\":4510:4929   */\n      swap2\n      swap1\n      pop\n      jump\t// out\n        /* \"#utility.yul\":4935:5053   */\n    tag_47:\n        /* \"#utility.yul\":5022:5046   */\n      tag_104\n        /* \"#utility.yul\":5040:5045   */\n      dup2\n        /* \"#utility.yul\":5022:5046   */\n      tag_32\n      jump\t// in\n    tag_104:\n        /* \"#utility.yul\":5017:5020   */\n      dup3\n        /* \"#utility.yul\":5010:5047   */\n      mstore\n        /* \"#utility.yul\":4935:5053   */\n      pop\n      pop\n      jump\t// out\n        /* \"#utility.yul\":5059:5207   */\n    tag_48:\n        /* \"#utility.yul\":5157:5163   */\n      dup3\n        /* \"#utility.yul\":5152:5155   */\n      dup2\n        /* \"#utility.yul\":5147:5150   */\n      dup4\n        /* \"#utility.yul\":5134:5164   */\n      calldatacopy\n        /* \"#utility.yul\":5198:5199   */\n      0x00\n        /* \"#utility.yul\":5189:5195   */\n      dup4\n        /* \"#utility.yul\":5184:5187   */\n      dup4\n        /* \"#utility.yul\":5180:5196   */\n      add\n        /* \"#utility.yul\":5173:5200   */\n      mstore\n        /* \"#utility.yul\":5059:5207   */\n      pop\n      pop\n      pop\n      jump\t// out\n        /* \"#utility.yul\":5213:5315   */\n    tag_49:\n        /* \"#utility.yul\":5254:5260   */\n      0x00\n        /* \"#utility.yul\":5305:5307   */\n      0x1f\n        /* \"#utility.yul\":5301:5308   */\n      not\n        /* \"#utility.yul\":5296:5298   */\n      0x1f\n        /* \"#utility.yul\":5289:5294   */\n      dup4\n        /* \"#utility.yul\":5285:5299   */\n      add\n        /* \"#utility.yul\":5281:5309   */\n      and\n        /* \"#utility.yul\":5271:5309   */\n      swap1\n      pop\n        /* \"#utility.yul\":5213:5315   */\n      swap2\n      swap1\n      pop\n      jump\t// out\n        /* \"#utility.yul\":5345:5662   */\n    tag_50:\n        /* \"#utility.yul\":5443:5446   */\n      0x00\n        /* \"#utility.yul\":5464:5535   */\n      tag_108\n        /* \"#utility.yul\":5528:5534   */\n      dup4\n        /* \"#utility.yul\":5523:5526   */\n      dup6\n        /* \"#utility.yul\":5464:5535   */\n      tag_44\n      jump\t// in\n    tag_108:\n        /* \"#utility.yul\":5457:5535   */\n      swap4\n      pop\n        /* \"#utility.yul\":5545:5601   */\n      tag_109\n        /* \"#utility.yul\":5594:5600   */\n      dup4\n        /* \"#utility.yul\":5589:5592   */\n      dup6\n        /* \"#utility.yul\":5582:5587   */\n      dup5\n        /* \"#utility.yul\":5545:5601   */\n      tag_48\n      jump\t// in\n    tag_109:\n        /* \"#utility.yul\":5626:5655   */\n      tag_110\n        /* \"#utility.yul\":5648:5654   */\n      dup4\n        /* \"#utility.yul\":5626:5655   */\n      tag_49\n      jump\t// in\n    tag_110:\n        /* \"#utility.yul\":5621:5624   */\n      dup5\n        /* \"#utility.yul\":5617:5656   */\n      add\n        /* \"#utility.yul\":5610:5656   */\n      swap1\n      pop\n        /* \"#utility.yul\":5345:5662   */\n      swap4\n      swap3\n      pop\n      pop\n      pop\n      jump\t// out\n        /* \"#utility.yul\":5668:6221   */\n    tag_24:\n        /* \"#utility.yul\":5847:5851   */\n      0x00\n        /* \"#utility.yul\":5885:5887   */\n      0x60\n        /* \"#utility.yul\":5874:5883   */\n      dup3\n        /* \"#utility.yul\":5870:5888   */\n      add\n        /* \"#utility.yul\":5862:5888   */\n      swap1\n      pop\n        /* \"#utility.yul\":5898:5969   */\n      tag_112\n        /* \"#utility.yul\":5966:5967   */\n      0x00\n        /* \"#utility.yul\":5955:5964   */\n      dup4\n        /* \"#utility.yul\":5951:5968   */\n      add\n        /* \"#utility.yul\":5942:5948   */\n      dup8\n        /* \"#utility.yul\":5898:5969   */\n      tag_47\n      jump\t// in\n    tag_112:\n        /* \"#utility.yul\":5979:6051   */\n      tag_113\n        /* \"#utility.yul\":6047:6049   */\n      0x20\n        /* \"#utility.yul\":6036:6045   */\n      dup4\n        /* \"#utility.yul\":6032:6050   */\n      add\n        /* \"#utility.yul\":6023:6029   */\n      dup7\n        /* \"#utility.yul\":5979:6051   */\n      tag_47\n      jump\t// in\n    tag_113:\n        /* \"#utility.yul\":6098:6107   */\n      dup2\n        /* \"#utility.yul\":6092:6096   */\n      dup2\n        /* \"#utility.yul\":6088:6108   */\n      sub\n        /* \"#utility.yul\":6083:6085   */\n      0x40\n        /* \"#utility.yul\":6072:6081   */\n      dup4\n        /* \"#utility.yul\":6068:6086   */\n      add\n        /* \"#utility.yul\":6061:6109   */\n      mstore\n        /* \"#utility.yul\":6126:6214   */\n      tag_114\n        /* \"#utility.yul\":6209:6213   */\n      dup2\n        /* \"#utility.yul\":6200:6206   */\n      dup5\n        /* \"#utility.yul\":6192:6198   */\n      dup7\n        /* \"#utility.yul\":6126:6214   */\n      tag_50\n      jump\t// in\n    tag_114:\n        /* \"#utility.yul\":6118:6214   */\n      swap1\n      pop\n        /* \"#utility.yul\":5668:6221   */\n      swap6\n      swap5\n      pop\n      pop\n      pop\n      pop\n      pop\n      jump\t// out\n\n    auxdata: 0xa2646970667358221220f5f75e39c751e8feab3bb0ffac2f9929b6a099c74ce18e695d67f899f5c091d164736f6c634300081e0033\n}\n",
				"bytecode": {
					"linkReferences": {},
					"object": "608060405234801561000f575f5ffd5b5060405161067f38038061067f833981810160405281019061003191906100d4565b805f5f6101000a81548173ffffffffffffffffffffffffffffffffffffffff021916908373ffffffffffffffffffffffffffffffffffffffff160217905550506100ff565b5f5ffd5b5f73ffffffffffffffffffffffffffffffffffffffff82169050919050565b5f6100a38261007a565b9050919050565b6100b381610099565b81146100bd575f5ffd5b50565b5f815190506100ce816100aa565b92915050565b5f602082840312156100e9576100e8610076565b5b5f6100f6848285016100c0565b91505092915050565b6105738061010c5f395ff3fe608060405234801561000f575f5ffd5b506004361061003f575f3560e01c8063b6e9eb6714610043578063e2f273bd1461005f578063f851a4401461007b575b5f5ffd5b61005d600480360381019061005891906102fd565b610099565b005b610079600480360381019061007491906103db565b61016d565b005b61008361023d565b6040516100909190610415565b60405180910390f35b5f5f9054906101000a900473ffffffffffffffffffffffffffffffffffffffff1673ffffffffffffffffffffffffffffffffffffffff163373ffffffffffffffffffffffffffffffffffffffff1614610127576040517f08c379a000000000000000000000000000000000000000000000000000000000815260040161011e90610488565b60405180910390fd5b83857f16d809a57f6d03ac9738ebb419b69cc646f30ccd96ca9e61ef61207a6076f03c8542868660405161015e94939291906104ff565b60405180910390a35050505050565b5f5f9054906101000a900473ffffffffffffffffffffffffffffffffffffffff1673ffffffffffffffffffffffffffffffffffffffff163373ffffffffffffffffffffffffffffffffffffffff16146101fb576040517f08c379a00000000000000000000000000000000000000000000000000000000081526004016101f290610488565b60405180910390fd5b805f5f6101000a81548173ffffffffffffffffffffffffffffffffffffffff021916908373ffffffffffffffffffffffffffffffffffffffff16021790555050565b5f5f9054906101000a900473ffffffffffffffffffffffffffffffffffffffff1681565b5f5ffd5b5f5ffd5b5f819050919050565b61027b81610269565b8114610285575f5ffd5b50565b5f8135905061029681610272565b92915050565b5f5ffd5b5f5ffd5b5f5ffd5b5f5f83601f8401126102bd576102bc61029c565b5b8235905067ffffffffffffffff8111156102da576102d96102a0565b5b6020830191508360018202830111156102f6576102f56102a4565b5b9250929050565b5f5f5f5f5f6080868803121561031657610315610261565b5b5f61032388828901610288565b955050602061033488828901610288565b945050604061034588828901610288565b935050606086013567ffffffffffffffff81111561036657610365610265565b5b610372888289016102a8565b92509250509295509295909350565b5f73ffffffffffffffffffffffffffffffffffffffff82169050919050565b5f6103aa82610381565b9050919050565b6103ba816103a0565b81146103c4575f5ffd5b50565b5f813590506103d5816103b1565b92915050565b5f602082840312156103f0576103ef610261565b5b5f6103fd848285016103c7565b91505092915050565b61040f816103a0565b82525050565b5f6020820190506104285f830184610406565b92915050565b5f82825260208201905092915050565b7f6f6e6c792061646d696e000000000000000000000000000000000000000000005f82015250565b5f610472600a8361042e565b915061047d8261043e565b602082019050919050565b5f6020820190508181035f83015261049f81610466565b9050919050565b6104af81610269565b82525050565b828183375f83830152505050565b5f601f19601f8301169050919050565b5f6104de838561042e565b93506104eb8385846104b5565b6104f4836104c3565b840190509392505050565b5f6060820190506105125f8301876104a6565b61051f60208301866104a6565b81810360408301526105328184866104d3565b90509594505050505056fea2646970667358221220f5f75e39c751e8feab3bb0ffac2f9929b6a099c74ce18e695d67f899f5c091d164736f6c634300081e0033",
					"opcodes": "PUSH1 0x80 PUSH1 0x40 MSTORE CALLVALUE DUP1 ISZERO PUSH2 0xF JUMPI PUSH0 PUSH0 REVERT JUMPDEST POP PUSH1 0x40 MLOAD PUSH2 0x67F CODESIZE SUB DUP1 PUSH2 0x67F DUP4 CODECOPY DUP2 DUP2 ADD PUSH1 0x40 MSTORE DUP2 ADD SWAP1 PUSH2 0x31 SWAP2 SWAP1 PUSH2 0xD4 JUMP JUMPDEST DUP1 PUSH0 PUSH0 PUSH2 0x100 EXP DUP2 SLOAD DUP2 PUSH20 0xFFFFFFFFFFFFFFFFFFFFFFFFFFFFFFFFFFFFFFFF MUL NOT AND SWAP1 DUP4 PUSH20 0xFFFFFFFFFFFFFFFFFFFFFFFFFFFFFFFFFFFFFFFF AND MUL OR SWAP1 SSTORE POP POP PUSH2 0xFF JUMP JUMPDEST PUSH0 PUSH0 REVERT JUMPDEST PUSH0 PUSH20 0xFFFFFFFFFFFFFFFFFFFFFFFFFFFFFFFFFFFFFFFF DUP3 AND SWAP1 POP SWAP2 SWAP1 POP JUMP JUMPDEST PUSH0 PUSH2 0xA3 DUP3 PUSH2 0x7A JUMP JUMPDEST SWAP1 POP SWAP2 SWAP1 POP JUMP JUMPDEST PUSH2 0xB3 DUP2 PUSH2 0x99 JUMP JUMPDEST DUP2 EQ PUSH2 0xBD JUMPI PUSH0 PUSH0 REVERT JUMPDEST POP JUMP JUMPDEST PUSH0 DUP2 MLOAD SWAP1 POP PUSH2 0xCE DUP2 PUSH2 0xAA JUMP JUMPDEST SWAP3 SWAP2 POP POP JUMP JUMPDEST PUSH0 PUSH1 0x20 DUP3 DUP5 SUB SLT ISZERO PUSH2 0xE9 JUMPI PUSH2 0xE8 PUSH2 0x76 JUMP JUMPDEST JUMPDEST PUSH0 PUSH2 0xF6 DUP5 DUP3 DUP6 ADD PUSH2 0xC0 JUMP JUMPDEST SWAP2 POP POP SWAP3 SWAP2 POP POP JUMP JUMPDEST PUSH2 0x573 DUP1 PUSH2 0x10C PUSH0 CODECOPY PUSH0 RETURN INVALID PUSH1 0x80 PUSH1 0x40 MSTORE CALLVALUE DUP1 ISZERO PUSH2 0xF JUMPI PUSH0 PUSH0 REVERT JUMPDEST POP PUSH1 0x4 CALLDATASIZE LT PUSH2 0x3F JUMPI PUSH0 CALLDATALOAD PUSH1 0xE0 SHR DUP1 PUSH4 0xB6E9EB67 EQ PUSH2 0x43 JUMPI DUP1 PUSH4 0xE2F273BD EQ PUSH2 0x5F JUMPI DUP1 PUSH4 0xF851A440 EQ PUSH2 0x7B JUMPI JUMPDEST PUSH0 PUSH0 REVERT JUMPDEST PUSH2 0x5D PUSH1 0x4 DUP1 CALLDATASIZE SUB DUP2 ADD SWAP1 PUSH2 0x58 SWAP2 SWAP1 PUSH2 0x2FD JUMP JUMPDEST PUSH2 0x99 JUMP JUMPDEST STOP JUMPDEST PUSH2 0x79 PUSH1 0x4 DUP1 CALLDATASIZE SUB DUP2 ADD SWAP1 PUSH2 0x74 SWAP2 SWAP1 PUSH2 0x3DB JUMP JUMPDEST PUSH2 0x16D JUMP JUMPDEST STOP JUMPDEST PUSH2 0x83 PUSH2 0x23D JUMP JUMPDEST PUSH1 0x40 MLOAD PUSH2 0x90 SWAP2 SWAP1 PUSH2 0x415 JUMP JUMPDEST PUSH1 0x40 MLOAD DUP1 SWAP2 SUB SWAP1 RETURN JUMPDEST PUSH0 PUSH0 SWAP1 SLOAD SWAP1 PUSH2 0x100 EXP SWAP1 DIV PUSH20 0xFFFFFFFFFFFFFFFFFFFFFFFFFFFFFFFFFFFFFFFF AND PUSH20 0xFFFFFFFFFFFFFFFFFFFFFFFFFFFFFFFFFFFFFFFF AND CALLER PUSH20 0xFFFFFFFFFFFFFFFFFFFFFFFFFFFFFFFFFFFFFFFF AND EQ PUSH2 0x127 JUMPI PUSH1 0x40 MLOAD PUSH32 0x8C379A000000000000000000000000000000000000000000000000000000000 DUP2 MSTORE PUSH1 0x4 ADD PUSH2 0x11E SWAP1 PUSH2 0x488 JUMP JUMPDEST PUSH1 0x40 MLOAD DUP1 SWAP2 SUB SWAP1 REVERT JUMPDEST DUP4 DUP6 PUSH32 0x16D809A57F6D03AC9738EBB419B69CC646F30CCD96CA9E61EF61207A6076F03C DUP6 TIMESTAMP DUP7 DUP7 PUSH1 0x40 MLOAD PUSH2 0x15E SWAP5 SWAP4 SWAP3 SWAP2 SWAP1 PUSH2 0x4FF JUMP JUMPDEST PUSH1 0x40 MLOAD DUP1 SWAP2 SUB SWAP1 LOG3 POP POP POP POP POP JUMP JUMPDEST PUSH0 PUSH0 SWAP1 SLOAD SWAP1 PUSH2 0x100 EXP SWAP1 DIV PUSH20 0xFFFFFFFFFFFFFFFFFFFFFFFFFFFFFFFFFFFFFFFF AND PUSH20 0xFFFFFFFFFFFFFFFFFFFFFFFFFFFFFFFFFFFFFFFF AND CALLER PUSH20 0xFFFFFFFFFFFFFFFFFFFFFFFFFFFFFFFFFFFFFFFF AND EQ PUSH2 0x1FB JUMPI PUSH1 0x40 MLOAD PUSH32 0x8C379A000000000000000000000000000000000000000000000000000000000 DUP2 MSTORE PUSH1 0x4 ADD PUSH2 0x1F2 SWAP1 PUSH2 0x488 JUMP JUMPDEST PUSH1 0x40 MLOAD DUP1 SWAP2 SUB SWAP1 REVERT JUMPDEST DUP1 PUSH0 PUSH0 PUSH2 0x100 EXP DUP2 SLOAD DUP2 PUSH20 0xFFFFFFFFFFFFFFFFFFFFFFFFFFFFFFFFFFFFFFFF MUL NOT AND SWAP1 DUP4 PUSH20 0xFFFFFFFFFFFFFFFFFFFFFFFFFFFFFFFFFFFFFFFF AND MUL OR SWAP1 SSTORE POP POP JUMP JUMPDEST PUSH0 PUSH0 SWAP1 SLOAD SWAP1 PUSH2 0x100 EXP SWAP1 DIV PUSH20 0xFFFFFFFFFFFFFFFFFFFFFFFFFFFFFFFFFFFFFFFF AND DUP2 JUMP JUMPDEST PUSH0 PUSH0 REVERT JUMPDEST PUSH0 PUSH0 REVERT JUMPDEST PUSH0 DUP2 SWAP1 POP SWAP2 SWAP1 POP JUMP JUMPDEST PUSH2 0x27B DUP2 PUSH2 0x269 JUMP JUMPDEST DUP2 EQ PUSH2 0x285 JUMPI PUSH0 PUSH0 REVERT JUMPDEST POP JUMP JUMPDEST PUSH0 DUP2 CALLDATALOAD SWAP1 POP PUSH2 0x296 DUP2 PUSH2 0x272 JUMP JUMPDEST SWAP3 SWAP2 POP POP JUMP JUMPDEST PUSH0 PUSH0 REVERT JUMPDEST PUSH0 PUSH0 REVERT JUMPDEST PUSH0 PUSH0 REVERT JUMPDEST PUSH0 PUSH0 DUP4 PUSH1 0x1F DUP5 ADD SLT PUSH2 0x2BD JUMPI PUSH2 0x2BC PUSH2 0x29C JUMP JUMPDEST JUMPDEST DUP3 CALLDATALOAD SWAP1 POP PUSH8 0xFFFFFFFFFFFFFFFF DUP2 GT ISZERO PUSH2 0x2DA JUMPI PUSH2 0x2D9 PUSH2 0x2A0 JUMP JUMPDEST JUMPDEST PUSH1 0x20 DUP4 ADD SWAP2 POP DUP4 PUSH1 0x1 DUP3 MUL DUP4 ADD GT ISZERO PUSH2 0x2F6 JUMPI PUSH2 0x2F5 PUSH2 0x2A4 JUMP JUMPDEST JUMPDEST SWAP3 POP SWAP3 SWAP1 POP JUMP JUMPDEST PUSH0 PUSH0 PUSH0 PUSH0 PUSH0 PUSH1 0x80 DUP7 DUP9 SUB SLT ISZERO PUSH2 0x316 JUMPI PUSH2 0x315 PUSH2 0x261 JUMP JUMPDEST JUMPDEST PUSH0 PUSH2 0x323 DUP9 DUP3 DUP10 ADD PUSH2 0x288 JUMP JUMPDEST SWAP6 POP POP PUSH1 0x20 PUSH2 0x334 DUP9 DUP3 DUP10 ADD PUSH2 0x288 JUMP JUMPDEST SWAP5 POP POP PUSH1 0x40 PUSH2 0x345 DUP9 DUP3 DUP10 ADD PUSH2 0x288 JUMP JUMPDEST SWAP4 POP POP PUSH1 0x60 DUP7 ADD CALLDATALOAD PUSH8 0xFFFFFFFFFFFFFFFF DUP2 GT ISZERO PUSH2 0x366 JUMPI PUSH2 0x365 PUSH2 0x265 JUMP JUMPDEST JUMPDEST PUSH2 0x372 DUP9 DUP3 DUP10 ADD PUSH2 0x2A8 JUMP JUMPDEST SWAP3 POP SWAP3 POP POP SWAP3 SWAP6 POP SWAP3 SWAP6 SWAP1 SWAP4 POP JUMP JUMPDEST PUSH0 PUSH20 0xFFFFFFFFFFFFFFFFFFFFFFFFFFFFFFFFFFFFFFFF DUP3 AND SWAP1 POP SWAP2 SWAP1 POP JUMP JUMPDEST PUSH0 PUSH2 0x3AA DUP3 PUSH2 0x381 JUMP JUMPDEST SWAP1 POP SWAP2 SWAP1 POP JUMP JUMPDEST PUSH2 0x3BA DUP2 PUSH2 0x3A0 JUMP JUMPDEST DUP2 EQ PUSH2 0x3C4 JUMPI PUSH0 PUSH0 REVERT JUMPDEST POP JUMP JUMPDEST PUSH0 DUP2 CALLDATALOAD SWAP1 POP PUSH2 0x3D5 DUP2 PUSH2 0x3B1 JUMP JUMPDEST SWAP3 SWAP2 POP POP JUMP JUMPDEST PUSH0 PUSH1 0x20 DUP3 DUP5 SUB SLT ISZERO PUSH2 0x3F0 JUMPI PUSH2 0x3EF PUSH2 0x261 JUMP JUMPDEST JUMPDEST PUSH0 PUSH2 0x3FD DUP5 DUP3 DUP6 ADD PUSH2 0x3C7 JUMP JUMPDEST SWAP2 POP POP SWAP3 SWAP2 POP POP JUMP JUMPDEST PUSH2 0x40F DUP2 PUSH2 0x3A0 JUMP JUMPDEST DUP3 MSTORE POP POP JUMP JUMPDEST PUSH0 PUSH1 0x20 DUP3 ADD SWAP1 POP PUSH2 0x428 PUSH0 DUP4 ADD DUP5 PUSH2 0x406 JUMP JUMPDEST SWAP3 SWAP2 POP POP JUMP JUMPDEST PUSH0 DUP3 DUP3 MSTORE PUSH1 0x20 DUP3 ADD SWAP1 POP SWAP3 SWAP2 POP POP JUMP JUMPDEST PUSH32 0x6F6E6C792061646D696E00000000000000000000000000000000000000000000 PUSH0 DUP3 ADD MSTORE POP JUMP JUMPDEST PUSH0 PUSH2 0x472 PUSH1 0xA DUP4 PUSH2 0x42E JUMP JUMPDEST SWAP2 POP PUSH2 0x47D DUP3 PUSH2 0x43E JUMP JUMPDEST PUSH1 0x20 DUP3 ADD SWAP1 POP SWAP2 SWAP1 POP JUMP JUMPDEST PUSH0 PUSH1 0x20 DUP3 ADD SWAP1 POP DUP2 DUP2 SUB PUSH0 DUP4 ADD MSTORE PUSH2 0x49F DUP2 PUSH2 0x466 JUMP JUMPDEST SWAP1 POP SWAP2 SWAP1 POP JUMP JUMPDEST PUSH2 0x4AF DUP2 PUSH2 0x269 JUMP JUMPDEST DUP3 MSTORE POP POP JUMP JUMPDEST DUP3 DUP2 DUP4 CALLDATACOPY PUSH0 DUP4 DUP4 ADD MSTORE POP POP POP JUMP JUMPDEST PUSH0 PUSH1 0x1F NOT PUSH1 0x1F DUP4 ADD AND SWAP1 POP SWAP2 SWAP1 POP JUMP JUMPDEST PUSH0 PUSH2 0x4DE DUP4 DUP6 PUSH2 0x42E JUMP JUMPDEST SWAP4 POP PUSH2 0x4EB DUP4 DUP6 DUP5 PUSH2 0x4B5 JUMP JUMPDEST PUSH2 0x4F4 DUP4 PUSH2 0x4C3 JUMP JUMPDEST DUP5 ADD SWAP1 POP SWAP4 SWAP3 POP POP POP JUMP JUMPDEST PUSH0 PUSH1 0x60 DUP3 ADD SWAP1 POP PUSH2 0x512 PUSH0 DUP4 ADD DUP8 PUSH2 0x4A6 JUMP JUMPDEST PUSH2 0x51F PUSH1 0x20 DUP4 ADD DUP7 PUSH2 0x4A6 JUMP JUMPDEST DUP2 DUP2 SUB PUSH1 0x40 DUP4 ADD MSTORE PUSH2 0x532 DUP2 DUP5 DUP7 PUSH2 0x4D3 JUMP JUMPDEST SWAP1 POP SWAP6 SWAP5 POP POP POP POP POP JUMP INVALID LOG2 PUSH5 0x6970667358 0x22 SLT KECCAK256 CREATE2 0xF7 MCOPY CODECOPY 0xC7 MLOAD 0xE8 INVALID 0xAB EXTCODESIZE 0xB0 SELFDESTRUCT 0xAC 0x2F SWAP10 0x29 0xB6 LOG0 SWAP10 0xC7 0x4C RJUMPI 0x8E69 TSTORE PUSH8 0xF899F5C091D16473 PUSH16 0x6C634300081E00330000000000000000 "
				},
				"gasEstimates": {
					"creation": {
						"codeDepositCost": "279000",
						"executionCost": "infinite",
						"totalCost": "infinite"
					},
					"external": {
						"admin()": "2529",
						"setTrustScore(uint256,uint256,uint256,string)": "infinite",
						"updateAdmin(address)": "26882"
					}
				},
				"methodIdentifiers": {
					"admin()": "f851a440",
					"setTrustScore(uint256,uint256,uint256,string)": "b6e9eb67",
					"updateAdmin(address)": "e2f273bd"
				}
			},
			"storageLayout": {
				"storage": [
					{
						"astId": 3,
						"contract": "CoopTrust.sol:CoopTrust",
						"label": "admin",
						"offset": 0,
						"slot": "0",
						"type": "t_address"
					}
				],
				"types": {
					"t_address": {
						"encoding": "inplace",
						"label": "address",
						"numberOfBytes": "20"
					}
				}
			},
			"userdoc": {
				"kind": "user",
				"methods": {},
				"version": 1
			}
		}
	}
}